:020000021000EC
:108000000040002059000200950002009700020085
:108010000000000000000000000000000000000060
:1080200000000000000000000000000099000200B5
:1080300000000000000000009B0002009D00020004
:108040009F000200F1AA0100150702009F00020034
:108050009F00020000000000D10002009F0002000B
:108060009F000200F10802009D0502009F0002002F
:108070009F0002009F0002009F0002009F0002007C
:108080009F0002009F0002009F0002009F0002006C
:108090009F0002007DE30100B9F201009F00020091
:1080A0009F0002009F00020000000000000000008E
:1080B00000000000000000000000000000000000C0
:1080C000054B0648033310B51B1A062B03D9044B86
:1080D000002B00D0984710BDA8200020A820002029
:1080E000000000000648074910B5091A8910CB0F97
:1080F0005918491003D0044B002B00D0984710BDED
:10810000A8200020A82000200000000010B5074C87
:108110002378002B09D1FFF7D3FF054B002B02D0AA
:10812000044800E000BF0123237010BDB0200020F0
:108130000000000014950200094B10B5002B03D07D
:108140000849094800E000BF08480368002B02D135
:10815000FFF7C8FF10BD064B002BF9D09847F7E793
:1081600000000000B420002014950200A820002088
:1081700000000000144B002B00D1124B9D46402202
:1081800092029A1A924600218B460F461148124AD3
:10819000121A0BF0F5FE0D4B002B00D098470C4B3C
:1081A000002B00D098470020002104000D000B4850
:1081B0000BF07AFD0BF0C6FD200029000FF03DFF0B
:1081C0000BF090FD000008000040002000000000BF
:1081D00000000000A8200020302A0020113D0200ED
:1081E00010B50400034B036040300DF075F820001B
:1081F00010BDC0465884020013B5144C200000F096
:1082000021F9D3239B00E01802F0BAFC200069306A
:10821000FF300DF000FB0E49002807D120009130FF
:10822000FF300DF0F8FA00280CD00A4901A800F040
:1082300059FFD9239B00E01801A90EF0F2F901A81B
:108240000DF04AF8642000F017FDDFE7CC20002095
:10825000EF930200548F020010B5054C200000F08F
:1082600039F8044A0449200010F0CDF810BDC0468A
:10827000CC200020002000207D820100CA23144A67
:108280009B0010B5C2501C330400C0180DF024F838
:10829000D0239B00E0180DF01FF820009130FF3034
:1082A00001F0B8FA20006930FF3001F0B3FA200085
:1082B000F03001F0A5FE2000D03002F003FA2000DB
:1082C000643007F035FE201DFFF78AFF200010BD47
:1082D000E48802001423F0B5040093B0192200933F
:1082E0001821043002F084FD2300250026006433A9
:1082F0001800B43513211093B83607F025FE280076
:108300000EF00AFA00221E2130000DF0A1FE20001E
:10831000D03002F0F7F92300F033474A0621180065
:10832000119301F091FE20000027012369301A000B
:1083300000971121FF3001F0E9FA200091300097F9
:10834000012302221A21FF3001F0E0FA2000B930A7
:10835000022201211A23FF3002F094FA300001F0CA
:10836000E1F8E4235B00E050300001F02BFBE62352
:108370005B00E0500100E42220005200D130119B4C
:10838000A2580095FF3001F06FFD2000E130290078
:108390001C22FF3002F0C6FE192320000F93013B80
:1083A0000E93013B0D93013B0C93013B0B93013B5F
:1083B0000A93013B0993013B0893013B0793013B5F
:1083C0000693013B0593013B0493013B0393013B5F
:1083D0000293013B0193F930013B082200930721EE
:1083E000013BFF300DF055FECA239B00E018290029
:1083F00003F0CAFED3239B00E0181D2102F012FBFC
:10840000DD239B00E7501098277003210FF043FDF8
:1084100023002200200009499C33A0321C60116017
:108420005760074A80305A610221012207F002FF9B
:10843000200013B0F0BDC046608402001B4F020054
:10844000074F02000123F0B5057891B007001D40E9
:1084500000D0DFE00300D0331800049300F0ECFA02
:1084600000F0DEF928200FF0D5FF040010300CF0EA
:10847000C2FF694B6580238018200FF0CBFF0600F8
:10848000664B80C603901022290030000E930F9592
:108490000BF076FD08220EA930000BF0E7FC604BD4
:1084A000039AE56053611223A260A380256265628E
:1084B0002100049802F08EF8002805D020000CF06E
:1084C000C1FE20000FF09BFF01223B78554913436A
:1084D0003B703B00B433180005930EF023F952496A
:1084E000039005980EF01EF900260690642000F017
:1084F000C3FB340035003B006933FF33180007939A
:108500000DF089F9002803D1039B002B0DD109E060
:1085100038009130FF300DF07EF90028F4D0182D8E
:1085200003DDF1E7069B002B70D03800653021B2E7
:10853000FF2332B2FF3000F053FE322000F09CFBEC
:10854000631CDCB20135052C02D10024731CDEB2A1
:10855000039B192D02D0002B02D1CCE7002B03D0B6
:108560003049059802F072FD03980FF048FF069815
:108570000FF045FF2D492E4800F05EFCDD239B00E7
:10858000FB580893002B38D100F062F801000AA8CC
:1085900000F0A8FD0CF046FD08900CF043FD6B4682
:1085A0000990198C0CA80CF0B3FE099B0DA8190CAE
:1085B0000CF0AEFE0DAA0CA90BA80CF0F9FE0DA84C
:1085C0000CF08AFE0CA80CF087FECA200123800064
:1085D0000BAA0AA900933818049B03F029FE0BA8E4
:1085E0000CF07AFE0AA80CF077FECC239B00FB5817
:1085F0000893DD23089A9B00FA50CA2339009B0098
:10860000079AF031F81804F007F874E707490948A9
:1086100000F012FC11B0F0BDFD0300008F4F02000E
:108620004F4F02008C8F0200978F02000020002025
:10863000001C002008000020BFF34F8F024A034BAC
:10864000DA60BFF34F8FFEE70400FA0500ED00E0AB
:10865000F0B58DB005AF1922154938000BF006FCB6
:108660000022144B05245A7180225205566E0122B5
:1086700025000194029203930199300008F0CAFA90
:108680000800029908F040FA019B03996B4301939B
:10869000029B361A6B430293631E2C1B6C433C19DE
:1086A000225C1C1ECA54E7D108000DB0F0BDC046C4
:1086B000A78F02005E290020F0B595B01822002196
:1086C00006000EA80BF05CFC13210EA80FF01FFD96
:1086D00003210EA80FF0B1FD01224A4B00921B6846
:1086E000002B01D0DBB200930123474A002109A8E7
:1086F00007F010FF454B9E4200D9002672B6444B4E
:108700001022002105A81D680BF03AFC414B6421A2
:1087100030000593052408F081FA60435030281892
:1087200006900A21300008F079FA0A2108F05CFB73
:10873000614350316918079130000A2108F054FB59
:108740004C43210050316C18802608940024B60157
:10875000009B002B3CD004AD0027032C02D18026C7
:108760000024B6016B682C4A029363000133D318CE
:10877000002201921021581E0078014103911978BE
:108780008C4660460299095C0398014204D001209E
:10879000904001990143019101320633092AE9D140
:1087A000019B2A68D9431D4B09011940029B934242
:1087B00003D1312F01DC002100E0314309A80FF083
:1087C000F7FDFA23139A0F99DB001068014201D1DB
:1087D000FFF732FF013B002BF7D1FA2301340137B9
:1087E0007600E4B25B009F42B7D1043508ABAB42E0
:1087F000B2D1044B1B68002BAAD0009B013BDBB21B
:108800000093A5E744240020F0FF0000E7030000E8
:1088100004200020F68F0200C08F0200F01F00002D
:10882000F8B50023144C23600CF0EEFB2500002863
:1088300008D0042120000CF0E3FB00281BD00F4BD4
:10884000236018E00122A12704210D4B0D4E1A6070
:108850002368FF000B4A7060944662465268084CD9
:10886000002AFAD0E2591B02013913430029F1D141
:108870002B6001236360F8BD48240020ED5EBC0B33
:1088800000D00040FCD00040F0B585B01F000AAB1E
:108890001B880600029115000393002F1AD0282090
:1088A0000FF0B8FD6B4604001989039BAAB2009330
:1088B0003B000CF0B0FC336821005B683000984747
:1088C000002808D020000CF0BDFC20000FF097FD20
:1088D000024800E0024805B0F0BDC04616FCFFFFAC
:1088E00017FCFFFF0B4B70B51C68002C11D0656D99
:1088F00000F0B4FBA36C002903D1834201D92C0002
:10890000F3E720000CF0B3FB034920000CF09CFBC4
:10891000F5E770BD7024002078240020F0B5040035
:1089200093B00793230C0293294B04901C68294BA6
:1089300005911E68069285B20027002E46D0002CB5
:1089400030D0636D24480393A36C9AB21B0C99B288
:10895000854216D12148824213D1002B04D0029BBC
:10896000994201D0039CEAE7002F01D00127F9E7E3
:1089700020000CF07CFB1A4920000CF065FB01374D
:10898000F0E7002A01D09542ECD1002B02D0029BE7
:108990009942E7D120000CF06AFB114920000CF04D
:1089A00053FBDFE70F4BEB18012B0FD91023029A73
:1089B000009329000C4B08A80CF02DFC336808A983
:1089C0009B683000984708A80CF03CFC13B0F0BD41
:1089D0006C2400207C240020FE030000FF03000024
:1089E0007824002002FCFFFF1D89010010B572B63B
:1089F0000B4B1C68002C03D020000CF038FB08E067
:108A000062B65C200FF006FD5C22002104000BF032
:108A1000B7FA0023E364034B2000E36310BDC046B4
:108A20004C24002000400020024B187801231840FD
:108A30007047C04664290020F7B50600FFF7F4FF31
:108A4000051E33D11A4C2660FFF7D0FF194B1A4987
:108A500018600CF0F9FAFFF7C9FF184B1860184BB3
:108A60004363184B8363206800280ED0C027164E3E
:108A70002A00330015490097FFF706FF00973300DF
:108A80002A0013492068FFF7FFFE0C200FF0C2FCFC
:108A90000023838083710F4B03600F4B836000F0D2
:108AA000F5FA01210D4A13780B431370F7BDC04648
:108AB0007C240020502400207824002080240020E2
:108AC000FC3F0020355102001D890100FF0300001A
:108AD000FE03000080840200E58801006429002074
:108AE000F7B506000D0017000193002801D1002002
:108AF00015E00029FBD0FFF779FF041EF7D0084BE3
:108B0000019A4363066045608760064B002A00D0E7
:108B1000054B2000A36305490CF096FA2000FEBD2A
:108B2000FC3F0020FF5002001D510200782400206D
:108B3000024B1868434258417047C04678240020D1
:108B4000002310B504499C006258002A01D001336B
:108B5000F9E76050100010BD54240020002310B528
:108B6000044A99008C58844201D00133F9E700206F
:108B7000885010BD5424002010B50024074BE05845
:108B8000002802D003685B6898470434182CF5D19C
:108B9000034B1B68002B00D120BF10BD54240020C4
:108BA00078240020F8B5FFF73FFF002856D02C4E60
:108BB00034683500E36CDA0718D502273B43E364D9
:108BC000284B1D680423EA6C28001343EB64636B95
:108BD000EB630CF072FA2800696C04F018F9306845
:108BE000C36C3B423AD004F04CF937E01E4F1F4EA5
:108BF0003A68002A01D1326808E0216DB94205D1F6
:108C0000616D002900D11100296000E02A602A6806
:108C100031688A4208D11B0706D52C60FFF7ACFFEC
:108C20003B68002BFAD02B6029688C4216D0336841
:108C3000994204D10E4B4B630E4B8B6305E09C4273
:108C400003D100224B6C100006E020000CF035FA36
:108C500020002968626C4B6C04F098F8F8BDC0469F
:108C60005024002074240020782400208024002038
:108C7000FC3F00203551020070B50500FFF7D4FE1F
:108C8000002803D128000FF0D1FA18E00C4B1C6823
:108C9000E36CDB0706D5FFF7A9FE0A4B1860002836
:108CA00000D0040000F0DAF92818A06420000CF0CD
:108CB000DEF9054920000CF0C7F9FFF773FF70BD1E
:108CC000502400207424002070240020F0B51E4B96
:108CD00085B01C681D4B06001A680F000393002A1C
:108CE00003D0FFF7A1FE002801D119482AE0E36C68
:108CF000DB070ED5FFF77AFE164B051E186008D06D
:108D00000CF0B5F9144928000CF09EF92C00FFF77F
:108D100049FF3B043343A36420000CF0A8F9200072
:108D20000E490CF091F90E4B0020F318012B09D9D4
:108D3000C023039800933A000A4B31000068FFF704
:108D4000A3FD002005B0F0BD502400207C240020AD
:108D500016FCFFFF74240020782400206C240020DF
:108D600002FCFFFF1D89010010B5FFF75DFE002822
:108D700009D0054C20680CF07AF9044920680CF001
:108D800063F9FFF70FFF10BD502400204C24002092
:108D9000F7B507000D0000282DD0FFF745FE00288D
:108DA0002BD00724164E3068C36C1C4006D0154AE1
:108DB000290038000CF072F900241FE004F049F893
:108DC00002213268D36C1940019103D003218B43F7
:108DD000D36413E001242343D3642800B8473268E6
:108DE000D36C1900A143D164019C5B0706D5280010
:108DF0000CF08CF902E0044C00E0044C2000FEBDB5
:108E0000502400200D51020017FCFFFF16FCFFFF4D
:108E1000020010B5014B12CB12C210BD84240020F9
:108E2000034A044B12681A607E225A607047C0469B
:108E3000042000208424002070B5124E05003278F2
:108E4000022A1AD081421AD90C1A072C17D9080005
:108E500003232843034012D172B60B48D2001550A9
:108E6000821851608022A408120614432C603278C4
:108E70000132327062B6180002E0044800E0044893
:108E800070BDC046662900208C24002013FCFFFF23
:108E900017FCFFFF70B5134A060013781400124D3B
:108EA000002B0CD1114912482B70FFF7C5FF114B55
:108EB000984202D11E20FFF7FFFB012323700024FC
:108EC0002B789C4209DA0C49E300C91830000CF0F9
:108ED00037F9002805D10134F2E71420FFF7ECFB45
:108EE000002070BD65290020662900200038002080
:108EF000302A002017FCFFFF8C24002070B50028CA
:108F00001FD0104B10491C780023A34216DADA0058
:108F10005558A84210D98A18526890420CD2041FA2
:108F20002368002B02DC1E20FFF7C6FB802322688B
:108F30001B061343236004E00133E6E71E20FFF71E
:108F4000BBFB70BD662900208C24002070B5051E77
:108F500015DD0C4B0C4E1A681C00002A02D030683C
:108F60000EF0EFFFFA21256000243068074B8900DE
:108F70008361C46269430EF0ECFF200000E0044806
:108F800070BDC046CC2400209C24002039900100F4
:108F900017FCFFFFF8B5114F06003D68002D0AD100
:108FA00030200FF037FA040007F028F80C4BA561C9
:108FB0002360E5623C600B4D2B68002B09D110202B
:108FC0000FF028FA04000FF011F820002C600EF0CA
:108FD000E7FF3000FFF7BAFFF8BDC0469C24002031
:108FE0008C8C0200C8240020014B18687047C046D2
:108FF000CC24002070B50D4C2368002B03D00C4B03
:109000001B68002B02D10620FFF7C4FF20680EF07A
:10901000DEFF02000749C3170D684E6852197341FD
:1090200020680A604B600EF0D8FF70BDC824002095
:109030009C240020A820002010B5FFF7DBFF0024AF
:10904000054BE058002802D003681B689847043499
:10905000282CF5D110BDC046A024002010B5FFF784
:10906000C9FFFA22034B920018685968002307F0E1
:1090700039FF10BDA820002010B5FFF7BBFF024B41
:109080001868596810BDC046A82000200B4B10B5C9
:109090001B680400002B03D0094B1B68002B02D176
:1090A0000620FFF777FF0023064A9900885800281A
:1090B00001D00133F9E78C5010BDC046C824002010
:1090C0009C240020A0240020002310B5044A99000D
:1090D0008C58844201D00133F9E70020885010BD3C
:1090E000A024002010B50400002902D00B78002B2A
:1090F00002D1034B236001E00CF0F5F8200010BD15
:1091000090840200F8B505000E00140000290AD072
:109110000B78002B07D0002A05D0080097B20BF07F
:1091200003F9874202D90B4B2B6010E0601DFFF75B
:10913000B1FE28600CF079FA2868220047803100DF
:1091400004300AF093FE2B681C19002323712800B9
:10915000F8BDC04690840200014B03607047C046D2
:109160009084020010B50548054C20600CF060FAB0
:10917000044A054920000FF046F910BD9084020012
:10918000D024002000200020D9520200084B73B5E3
:109190001C680500002C0AD001002668083108224E
:1091A00068460AF063FE0CCD31682000884773BD25
:1091B000D4240020014B03607047C046988402000D
:1091C00010B50400002902D1044B036003E00160E4
:1091D00008000CF02DFA200010BDC0469884020053
:1091E00030B504686088814206DAA588AA4203DAAD
:1091F000002901DB002A01DA034804E04243601839
:1092000080188371002030BD17FCFFFFF0B5070008
:1092100085B00E001D00002921DD002A1FDD002B76
:109220001DD00468638803938B4200DD0391A388FB
:109230000293934200DD0292002306340193019BC6
:10924000029A93420DDA29002000039A0AF00EFEDA
:109250003B68AD195B88E418019B0133EEE70248D7
:1092600000E0002005B0F0BD17FCFFFFF8B50400DA
:109270000D0016001F00002901DB002A02DA0D4B49
:10928000236016E0100048430630FFF703FE20601D
:109290000CF0CBF923685D809E80002F06D03B0048
:1092A000320029002000FFF7B1FF02E020000CF09F
:1092B000F4F8F8BD98840200F7B505000C1E05D03F
:1092C00000200F0006000190010015E0224B036012
:1092D0003FE03022524294469C446246092A14D907
:1092E0000A2B0DD1019B361801330193B14200DAEC
:1092F00031000020060001373B78002BE9D106E061
:109300000028F8D001360020F5E70120F3E76A468F
:10931000928809B212B22800FFF7A8FF2B680A262C
:10932000991D01235B422078002812D00200303AB8
:10933000092A06D8DA43D217134073431B18303B6F
:1093400005E0002B03DB0B70012301315B4201348C
:10935000E9E72800FEBDC04698840200F0B504008D
:1093600087B004A815001E000F00FFF751FD236809
:109370005A88954208DA9B88B34205DD1F2F03D92E
:10938000059B00939F4201DD18482DE00523002135
:109390007B430093049B0193009B019ACB18A03B55
:1093A000D35C0022029373189C46531927680393D9
:1093B0007888834202DABB889C4507DB0132052AA4
:1093C000F3D101310529E7D100200DE06346584370
:1093D0005319FB18102717411B1802980740781ED5
:1093E00087417F429F71E9E707B0F0BD17FCFFFF9F
:1093F000F7B5036806009C1D5B880D005A1A0192A0
:10940000002918DD0027994202DB0CF046F814E031
:1094100033689B889F4210DA6119019A20000AF094
:1094200025FD019B2900E0180CF01AF8336801377C
:109430005B88E418ECE7024800E00020FEBDC0466F
:1094400017FCFFFF10B50548054C20600CF0F0F844
:10945000044A054920000EF0D6FF10BD9884020092
:10946000D8240020002000205354020010B5054CE1
:10947000012120000CF0D0F8034A044920000EF02E
:10948000C2FF10BDDC24002000200020D7550200C0
:109490000388074A10B50120934208D0834202D0C6
:1094A0000020DB0703D41E20FFF706F9002010BDC3
:1094B000FFFF00000048704716FCFFFF10B5322088
:1094C000FFF7FAF8004810BD16FCFFFF8280142257
:1094D00010B5134C0281083402000023046041627D
:1094E00004000221303283718172C36003614361E1
:1094F0008361C3610362363413705370438683867D
:1095000022788A43F1310A402270020040321370FF
:10951000021DD387013343878387C38710BDC046AD
:10952000B8840200F0B5544F97B03B68060005932D
:10953000002B00D094E006AC0B331C22212120002C
:1095400001F0D8F90EAD0B231D2222210AA801F04B
:10955000D1F90B231B222321280001F0CBF908208D
:109560000EF058FF0122059B110004900DF0ECFB5A
:109570003A2130000DF055F900281CD0A38812AD17
:10958000AB80A3795C20AB713C4B1293A36814931E
:10959000237B2B73637B6B73A37BAB730EF03AFF60
:1095A00004230193363300932A00049B3100040006
:1095B00002F0CAF853E0322130000DF060F90028C3
:1095C0001CD0A38812ADAB80A3795C20AB712B4B70
:1095D0001293A3681493237B2B73637B6B73A37B1E
:1095E000AB730EF017FF042301932E3300932A0070
:1095F000049B3100040002F045FA30E03C213000C9
:109600000DF0F8F8002822D0AB8812ACA380AB791B
:10961000A420A371194B1293AB6814932B7B237373
:109620006B7B6373AB7BA3730EF0F4FE0523050025
:109630000293013B0193383300932200049B3100D5
:1096400001F09EFF0E4B3D6044351D6008E0442054
:109650000EF0E0FE042204990400FFF737FF3C609F
:10966000074B054C1868002802D021680CF040F91F
:10967000206817B0F0BDC046E0240020A884020096
:10968000E4240020F0B56049C56885B08D4206DA53
:10969000030036331A78022313400BD117E0C82297
:1096A00000235200954212DD030036331A7800235E
:1096B00092070CD4012306001F0036363278540876
:1096C000A7433C0002279C40BA43224332700469FE
:1096D0008C4205DA020036321278520709D415E0BE
:1096E000C8225200944211DD02003632127852072D
:1096F0000CD406000122363633789F08BA4397000F
:10970000042293431A0001233A43327042690192C2
:109710000200019E40328E4205DA0100363109789E
:1097200009070AD415E0C821019E49008E4210DDC8
:1097300001003631097809070BD4060001213636BD
:109740003378DF08B9430827C900BB430B433370A4
:1097500001E0002B18D01378032B15D80133DBB2AE
:109760001370012B03D10021031DD9870CE0042BBA
:109770000AD1020001213632137804300B431370F2
:109780000023C3870B333CE013780293002B1BD0DC
:1097900006000127011DCB8F363601339BB2CB87E4
:1097A00003963678BC46374008D01D2B0CD963464B
:1097B0009E43039B1E700023CB8704E0092B03D933
:1097C000029BCF87013B13700BF074FF0F4A0723F6
:1097D000904216D90E49043B8D4212DBC822013358
:1097E000920095420DDC023B8C420ADB013B944225
:1097F00007DC01980433884203DB0133904200DC2C
:109800000023180005B0F0BD70FEFFFFFF700200DE
:10981000E0FCFFFF10B50400034B08330360FFF7C3
:1098200053FC200010BDC046EC84020070B5C36933
:10983000C2681B688AB00400451D1A4250D0EB7FF5
:10984000002B01D0013BEB77EB7F082B0DD90122D8
:10985000A379134209D11343A371A188130006A869
:109860000BF0D4FDFFF7FAFB2062EB7F012B26D82B
:109870000123A2791A4222D00025A188A5710222D3
:1098800002A80BF0C3FDA31DDE7F012E17D1FFF749
:10989000E5FB2B00226A801A994100900191019BFF
:1098A000A188AB4203D1174B009A9A4202D90123F7
:1098B000042201E03300032206A80BF0A7FD0323D6
:1098C000A2791340012B1AD1FFF7C8FB0023226AAB
:1098D000801A9941994208D10B4B984205D80EE065
:1098E000EB7F0B2BB0D80133ADE70222A379A1881F
:1098F0001343A3710332012306A80BF087FD0AB0BE
:1099000070BDC046E7030000DB050000F0B50700AE
:1099100000250E0085B002930AAB1B78083703932D
:10992000104B040008330360019285808571290083
:10993000182238000AF024FB039A310038000EF098
:10994000EBFB6B466A469B88127AA380A31DE671E7
:10995000DA77631D25622000DD77FFF797FB200093
:1099600005B0F0BDEC8402000048704716FCFFFF14
:1099700010B53320FEF7A0FE004810BD16FCFFFF17
:10998000002310B50400838083710D4821640830E2
:1099900020608020C000A061E0612062E3602000C0
:1099A000236163616362A362E36223636363A3630E
:1099B000E363636411000BF074FF200010BDC04628
:1099C00004850200F0B5534F97B03B68060005933D
:1099D000002B00D094E00B331C22212106A80AACF6
:1099E00000F088FF0EAD0B231D222221200000F085
:1099F00081FF0B231B222321280000F07BFF08207E
:109A00000EF008FD0122059B110004900DF09CF959
:109A10001D2130000CF01CFF00281CD0A38812ADC3
:109A2000AB80A3796020AB713B4B1293A368149376
:109A3000237B2B73637B6B73A37BAB730EF0EAFC0E
:109A400005230193183300932A00049B310004007E
:109A500001F04EFF53E03C2130000CF027FF0028BE
:109A60001CD0A38812ADAB80A3796020AB712A4BC8
:109A70001293A3681493237B2B73637B6B73A37B79
:109A8000AB730EF0C7FC05230193373300932A0014
:109A9000049B3100040002F097F830E03C213000D4
:109AA0000CF0A8FE002822D0AB8812ACA380AB79C2
:109AB000A420A371184B1293AB6814932B7B2373D0
:109AC0006B7B6373AB7BA3730EF0A4FC05230500D3
:109AD0000293013B0193383300932200049B310031
:109AE00001F04EFD0D4B1D6044353D6008E04820FF
:109AF0000EF090FC052204990400FFF741FF3C6042
:109B0000064B1A68034B002A01D019684A6418688A
:109B100017B0F0BDE4240020A8840200E024002057
:109B200082B0F0B50400EBB06420719370920EF037
:109B30007DFB05220EA811000BF0B8FC97490FA879
:109B4000FFF7BAFB002396251A001FA86D001A50D4
:109B5000C1180C334A608A60AB42F8D11922002147
:109B600011A80AF00DFAA0680CF06BFA0026099013
:109B7000FF21A06800F092FC894FA06800F05CFB18
:109B800007960896864B9F4202D0864B9F4212DA78
:109B9000A0680CF058FAA568834918A8FFF7A2FA44
:109BA000782218A9280000F0E7FB18A80BF094FB16
:109BB0007B4F002606E0002F01D00F2E02D1A068B7
:109BC00000F03AFB0322089B606801331A400892B8
:109BD0000BF007FE050060680BF00AFE0022734BD5
:109BE00006929D4210DB013206922A00C8320BDB3E
:109BF000AA22042192000691954205DC03220692D6
:109C0000C82D01DC013A069200220492984210DB32
:109C1000012304930300C8330BDBAA2304329B0007
:109C20000492984205DC03230493C82801DC013B1D
:109C300004930EA80BF031FC002511ABEB5C012B5B
:109C400008D15B496B00CA185278C95C0EA8FF2383
:109C5000FFF7C6FA0135192DEFD16B4610229A5E37
:109C60006B460EA81821595E089BFFF7B9FA002F22
:109C700001DB0F2E07D90023A068009374301A006F
:109C80000EA90BF020FC00230593059B484A5B00BE
:109C9000995C0698814227D1D3185B78049A934245
:109CA00022D12C2206AB9B18059A9B5C012B1BD062
:109CB0000C23079A216853431D0000220AA80BF0C9
:109CC00019FE1FAA2B0094460AAA634423CA23C381
:109CD0002C2206AB05999B182B3A5A54079B01334B
:109CE000DBB20793731CDEB2059B01330593192B7E
:109CF000CBD164200EF09AFA3B00643B1FB2079B65
:109D0000182B00D83EE71A001FA918A80CF00DF870
:109D10006A461BAB23CB23C21B6813601899199AA0
:109D20001A9B20680BF0CEFDE568002D0CD0214970
:109D300010A8FFF7D7F91C2318AA10A928000CF0C7
:109D400024FD10A80BF0C8FAA0680CF07CF90FA94C
:109D500010A8A5680BF08AFB0022174B009210A9EF
:109D600001932800130000F0A9FA10A80BF071FB72
:109D7000FA2080000EF05AFAA0680CF064F90999F4
:109D8000A06800F08BFB0FA80BF063FB0EA80BF094
:109D900060FB6BB0F0BC08BC02B018470892020030
:109DA0008C3C0000D18AFFFF4D92020058FDFFFF5E
:109DB000D691020062920200DC050000F0B587B087
:109DC00001930EAB1B88060003930D9B0D000093BF
:109DD000019B02920C9F002B3DD0002F02D1009BD3
:109DE000DB0738D528200EF015FB040010300BF0EF
:109DF00002FB6B461B891820258063800EF00AFB4E
:109E0000049707000500009B10220593019B002189
:109E100008C738000AF0B4F8082204A938000AF08C
:109E200025F80E4B02226B6100230399E360236245
:109E3000636233680A43A560A2805B68210030003A
:109E40009847002808D020000BF0FCF920000EF005
:109E5000D6FA034800E0034807B0F0BD37590200C6
:109E600016FCFFFF17FCFFFF70B58CB08360109BE2
:109E700001604260C3600400184918000CF052FCF5
:109E8000051E14D001001C22103105A809F0EEFFB8
:109E90006A4608AB43CB43C21B6813602068059930
:109EA000069A079B0BF00EFD28000EF0A8FA0C4B4B
:109EB000186800280ED00B4A05AB059200220692C6
:109EC000C03202926A4622CB22C22300032205211D
:109ED000FFF774FF20000CB070BDC0466292020014
:109EE000D4240020219B0100F0B5040085B0637AE2
:109EF0009C46002B03D120000BF034FF69E0A37ACD
:109F0000266F01931023019AF35600259B18012216
:109F10009A402900F36802920393039B9D4231DA31
:109F2000B368019A6B439B1872695B00E77AD31898
:109F30001A785878E379012F04D15F1E3F1A100078
:109F40003A000EE0022F05D15F1EBA1A277A013FB0
:109F5000381A06E0032F04D1277A013FBF1A020006
:109F600038005B004343606F8218D3189B796345C8
:109F700000DD6346627B1A4202D00123AB401943E5
:109F80000135CAE71123C943F356606C9940236930
:109F90001940029B19430EF00BFAA37B072B18D82C
:109FA000627B581C520062730B499A00A073022B0B
:109FB00003D888580EF02FF999E7084B2000236347
:109FC00000236363064B8958E462236414300DF068
:109FD000C0FF05B0F0BDC04648850200E99E010003
:109FE000515D020010B50400044B03600DF0A9FFA1
:109FF000200006F019F8200010BDC0468C8C02002D
:10A0000010B504000E4B08330360FFF75DF8200025
:10A0100074300BF01EFA200060300BF01AFA2000AA
:10A0200058300BF059F9200050300BF055F9200052
:10A03000044B14306361FFF7D5FF200010BDC0460C
:10A0400030850200A08C0200F8B500250400324BD8
:10A050008580083303608571143016000F0005F009
:10A06000CDFF20002D4BE562636125645030FFF782
:10A0700073F820005830FFF76FF820006030FFF7CA
:10A0800099F820000423F25E33682667590009B26C
:10A0900074300BF00BFA3378226FE371736801268A
:10A0A00023721023E572A572A7802561D3569168AB
:10A0B00059188B4204DA3000984001330543F8E721
:10A0C00011230120D356D16859188B4206DA0200B9
:10A0D0009A402669013332432261F6E714200EF0DC
:10A0E00099F9226900212A430123060006F012FA99
:10A0F000FF226272220000230125483266646573E4
:10A10000A373237320001370A366FEF7BFFFA37928
:10A1100020002B43A371F8BD30850200A08C020003
:10A12000F0B5437A85B00400002B03D120000BF07A
:10A1300019FE66E00122837A11009C461023066F07
:10A140000025F35603926344994001912900F36876
:10A150000293029B9D422CDAB36872696B4363449D
:10A160005B00E77AD3181A785878E379012F04D185
:10A170005F1E3F1A10003A000EE0022F05D15F1E4D
:10A18000BA1A277A013F381A06E0032F04D1277A3A
:10A19000013FBF1A020038005B004343606F821822
:10A1A000D3189B79002B02D0039BAB401943013598
:10A1B000CFE71123C943F356606C994023691940D6
:10A1C000019B19430EF0F4F8667AB31EDBB2FC2B48
:10A1D00014D8FEF709FF0C4B0500236300230B483E
:10A1E00063630B4BFF21E4622364704306F016FDAA
:10A1F00029004143200014300DF0ABFE637A012B9F
:10A2000094D905B0F0BDC046655D0200B6030000FC
:10A21000515D02001FB5012381881A0068460BF0CA
:10A22000F5F8012303491A0068460BF0EFF805B072
:10A2300000BDC046FE0300001FB5030048331A7876
:10A240000400002A0DD000221A70012381881A0010
:10A2500068460BF0DBF8012304491A0068460BF04E
:10A26000D5F8200074300BF018F91FBDFF03000073
:10A2700010B548300378002B06D00378012B03D0AB
:10A28000012102480AF032FF10BDC046FF03000062
:10A2900010B50121040006200AF028FF064B984261
:10A2A00009D1230048331A78002A04D01B78012BE7
:10A2B00001D020BFF5E710BD16FCFFFF73B5079C6A
:10A2C0000500002C09DB060048363078002806D04F
:10A2D0003078012803D00D4816E00D4814E00698A8
:10A2E0001BB2C0B20090280012B274300BF0EBF831
:10A2F0000020844207D02B004A331C8007234C35B2
:10A300002880337000E0200076BDC04612FCFFFFBD
:10A3100017FCFFFFF0B587B00D9E05000F000292FD
:10A320000393002E1EDBFFF7A3FF2B0048331C789E
:10A33000E4B2002C18D1390005A80BF097F80C9B5B
:10A34000029A009305A9039B01962800FFF7B6FF28
:10A3500005A80BF07EF8301E07D02800FFF798FF05
:10A36000200002E0024800E0024807B0F0BDC0460D
:10A3700017FCFFFF11FCFFFFF8B50400171E09DDF5
:10A38000060048363378002B06D03378012B03D0F3
:10A390000C4816E00C4814E02200E3795632013BE9
:10A3A000137023000025200054331D8050300AF024
:10A3B000F0FF23004A331F80022328004C342580FD
:10A3C0003370F8BD12FCFFFF17FCFFFFF8B5040067
:10A3D000161E09DD070048373A78002A06D03A7879
:10A3E000012A03D0144826E0144824E05D42069B6D
:10A3F000FF3301D16B1D00E0069B22001BB26432CB
:10A4000013802300200066331D7060300BF036F897
:10A41000220000236C3213709D4200D0B3B22200A0
:10A420004A321380079B00205A1E9341013E4C3450
:10A43000053326803B70F8BD12FCFFFF17FCFFFFC1
:10A44000F0B587B005000F00161E03931DDDFFF762
:10A450000FFF2B0048331C78E4B2002C17D13900D1
:10A4600005A80BF003F80D9B320001930C9B05A986
:10A4700000932800039BFFF7A9FF05A80AF0E9FF56
:10A480002800FFF705FF200002E0024800E0024834
:10A4900007B0F0BD17FCFFFF11FCFFFFFF2902D83A
:10A4A0004172002000E001487047C04617FCFFFFE2
:10A4B00013B5040004A80078009020000DF0C3FC40
:10A4C000002801D1207500E0004816BD0EFCFFFFFA
:10A4D00013B5040004A80078009020000DF09BFC48
:10A4E000002801D1207500E0004816BD0EFCFFFFDA
:10A4F0007FB50D0011000F226A4404001E1E11706A
:10A5000015D0089B002B12DD012329000093FFF7D3
:10A51000DFFF002801D007480AE00090089B3200C6
:10A5200029002000FFF7C4FF002801D0F3E702480C
:10A5300004B070BD0EFCFFFF17FCFFFFF7B507006E
:10A540000D1E27D00023022604690193002C1DD084
:10A55000AA88A3885340334216D1324203D1AB8834
:10A56000334207D010E0A968A0680CF0D2FB0028A5
:10A5700004D1F4E7A368AA68934205D12B88002B85
:10A580000AD022889A4207D0646ADFE7019B200044
:10A59000002B1ADC0D4818E06B88002B02D0628873
:10A5A0009A42F1D1EB68E268934201D0002BEBD1E3
:10A5B0007B68002B01D020009847A388044A1343EE
:10A5C000A380019B01330193DEE7FEBD17FCFFFF73
:10A5D0000080FFFFF0B5060085B00D1E5CD001279E
:10A5E0000469002C1DD00221AA8800230A4202D04F
:10A5F000A3885B083B40226829688A4257D1002B18
:10A600000AD0A968A0680CF084FB00284FD0EB6842
:10A61000E26893424BD141E0A368AA68934246D1D5
:10A62000F5E731692A880F000B1E0CD13561012333
:10A63000214968460AF0EAFE20003AE0586A1F0005
:10A64000002812D0030018889042F7D318003B006E
:10A650000488944209D147886C88A74205D8446A87
:10A660000300002C01D02000F2E799420AD10888AB
:10A67000824204D306D14C886888844202D9696238
:10A68000356102E0596A69625D6201230A496846E0
:10A690000AF0BCFE00200CE008480AE0A3881AB2C9
:10A6A000002A02DA5B045B0CA380054801E0646ABF
:10A6B00097E705B0F0BDC046FD03000017FCFFFFA3
:10A6C00016FCFFFF064B10B51A00040008322C33AD
:10A6D000026083600830FEF741FA200010BDC046DA
:10A6E0006885020008B4024B9C46083808BC6047E5
:10A6F000C5A6010008B4024B9C46083808BC604758
:10A70000B96102000C4A002311002C32083110B547
:10A710004360838183738260036143618361C38388
:10A72000016004000830FEF70BFA044B1A68002A97
:10A7300000D11C60200010BD68850200D4240020D8
:10A74000F7B50E00012504690192002C37D023884B
:10A7500032889A4201D0002B26D1638872889A42AF
:10A7600001D0002B20D1FEF75FF90123002806D08D
:10A77000A288BF331340C03B5A425341DBB2019A17
:10A78000934210D1A7883BB2002B0CDB1022310082
:10A79000A01809F06BFB40231F4207D1FEF744F9D4
:10A7A000002803D006E00025646ACEE720000BF005
:10A7B0000CFDF9E721000348FEF7EAFAF4E7280068
:10A7C000FEBDC046CB61020008B4024B9C4608386F
:10A7D00008BC604755630200F0B587B001930EAB2B
:10A7E0001B88060003930D9B0D000093019B0292B2
:10A7F0000C9F002B3DD0002F02D1009BDB0738D5EA
:10A8000028200DF007FE040010300AF0F4FD6B461E
:10A810001B891820258063800DF0FCFD049707003C
:10A820000500009B10220593019B002108C73800FA
:10A8300009F0A6FB082204A9380009F017FB0E4B0B
:10A8400002226B6100230399E36023626362336831
:10A850000A43A560A2805B68210030009847002869
:10A8600008D020000AF0EEFC20000DF0C8FD0348DF
:10A8700000E0034807B0F0BD8163020016FCFFFF53
:10A8800017FCFFFFF0B50400160000258380164A70
:10A89000164B85710260218146810573186889B065
:10A8A0008C46A8421DD0124A05950492C0220292FD
:10A8B0006A4604AB82CB82C2614623002A00FFF7BE
:10A8C0008BFF0B4A094B0692C022186802926A4617
:10A8D00006AB079582CB82C223002A003100FFF726
:10A8E0007BFF200009B0F0BDAC850200D42400201D
:10A8F000AB64020030B5002403730123034D84715F
:10A900000560818082734373846030BDA884020037
:10A9100070B583790400DB0702D580680DF06FFD08
:10A92000A3799B0702D5A0680DF069FDA3795B07A9
:10A9300007D5A0230021144ADB00D150A0680DF0F8
:10A940005EFDA3791B0708D5A568002D05D028005A
:10A950000CF050FA28000DF052FDA379DB0605D566
:10A96000A068002802D00368DB6898476023A279BA
:10A970001A4205D0A068002802D003685B68984797
:10A980000023A360A37170BD00700040F7B50126DD
:10A99000037B040033422BD0612385791D4017D1FE
:10A9A000FFF7B6FF18200DF035FD0E230700E35624
:10A9B00018220093637B2900019309F0E1FA019AC0
:10A9C000009938000DF0A8FBA379A7603343A37169
:10A9D0006023A2791A4203D0A0680DF055FA08E06E
:10A9E000A268536950681B681840431E984100E0F4
:10A9F0000048FEBD16FCFFFF10B5012483794173AA
:10AA00001C4004D080680DF018FC002007E0602294
:10AA1000134203D080680DF03EFAF6E7004810BDFF
:10AA200016FCFFFF70B5040000250D4B0E00083327
:10AA3000858085710360210018300BF0EEFD200049
:10AA4000210020300BF014FE064BA680A571E571A5
:10AA50002572E5602561656120001C6070BDC046FF
:10AA6000BC850200E82400208379DB0702D5C160A1
:10AA7000002000E00048704716FCFFFF8379DB07E9
:10AA800001D5C06800E001487047C04616FCFFFFD2
:10AA900070B545690400002D21D0037A032B20D81E
:10AAA000FFF7ECFFA8622C200DF0B4FC2C22002153
:10AAB000050009F065FA0023626953622369002BDF
:10AAC00001D1226105E0596A002901D00B00FAE7A3
:10AAD0005A62237A656101332372002002E0024842
:10AAE00000E0024870BDC04617FCFFFF13FCFFFFEB
:10AAF000154B70B55A68154D002A03D000225A60D4
:10AB00000132AA601B69114E002B1CD000210E4B94
:10AB10000F4C19618023DB00F358012B0ED1A923C0
:10AB2000DB00F15820684942FFF79EFF2068FFF7DD
:10AB3000AFFF23685A69074BF25002E02068FFF725
:10AB400093FF0123AB6070BDFC100040001000407B
:10AB5000E82400200405000070B505000C000AF090
:10AB600053FA002804D1034B034AEC71D45000E09F
:10AB7000024870BD240500000010004016FCFFFFD5
:10AB8000F8B5837905000020DB076FD40AF03CFAA2
:10AB9000002868D16E69002E08D12C300DF03AFCE7
:10ABA00004002C22310009F0EBF96C616B69002B79
:10ABB0005BD000222E4B01215A608022D205116009
:10ABC0005A68002AFCD006222A4B2B4C9A562B4B53
:10ABD0000026E2500722043BE2500833E650284AA0
:10ABE000284B2800E250E979FFF7B6FF012208213F
:10ABF000254B2648E6500433E250254B254FE150C3
:10AC00000433E05002232448235024482750244F83
:10AC1000043827501827234827506F6922482750A7
:10AC2000C1208000215021498538FF380B500B602E
:10AC30008021890063587138FF38034363501C4BEF
:10AC40005E6062605A68002AFCD000240126184B1E
:10AC500028001C61084B9E60FDF772FFAB79200055
:10AC60003343AB7102E0134800E01348F8BDC0461F
:10AC7000FC000040F1930200001000400C050000B1
:10AC8000746962751C0500002C0500002000040298
:10AC900014050000FFFF0000340500003C05000023
:10ACA00021100100540500000405000000E100E04F
:10ACB000FC10004016FCFFFF13FCFFFF03000069BF
:10ACC000002809D00221054AD167426A1A611A7A1E
:10ACD000013A1A72024B19607047C04604E100E065
:10ACE00000E100E070B504000D000AF08DF90028C5
:10ACF00045D1002D45D02B78232B42D802220121AB
:10AD0000214BDA67214B224A586111615A69204967
:10AD1000002AFBD01F4A1D488D50002545600120A8
:10AD2000086011005A68002AFCD00020174A106100
:10AD3000174A013090601869154A0028FBD06069F5
:10AD40005050002011494861012111615A69002ABF
:10AD5000FCD000210D4A51600D4A013151605A6802
:10AD6000002AFCD000200122C021084B49001861B4
:10AD7000074B9A60084B92185A501A6002E0074835
:10AD800000E0074870BDC04604E100E0FC10004050
:10AD9000001000400405000000E100E016FCFFFF89
:10ADA00017FCFFFF30B505008DB0002911D0232A14
:10ADB0000FD801ACD31C002023700123A07002A87F
:10ADC0006370E37009F052F821002868FFF78AFFEA
:10ADD00000E001480DB030BD17FCFFFF10B50029A1
:10ADE00003DB024B19600DF08EF810BDEC2400203F
:10ADF00070B504001E0004AB1D7805F0C9F82000F2
:10AE00000E4B40302360FEF7A7F9230001364C3388
:10AE1000013522001E701D730023E1214E32A36410
:10AE20006365138053809381D381013B2000636469
:10AE30004902FFF7D3FF200070BDC04658840200CE
:10AE4000F7B580277F053D697C690822113C6C437A
:10AE500006002100684609F009F8104B009A9A4252
:10AE600019D00093002301937969300013396943A5
:10AE70000BF013FC019A009930000BF026FC210026
:10AE800030000BF00AFC7969AB08133969432200E2
:10AE900030000BF00CFC0198FEBDC046FECA00005D
:10AEA000F0B50D00ABB00D9200213022060012A8C3
:10AEB0000B9309F065F8280009F036FA431C0C934F
:10AEC000102B00DDB6E00B9B202B00D9B2E029004F
:10AED00030000BF027FC071E29D129000C9A12A87C
:10AEE00008F0C4FF0D990B9A16A808F0BFFF802345
:10AEF0005B051F695A693000113A7A435D690D920A
:10AF0000FFF79EFF0D9B30220833002104001EA88E
:10AF10000F9309F035F829001339794330000BF00D
:10AF2000BCFB0F9B0B9300230C930E9335E010306A
:10AF30000B9A0D9908F072FF040038000DF05FFACB
:10AF4000002C7AD0C9E70B9930221EA808F08EFF9A
:10AF500012A91EA809F0A4F9002822D1384930000E
:10AF60002200109111940BF0B0FB6A460B9B0993E1
:10AF700015AB23CB23C223CB23C223CB23C2300068
:10AF8000149B1299139A0BF0AEFB01230E930B9BAB
:10AF900030330B930C9B01330C930C9BA342D2DBFD
:10AFA00010E06A460B9B099321AB23CB23C223CB32
:10AFB00023C223CB23C230001E991F9A209B0BF083
:10AFC00092FBE4E7E5433021ED1725404D430F9B0D
:10AFD0005D190E9B002B1BD1B81E05F095FD844218
:10AFE0002AD01749013430002200109111940BF03F
:10AFF0006CFB6A46099515AB23CB23C223CB23C236
:10B0000023CB23C230001299139A149B0BF06BFBD5
:10B010000D9930000BF041FB80235B0559690C232F
:10B0200063431339023379430D9A30000BF03FFB31
:10B03000002402E0034C00E0034C20002BB0F0BDE4
:10B04000FECA000017FCFFFF13FCFFFF8023F0B5D2
:10B050005B051A6995B002925A6905910299113AF5
:10B0600051435C69029B133C050003915C43FFF76D
:10B07000E7FE061E4ED00027039B30220833002136
:10B08000083408A8019308F07BFF210028000BF08A
:10B0900004FB0497B74220DA0199302208A808F08F
:10B0A000E5FE059908A809F0FBF8002809D11B491D
:10B0B000721E2800069107920BF007FB01230493F0
:10B0C00006E022000C23019928000BF0F0FA30343E
:10B0D000019B013730330193DCE7049B002B05D142
:10B0E0000E49320028000BF0F0FA13E00399280013
:10B0F0000BF0D3FA80235B0559690C23029A1339AC
:10B100004A437343110028000233039A0BF0CFFA2D
:10B11000002000E0024815B0F0BDC046FECA0000A5
:10B120000CFCFFFF70B50400A280FA220023080087
:10B130000C49920008312160A3716061E260A36054
:10B14000638209490BF0EEFA051E09D001002000C8
:10B1500010310222123008F089FE28000DF04FF95C
:10B16000200070BDD48502006D92020030B502252A
:10B17000837987B004002B4204D1FDF7E1FCA37969
:10B180002B43A37120000BF011FB00282DD06B4640
:10B19000DD1C28000BF001FB2B78002B03D001A84D
:10B1A0000BF0F9FA0FE00122114B1A60114A5368B3
:10B1B000002BFCD000220F4B5A600F4B01321B6852
:10B1C00001930B4B5A600322019BD9170A40D318F5
:10B1D0009B102382FDF742FFE368A1881818012322
:10B1E000A0601A0002A80AF011F9002007B030BDD3
:10B1F00000C00040FCC0004008C50040022802D149
:10B200000122014B1A7070476729002070B5064C67
:10B2100005002378002B04D1044801F0E5FF012349
:10B220002370280070BDC04668290020FDB10100D0
:10B2300070B50C0009F0E8FE002811D0164B002272
:10B24000A50A1C001A7028000BF0C4FA002803D0CD
:10B250000A200CF0EBFFF6E72378002BFCD019E076
:10B26000022180250D4B0E4AED009950802059593E
:10B27000C0000029FAD0A121084DC9006C5019580E
:10B280000029FCD00020054988508021C9005A5867
:10B29000002AFCD070BDC0466729002000E00140B4
:10B2A00004050000F8B50C0015001E0009F0ACFE06
:10B2B000002812D0194B00221F001A7032002900FA
:10B2C00020000BF085FA002803D00A200CF0AEFF16
:10B2D000F4E73B78002BFCD01EE00121104A114B13
:10B2E000944699508021C9005A58002AFCD08027E2
:10B2F0000022FF008021C900964207DD91006858B6
:10B300006050D9590029FCD00132F3E70022604691
:10B310001A505A58002AFCD0F8BDC04667290020B0
:10B320000405000000E0014008B4024B9C4644388C
:10B3300008BC6047D9670200F8B5FA230189DB0031
:10B340000400594332480BF0FAFCFA21890005F059
:10B35000DBFB304F2081A17A38000BF0F0FC23009A
:10B360002600250022894C33A072A0361A808C3525
:10B37000317800232A2228680AF072FE002801D0C2
:10B38000254844E031781F235B2228680AF068FED4
:10B390000028F5D1317820235C2228680AF060FE6D
:10B3A0000028EDD1317801232C2228680AF058FEBC
:10B3B0000028E5D1317801232D2228680AF050FEBB
:10B3C0000028DDD1317801232E2228680AF048FEBA
:10B3D0000028D5D1A17A38000BF0ACFC3178C3B28B
:10B3E0000E2228680AF03CFE0028C9D1FA232189E0
:10B3F0009B00594306480BF09DFC01231843C3B240
:10B4000031782A2228680AF02BFE0028B8D1F8BD2E
:10B41000AC8602002C8602000EFCFFFF08B4024B33
:10B420009C46443808BC604739B30100074B10B54F
:10B430001A00040008323C330260436444300AF0CE
:10B44000FEF920000AF02FF9200010BD4C86020002
:10B4500008B4024B9C46443808BC60472DB4010038
:10B4600008B4024B9C46443808BC6047E3670200BE
:10B47000F0B5042583798BB004002B4204D1FDF78D
:10B480005FFBA3792B43A37120009030FFF77EFA76
:10B49000061E66D12300A033197820000C2307ADC7
:10B4A00000938C302B0001220068FFF721F8002860
:10B4B00001D02E4E56E00A2304AA9B182A785A700F
:10B4C0006A781A700022995EAA785A70EA781A701F
:10B4D00000201A5E0392287958706879187000204D
:10B4E0001F5EA8795870E87918700022985E049061
:10B4F000287A5870687A18700022985E0590A87AA9
:10B500005870E87A18701F2000229B5E039A9C46B0
:10B51000A37A52425A435943D5177B430540AA1890
:10B520005211A261DF17CA1702403840C3185B11DD
:10B53000236264235118059A5B4253434911A36760
:10B540006423E1616146049A20005A434B43E26759
:10B55000221DD3670AF017F9200044300AF076F96B
:10B5600000E0002630000BB0F0BDC0460EFCFFFF2F
:10B5700008B4024B9C46443808BC604771B40100D3
:10B58000F7B51E00040008AB1B881500019309AB3A
:10B5900000911A8831000AAB1F88FDF797FF200041
:10B5A0003A0031004430FEF7EBF9144B20001A004A
:10B5B0003C336364230008322260009A8C331A60A3
:10B5C000AB8890308380AB796A4683710C4B92884C
:10B5D0000360AB68032183602B7B03736B7B437336
:10B5E0000E23EB5683732300A0331A80FFF704FA6F
:10B5F0002000FFF7A1FE2000FEBDC0464C860200E1
:10B60000A8840200F8B5FA260189B6000400714347
:10B6100026480BF094FB310005F076FA244F208188
:10B62000A17A38000BF08BFB2500A07258352978E1
:10B6300000232A22606C0AF013FD002801D01D4867
:10B6400032E0297810232B22606C0AF009FD0028D3
:10B65000F5D1297801232D22606C0AF001FD002824
:10B66000EDD1297801232E22606C0AF0F9FC002824
:10B67000E5D1A17A38000BF05DFB2978C3B20E2228
:10B68000606C0AF0EDFC0028D9D12189074871438C
:10B690000BF050FB01231843C3B229782A22606CB7
:10B6A0000AF0DEFC0028CAD1F8BDC0464887020077
:10B6B000F48602000EFCFFFF10B50400034B0833B4
:10B6C000036009F0F0FF200010BDC046148702009F
:10B6D0007FB50425837904002B4204D1FDF730FAAD
:10B6E000A3792B43A37120004830FFF74FF9051EC3
:10B6F00024D1230058331978062302AE0093012287
:10B700003300606CFEF7F4FE002801D00D4D16E00A
:10B71000042302200022A17AF3563056B2564B433E
:10B72000C0004A4340424143DB0023622368D20009
:10B73000A161E2619B6A2000984700E00025280093
:10B7400004B070BD0EFCFFFFF8B50400150006AA9A
:10B75000168807AA0F0012881900FDF7B7FE0F4BD5
:10B760006764083323602300AA8848339A80AA7943
:10B7700020009A710A4AA264AA6822652A7B1A7379
:10B780006A7B5A730E22AA569A730023A371230070
:10B7900058331E80FFF736FF2000F8BD14870200E3
:10B7A000A884020010B50400034B083303600AF0BC
:10B7B00046F8200010BDC0465087020070B508252D
:10B7C000837986B004002B4204D1FDF7B9F9A3793F
:10B7D0002B43A37120004C30FFF7D8F8002830D05D
:10B7E00023005C331978062304AE00930122330052
:10B7F000A06CFEF77DFE051E01D0134821E00E234C
:10B8000032786B445A70727820001A700022995E68
:10B8100064224A43A263B2785A70F2781A70002206
:10B82000995E642252425143616331795970717952
:10B83000197000215B5E5A432368E2631B6A9847D4
:10B84000280006B070BDC0460EFCFFFFF0B5070033
:10B850005C3787B00400397800231022806C0AF02E
:10B86000FFFB0326002807D01F483AE02B7833421D
:10B8700011D06420FDF700FA0F2502ABED1801236B
:10B88000397808220093A06C2B00FEF731FE164B8E
:10B890009842EBD1E8E7FA252189144EAD006943BF
:10B8A00030000BF04CFA290005F02EF92081397890
:10B8B000A0231122A06C0AF0D3FB0028D4D1A36CE2
:10B8C00021890393694330003F780BF033FA012359
:10B8D0001843C3B21022390003980AF0C1FB0028B4
:10B8E000C2D107B0F0BDC0460EFCFFFFD4870200F6
:10B8F000F8B50400150006AA168807AA0F001288DA
:10B900001900FEF73DF80D4BA764083323602300B0
:10B91000AA884C339A80AA7920009A71084AE26476
:10B92000AA6862652A7B1A736A7B5A730E22AA562A
:10B930001E829A73FFF78AFF2000F8BD508702002D
:10B94000A8840200F7B5FA250189204FAD00040054
:10B95000694338000BF0F3F9290005F0D5F8A17A16
:10B9600020811B480BF0EBF92600636CA07200935A
:10B970002189583633786943380001930BF0DAF99E
:10B9800007231843C3B22022019900980AF068FBEC
:10B99000002801D00F4818E0317810232222606C73
:10B9A0000AF05EFB0028F5D1A17A0948656C37786A
:10B9B0000BF0C0F980235B421843C3B22322390045
:10B9C00028000AF04DFB0028E4D1FEBD808802006B
:10B9D000588802000EFCFFFF10B50400034B08332B
:10B9E000036009F060FE200010BDC046DC87020045
:10B9F000F0B50425837985B004002B4204D1FDF70E
:10BA00009FF8A3792B43A37120004830FEF7BEFFB7
:10BA1000002832D0230058331978062302AE009351
:10BA2000A8223300606CFEF763FD051E01D01448A8
:10BA300023E01F200023F25ED31703409B1802224D
:10BA4000B15E5B11CA17024052180427F15F3380C0
:10BA5000CF17384040184111A07A5B42434352113E
:10BA6000728052424243B1804143E3612368A26144
:10BA700021629B6A20009847280005B0F0BDC046AF
:10BA80000EFCFFFFF8B50400150006AA168807AAE9
:10BA90000F0012881900FDF719FD0F4B676408337A
:10BAA00023602300AA8848339A80AA7920009A71DB
:10BAB0000A4AA264AA6822652A7B1A736A7B5A73AF
:10BAC0000E22AA569A730023A371230058331E80B6
:10BAD000FFF738FF2000F8BDDC870200A8840200D1
:10BAE000F7B5FA2504000189134EAD006943300013
:10BAF0000BF025F9290005F007F82700A36C208139
:10BB000000935C373B7881B26943300001930BF0BE
:10BB100011F96022C3B2019900980AF0A1FA002835
:10BB200001D0064807E0397801236222A06C0AF0B0
:10BB300097FA0028F5D1FEBDD48802000EFCFFFF65
:10BB400010B50400034B0833036009F078FE2000B1
:10BB500010BDC046888802007FB50825837904009F
:10BB60002B4204D1FCF7ECFFA3792B43A3712000F7
:10BB70004C30FEF70BFF002822D023005C331978ED
:10BB8000062302AE0093E8223300A06CFEF7B0FC5F
:10BB9000051E01D00B4813E00223F25E96235B42A0
:10BBA0005A4362630021725E20005343A36304235F
:10BBB000F25E96235343E36323681B6A9847280089
:10BBC00004B070BD0EFCFFFFF8B50400150006AA16
:10BBD000168807AA0F0012881900FDF7D1FE0D4B39
:10BBE000A764083323602300AA884C339A80AA797B
:10BBF00020009A71084AE264AA6862652A7B1A7377
:10BC00006A7B5A730E22AA561E829A73FFF768FF48
:10BC10002000F8BD88880200A884020010B5040046
:10BC2000054B083303601C3009F056FB2000183028
:10BC300009F052FB200010BDDC880200FF23F0B5A4
:10BC40002B4C8DB0237000230500694600880093BB
:10BC500003F0BAF9002802D16B469B782370254E79
:10BC60003368DB68002B06D1002328881A001900EE
:10BC70000AF027FE3AE02378032BF5D81E4901A8E5
:10BC8000FDF730FA336801A9DE6804A809F079FBF2
:10BC900004A930000AF073FD060004A809F01CFB9B
:10BCA000371E1ED031002022103104A808F0DEF823
:10BCB00030000CF0A4FB217804ABC900591808220D
:10BCC00002A808F0D3F828880123082202A90AF064
:10BCD000F8FD0127002804D12888084A0C210AF021
:10BCE000EEFD01A809F0F8FA002FBDD00DB0F0BDAF
:10BCF00080200020F0240020F8920200FFFF0000C6
:10BD0000F0B5837991B004005B071BD5FDF7A6F968
:10BD100000232269801A9941994203D1F423FF3309
:10BD200098420FD9A068002808D0364B1D8801F032
:10BD300055F9036815221B6A290098470422A37944
:10BD40009343A371A3799B075AD52F4D2B68DB68CA
:10BD5000002B51D02D4B1A780193032A4CD8294B34
:10BD60002B491B8804A80093FDF7BCF92B6804A994
:10BD7000DE6808A809F005FB08A930000AF0FFFCFE
:10BD8000070008A809F0A8FA02AB9E1D082332009C
:10BD9000338006A9073B00980AF095FD002F08D0D4
:10BDA00039002022103108A808F060F838000CF0A3
:10BDB00026FB019B32881B7806A9DE0008AB9E1982
:10BDC000300008F02BF8002813D0082206A9300014
:10BDD00008F04CF82B6804A9DD6805A809F0D1FA31
:10BDE000202308AA05A928000AF0CFFC05A809F01D
:10BDF00073FA04A809F070FA0222A3799343A3719D
:10BE000011B0F0BD10290020F02400208020002077
:10BE1000F8920200F7B5040000250192C77FAF42F7
:10BE200054D966197078884202D1152927D804E0C0
:10BE3000605D2D180135EDB2F1E701228A402648F8
:10BE400002421CD0D91901201F2943DCE1193718FF
:10BE5000B94210D80021C8B2834205D9019A70189E
:10BE6000575C01318770F6E7625D9A186255E27F90
:10BE70009B18E37728E00878C8540139E8E7655D46
:10BE8000013DEDB2AB4209D10021C8B283421BD9BA
:10BE9000019A7018545C01318470F6E7FF187F1B1B
:10BEA00001201F2F16DC0227A81C7F4236187F1B9B
:10BEB000E07F2218964203D23078F0550136F7E73A
:10BEC000451B023DE57701E0002003E0019A2000D8
:10BED0000AF043FDFEBDC046FC002000F0B585B071
:10BEE00001930AAB1E880BAB1B78451C02930EAB6B
:10BEF0001B78040003930B78170003704B8A102201
:10BF000043820131280007F0B1FF6B469B882683EE
:10BF100063836B461B7B002623776B4601221B7ACB
:10BF20006761E683EB77A31CDA770C9B0C256362D1
:10BF3000230020000D9A28331A705E709E702A002C
:10BF400031002C3008F01CF82000074BE663A36397
:10BF50002A003100403008F013F82000034B26651A
:10BF6000E36405B0F0BDC046DD680200CF680200A2
:10BF700070B50D0001F032F804000368002D02D105
:10BF80005B69984708E09B689847854204D223681C
:10BF900020009B6898470500FA208000684302490A
:10BFA00004F0B2FDE08070BD71020000F0B5070042
:10BFB0001600A1B002C704006B4918A81D000AF0C2
:10BFC000FEFC331E03D0300008F0AEF983B201222C
:10BFD00004920022039202920232019200933200F4
:10BFE00018A93800FFF77AFF23006049583318A8D2
:10BFF00007930AF0E4FC2B1E03D0280008F094F904
:10C0000083B2012204920022039202920232019230
:10C0100000932A0018A90798FFF760FF23005449EE
:10C02000AC3318A808930AF0CAFC269B002B03D057
:10C03000180008F079F983B20122049200220392D9
:10C040000292023201920093269A18A90898FFF7EB
:10C0500045FF631CFF33474918A809930AF0AFFC5A
:10C06000279B002B03D0180008F05EF983B2012251
:10C0700004920022601C0392029202320192009309
:10C08000279A18A9FF30FFF729FF23005533FF3304
:10C09000394918A809930AF092FC289B002B03D079
:10C0A000180008F041F983B20122049200220392A1
:10C0B0000292023201920093289A18A90998FFF778
:10C0C0000DFF2300A933FF332C4918A80A930AF067
:10C0D00076FC299B002B03D0180008F025F983B2C9
:10C0E00001220492002218AD0392029202320192C0
:10C0F0000093299A29000A98FFF7F0FE204B1B783D
:10C100000B93002B2DD1079B12971393089B0DAF18
:10C110001493631CFF331593099B1A4916930A9BCA
:10C12000380017930AF04BFC1D2149203B78102260
:10C130002B707B8A12AE6B8206ABC918C01807F051
:10C1400095FE06232B756B469B8D2068AB83AE61F5
:10C1500000F054FF036829001B6898470122084B30
:10C160001A70200021B0F0BD292A0000242A000006
:10C17000252A0000272A0000262A0000282A00007D
:10C18000692900200A18000070B5002504000B4B37
:10C190008580083385710360C1601830FCF7DCFFCF
:10C1A00020001C30FCF7D8FF0123621CD377044A1F
:10C1B000A560656120001460A37170BDDC88020079
:10C1C000F0240020FA2130B585B0050001230222B9
:10C1D0008900684609F01AF9074C2068002809D040
:10C1E0000AF026FC2988054B2268198002219379E0
:10C1F0000B43937105B030BDF024002010290020BE
:10C2000010B50C0007290BD8806800F0E7FE054B3D
:10C21000195703685B6C9847002802D0024800E079
:10C22000024810BDF193020016FCFFFF17FCFFFF50
:10C23000F0B5A24C0D00A544040007939AAB1B78FF
:10C240009F4909A804930692FCF74CFF200029009F
:10C250001C3009F09EF8C020800000F0BBFF0820D1
:10C260000CF0D8F80700002100F080FE15AD002189
:10C27000A7600C220EA807F083FE2B000EAA43CA6B
:10C2800043C3904B2900EB60002338002B610AF078
:10C29000B7FDA06800F0A2FE0C2200210590280046
:10C2A00007F06EFE14200CF0B5F8874B2A001593AA
:10C2B0000300C2CAC2C3854B059EC3600023A436D7
:10C2C00003613368002B00D003613060A06800F088
:10C2D00095FE0C2200210600280007F051FE1420D4
:10C2E0000CF098F87A4B1593030086CD86C3794BF2
:10C2F000C36000230361336B002B00D00361306304
:10C30000A06800F06BFE15AD0C220021060028008D
:10C3100007F036FE14200CF07DF86F4B983615931D
:10C32000030086CD86C36D4BC36000230361336871
:10C33000002B00D00361012504AB1B7C04AA2B4316
:10C34000306008A9280013740AF0BFFAA06800F052
:10C3500065FE036862495B6A9847A06800F05EFE6C
:10C36000036860499B699847A06800F057FE002366
:10C3700002680093166804992A00B047049B002BBA
:10C380000AD020000AF05DFB032805DDA06800F05C
:10C3900045FE0368DB6898470EA80AF0D5FA2F20FF
:10C3A00004ABC0180AF0D0FA362004ABC0180AF06B
:10C3B000CBFA3D20042504ABC0180AF0C5FA0EAB39
:10C3C0000A93A06804AB5D7700F028FE03680AA911
:10C3D0001B699847A06800F001FE03680AA95B6D1D
:10C3E0009847A06800F0FAFD03680021DB6D9847CC
:10C3F000A06800F0F3FD036802219B6D98470021BF
:10C400002000FFF7FDFE18200CF004F8A16800F0F2
:10C410004DFA354B354A1B68A1680393344B15A878
:10C420001B680CAE0293334B00271B680193069BDD
:10C430001B685B190093304B12681B68FFF7B6FD51
:10C4400030200BF0E7FF079AA16800F0EDFAA06832
:10C4500000F0C4FD036831009B6A98470823A06878
:10C460003380DB187380B78000F0B8FD03683100BB
:10C47000DB6A98472900A0680AF0ADFA099A0921F9
:10C480009378A06852190AF0B9FAA06800F0A6FDE6
:10C4900032210771A068FFF76BFD04AB1B7FBB4225
:10C4A00004D0A06800F09AFD0AF07FFA09A808F00D
:10C4B00013FF95239B009D44F0BDC046ACFDFFFFDC
:10C4C00004930200EB680200C5C10100F968020094
:10C4D0003DBC0100076902003569020015690200D0
:10C4E000FDC4010031C50100F8240020F42400201F
:10C4F0000C200020FC2400200820002013B5062278
:10C500006846FCF7FFFD094B1C68002C0AD0694601
:10C5100001A808F036FF200001A90AF0B3FA01A82B
:10C5200008F0DAFE684608F0D7FE13BDF0240020BC
:10C53000002373B501AE0C0031000500019302F039
:10C5400043FD002802D1B278064B1A70064B1868DA
:10C55000002806D061426141044BC9B21D800AF037
:10C5600099FA73BD80200020F024002010290020BB
:10C5700030B5284CA9B06A220D000DA8210007F0A3
:10C5800075FC0DA903A8FCF71BFE03A906A808F07B
:10C590006DFF01230193013BFF3B00930533FF3304
:10C5A000642206A92800FDF74BFF06A808F051FFFA
:10C5B000210019226A3106A807F058FC0522002440
:10C5C000110006AB04A808F078FF04A905A808F03C
:10C5D0004DFF019400942300220005A92800FDF7D7
:10C5E00099FE05A808F035FF21002800FDF756FF49
:10C5F00005340520FCF740FBFF2CF5D1FA20800024
:10C60000FCF73AFB04A808F024FF03A808F021FF78
:10C6100029B030BD75920200F0B59B4B95B00592E4
:10C620001A68082304000291D16C06A80B43D36456
:10C630009649FCF757FD964907A8FCF753FD2200E1
:10C6400000250DAF38001C3206A908F0B1FE07AA7C
:10C65000390008A808F0ACFE380008F03DFE631C65
:10C66000DD77A06800F0BAFC03680BAE5B69984701
:10C6700038000AF069F92B2004ABC0180AF064F9FD
:10C68000322004ABC0180AF05FF9392004ABC0189F
:10C690000AF05AF90423A06873710B97357100F002
:10C6A0009DFC036831005B6D9847A06800F096FC24
:10C6B000036829009B6D9847A06800F08FFC070075
:10C6C00006000A371F222900380007F059FCFD77C1
:10C6D00030000AF061F90621A0680AF07CF9089A96
:10C6E00009219378A06804320AF088F9A06800F064
:10C6F00075FCC8210571A068FFF73AFCA06800F03E
:10C700006DFC0581A06800F069FC0AF04EF9029802
:10C71000FDF792FD2000FCF713FA02992000FFF7C5
:10C7200027FF029920000AF0C8F90423FF27039588
:10C7300004936369DB0735D5564909A8FCF7BCFDAE
:10C7400009A90AA808F092FE00220AA91300019282
:10C7500000920298FDF7DEFD0AA808F07AFE039B1E
:10C76000002B01D1043F00E00437282F03DD002314
:10C77000FE2F06DC06E0029809F065FC0123002F7D
:10C7800000DC0393059809F046F8002806D0012341
:10C7900062699A431300049A1343636109A808F07D
:10C7A00058FE00256369049A13422AD0FF2102989B
:10C7B000FDF774FE0025A36902229B5E9D421BDAF1
:10C7C000200029B2183008F009FE00230100029869
:10C7D0001A007430FCF7C2FDC8208000FCF74CFA48
:10C7E000029809F030FCC820FCF746FA022263697F
:10C7F000134201D10135DEE7FA208000FCF73CFA54
:10C80000002502226369134233D008261E401AD045
:10C81000214909A8FCF750FD09A90AA808F026FE3D
:10C8200000220AA90192009213000298FDF772FDFE
:10C830000AA808F00EFE1948FCF71EFA09A808F02D
:10C8400008FE174D15E0174909A8FCF735FD09A9A1
:10C850000AA808F00BFE330032000AA901960096E0
:10C860000298FDF757FD0AA808F0F3FD09A808F0A3
:10C87000F0FD6420FCF700FA0B4B01359D4200DC13
:10C8800057E708F0D3FB54E750240020129302002E
:10C89000229302002493020069930200983A000058
:10C8A0008C0A0000A69302008B0A0000F0B5050078
:10C8B0000024574BA9B0083303600391A9602100FD
:10C8C0000BAB1A1901345170102CFAD101225148C6
:10C8D0001A701A1B013C015D5174002CF9D19A7B2E
:10C8E000597B12020A43290045270C310291252168
:10C8F0001B7813AE337002ABFF18C9187282380070
:10C90000102207F0B3FA029B02AA7361012333835A
:10C9100033770933FB771DAB1C706D239B181C709C
:10C920006E2321009B1874830C22F4831EA81C70B4
:10C93000746207F025FB384B0C22B3632100F463CB
:10C9400023A807F01DFB354B0322F364462302A9FD
:10C950005B18DA77220034652C73059606AF3B1915
:10C9600001345A70102CFAD101232D493B703B1B26
:10C97000013C0A5D5A74002CF9D111212520BB7BA2
:10C980007A7B1B020BAE13433A78738202ABC91851
:10C990003270C018102207F069FA0123039833752A
:10C9A00005ABB361B48300F029FB036831001B6859
:10C9B000984713ABDB8BA868AB8200F01FFB0368C2
:10C9C0000094A98A029ADE680123B047A86800F0A3
:10C9D00015FB029014200BF01DFD06000C22210017
:10C9E00007F0CEFA300001233461082220C039005C
:10C9F0000793069407F03AFA0A4BF360029B9B698F
:10CA0000002B00D033612800029B9E6129B0F0BD4D
:10CA1000F488020009940200DD680200CF68020079
:10CA2000F99302001D6B0200F0B500260400764B5E
:10CA3000DDB0083303608160C26086808671320099
:10CA4000724947A80AF00AF9230014330893122305
:10CA5000012501930E3B04950093089A330047A9E2
:10CA6000039602961DA8FFF739FA3200684947A8D5
:10CA70000AF0F4F80C2322000193083B15AF1032A2
:10CA80000495009347A933000396029632A8FFF756
:10CA900025FA32005F4938000AF0E0F823001C3321
:10CAA000099308230193043B390004950093099AE4
:10CAB00033000396029647A8FFF710FA3200564952
:10CAC00038000AF0CBF854200BF0A4FC23001833F4
:10CAD0000793122301930E3B390004950093079AA4
:10CAE0003300039602960690FFF7F8F9069B08229A
:10CAF000A3624A4B0AA90A93069B0B961800DC62B4
:10CB0000303007F0B3F9069A454B26829363130041
:10CB1000668229331D7023690422E361099907980D
:10CB200007F0A4F904220799089807F09FF96622F4
:10CB3000032304A95218D377BA225218D377872235
:10CB400052005218D377069A36490232D3771DAB7A
:10CB50000C9332AB0D9347AB0E93069B3200A68528
:10CB600010A80F930AF07AF830223121452004AB47
:10CB70009B181B7812323B7004AB9B181B88323A0F
:10CB80007B8204ABC918C01807F070F904230CAD00
:10CB9000A0683B75BD61BE8300F030FA03683900C0
:10CBA0001B689847822204AB9B181B88543223844D
:10CBB00004AB9B181B885432A38404AB9B181B88BE
:10CBC000A068638400F01AFA070014200BF022FC1E
:10CBD00005000C22310007F0D3F92800124B2E611A
:10CBE000082210C010A91093119607F03FF90F4BBF
:10CBF000EB60BB69B34200D02B61BD612000FBF745
:10CC00009FFF20005DB0F0BD008902002994020062
:10CC10005994020049940200199402002F6C0200FA
:10CC20009B6B02003994020099CC0100C56B020095
:10CC3000F0B504000E00150085B000930CAB1B8806
:10CC40001030019308F0D7FB2680658018200BF088
:10CC5000E1FB070002AE33003D000AAA03CA03C38A
:10CC6000009B102208C50021280007F089F9310037
:10CC70000822280007F0FAF8064B02227B61200008
:10CC800000230199A7600A43E360A28023626362E4
:10CC900005B0F0BDEF6B0200F0B50B898DB00593C8
:10CCA000CB68050004934B88828C9A420ED1049C79
:10CCB000059B049A1B1BD318032B39DD628821883E
:10CCC000012308A808F0A2FB0434F1E7428C9A4241
:10CCD0002ED1049C059B049A1B1BD318032B27DD24
:10CCE0002388282006936388EF680793114B0893E5
:10CCF000002309930BF08EFBC0236A4606000293C3
:10CD000008AB03CB03C22B000699079A3000FFF74C
:10CD10008FFF3B6831005B6838009847002805D0DA
:10CD2000300008F08FFA30000BF069FB0434D1E7D3
:10CD30000DB0F0BDAF6C020070B5040090B080681B
:10CD400009F0B0FF0223010019401AD1A38D002B76
:10CD500017D00D4B6A4604931023E568A185059111
:10CD6000029304AB41CB41C20A00230006A8FFF79F
:10CD70005FFF2B6806A99B682800984706A808F063
:10CD800061FA10B070BDC046AF6C0200002815D02B
:10CD9000006041608260C360046145618661C76173
:10CDA000444604624C464462544684625C46C46213
:10CDB000644604636E46466374468463002A06D064
:10CDC000C46B043C043A25681560B442F9D18C6BFD
:10CDD000A6464E6BB546002B06D0CC6B043C043BFC
:10CDE0001D682560B442F9D10C6BA446CC6AA346F9
:10CDF0008C6AA2464C6AA1460C6AA046CF698E692D
:10CE00004D690C69CB688A6808684968704700609A
:10CE100041608260C360046145618661C7614446C8
:10CE200004624C464462544684625C46C462644672
:10CE300004636E46466374468463C46B043C0439E1
:10CE400025680D60B442F9D1C769866945690469EE
:10CE50007047006041608260C36004614561866123
:10CE6000C761444604624C464462544684625C4650
:10CE7000C462644604636C46446374468463046914
:10CE80007047846BA646446BA546046BA446C46AEF
:10CE9000A346846AA246446AA146046AA046C769BA
:10CEA000866945690469C36882680068416870479B
:10CEB00010B5041E0DD007F037FA230001382018F2
:10CEC000834208D21A780178013819704270013310
:10CED000F6E7024800E0002010BDC04617FCFFFF47
:10CEE000F0B585B001900C1E28D00027C217161A85
:10CEF00056407D1C631902933000013B0A210393C5
:10CF000003F072FFCB17C9185940039B30311970D9
:10CF100030000A2103F082FE061E01D02F00E8E750
:10CF2000019B002B03DA2D23029ABD1C13700026EF
:10CF300020006655FFF7BCFF300000E0014805B057
:10CF4000F0BDC04617FCFFFF0CC8074810B51B1802
:10CF5000DB00D3181800934205D31C688C4202D31F
:10CF60001800083BF7E710BDFFFFFF1F002370B557
:10CF700004000160436099420AD1064D2B68002BE2
:10CF800002D10AF043FD286023689B00EB586360E0
:10CF9000200070BD0C25002070B500280DD10C4C70
:10CFA0002668002E07D108300BF034FA0500310056
:10CFB000FFF7DCFF2560206808E0012205490648EC
:10CFC0000B68134002D1026043600A6070BDC04626
:10CFD000002500201025002004250020436810B5FE
:10CFE0000400002B02D104480BF068F86068036865
:10CFF0001B69984710BDC04669940200436810B58C
:10D000000400002B02D104480BF058F86068036854
:10D010009B69984710BDC04669940200436810B5EB
:10D020000400002B02D104480BF048F86068036844
:10D030005B6A984710BDC0466994020010B50400B1
:10D0400002F0F6FC034B1B68002B01D02000984730
:10D0500010BDC04614250020F0B58DB0050001F0CC
:10D06000F3FD002001F07AF8036807001B69984778
:10D070003B6804009B69380098473B6806005B6A80
:10D08000380098470300288810380B2800D998E00A
:10D0900003F030FD063D9797975A979797619773DE
:10D0A000AF88200039000AF073F822006B7B5832F9
:10D0B00001931378A87919000223194306AB117064
:10D0C0001F80012306AA9370D07013006A4612795C
:10D0D000E91D9A722B000622163307A80B9306F05F
:10D0E000C5FE29000B2006AB06220E31C01806F043
:10D0F000BDFE94346368A360A068002861D0C36853
:10D1000006A99847A368002BF4D01B69F3E7200019
:10D110002F49AF880AF03CF82200022058321378D9
:10D12000A9798343137006AB1F809970A03463689C
:10D13000A360A068002844D0C36806A99847A368E4
:10D14000002BF4D01B69F3E75B69A91D002B38D0D5
:10D15000A888984735E0636EAF79002B31D0A3667D
:10D16000A06E00282DD0C36839009847A36E002B0D
:10D1700001D1636EF3E71B69F1E701220D27AB7B59
:10D18000E91D1A4001925A07920FDB08029206A885
:10D190000622EF57049306F069FE6A46127906AB41
:10D1A000DA716A46127A9F711A726A46127C2000FE
:10D1B0005A722B008C340F3309938030236806A9F0
:10D1C0009847290030000AF0EBF80DB0F0BDC046DA
:10D1D000FFFF00000723D72802D9024B1860002365
:10D1E0001800704718250020014B18607047C04692
:10D1F000142500201FB5A3238022DB00D205D358BD
:10D200000820DB0700D405301E4B48221E4902F0DF
:10D210000FF800280AD080B2002807D1BFF34F8F43
:10D220001A4A1B4BDA60BFF34F8FFEE702AC0822AD
:10D230000021200006F0A4FE01232370154B2000DE
:10D240001B68636009F0FBFD002801D0072017E090
:10D25000684609F0F2FD0028F8D1694609F0EBFDB7
:10D260000028F3D10C4802F013F880B2002807D14F
:10D270000A4802F017F880B2002801D100F0FEFB46
:10D2800004B010BD456E02001C2500200400FA0504
:10D2900000ED00E01825002059D001003DD001002C
:10D2A00080B2002807D1BFF34F8F034A034BDA60E7
:10D2B000BFF34F8FFEE770470400FA0500ED00E072
:10D2C000024B0B60092313607047C0468C94020028
:10D2D00010B50400002000F041FF03681B69984767
:10D2E0000300F3331C7086235B00C0500300002151
:10D2F000044AFC335A61044A99615A62F4300AF0D4
:10D3000028FE10BD3B7002004D700200012110B5D7
:10D31000044A080001F042F8031E00D00B23180055
:10D3200010BDC046D1D20100F0B50600040087B0A0
:10D33000AC367368B360B568002D08D0EB68210087
:10D3400028009847B368002BF3D01B69F2E7200050
:10D35000B03009F0C9FE2200FC23583211782600B3
:10D360000B40137023000A365C331D7029001F2206
:10D37000300006F005FEF5772A3629001F2230001E
:10D3800006F0FEFD2000F577643009F0ADFE2000C8
:10D39000983009F0A9FE200001AEA43009F0A4FEE7
:10D3A00029000C22300006F0EBFD230032006C3324
:10D3B00083CA83C3094BE567A3670C2229003000A9
:10D3C00006F0DEFD2300803307CE07C32800044AA1
:10D3D00090341A60256007B0F0BDC0462D70020081
:10D3E0001F700200F0B593B0019000200C0000F017
:10D3F000B5FE03685B6A984700F0C0FB06AB0028E7
:10D400000DD000221A7105AA0692082218001A737C
:10D410000AAA9A6000F07CFC002802D052E0187141
:10D42000187300231F0023732371019BBA331B78E9
:10D43000BB4246D907237B43019AD218BB321278EC
:10D44000022A31D1002506AE337BAB4236D9072004
:10D450007843AB000293019BAA001818089BBB30CD
:10D4600099580AF0C5F800281BD0B368AA009A584A
:10D47000237BA1689B005A50237B01332373337BAA
:10D480005A1E954208D01049B2685B189B009B5801
:10D4900003930399029BD15006AA137B013B13739C
:10D4A0000CE00135EDB2CEE701992279CB18216865
:10D4B000BB33920053502379013323717B1CDFB2BD
:10D4C000B3E7002013B0F0BDFFFFFF3FF0B59DB004
:10D4D0001F006B4605001A70581C0622229E02ACE3
:10D4E00006F0C4FC002F07D03B8823807B88638034
:10D4F000BB88A380FB8806E032232380DB1863808F
:10D50000F533A780FF33E3800CAB04A9049314AB7D
:10D510008B602F000023B9370B710B733B78002B06
:10D5200017D101203B78022708A903405A000B7845
:10D53000BB4304AF4F601343002E10D0B279834336
:10D54000024013430B7033880B8173884B81B3887F
:10D5500011E02800FFF746FF0028E2D029E02A006A
:10D56000323212788343024013430B70AB8D0B8130
:10D57000EB8D4B812B8E220068468B8109F088FC55
:10D5800003000020834214D00630082B11D005D8A8
:10D590000130042B0DD0834208D109E00520112B66
:10D5A00007D0054A934203D0102B01D00B2000E096
:10D5B00004201DB0F0BDC04602320000F0B50A786C
:10D5C00004009BB00D000220012A44D04B88032A9E
:10D5D00006D1A03B21499BB210008B423BD805E00D
:10D5E000203B1F4A9BB20320934234D81D4BAA888C
:10D5F00003209A422FD80AAB009312AB02936A46DB
:10D600000023260013711373B8363378002B05D02E
:10D6100069462000FFF7E6FE00281CD104AF18225F
:10D620000021380006F0ACFC2B7838003B703378D2
:10D630003B726B46FB606B883B82AB887B8209F058
:10D6400011FC02000320002A05D1012110005834EA
:10D6500023780B4323701BB0F0BDC046603F000031
:10D66000E03F0000FF3F000013B504680093A4688A
:10D6700013000A000149A04716BDC046FFFF000085
:10D6800037B506AC2578046801950093246913002A
:10D690000A000149A0473EBDFFFF0000F0B589B078
:10D6A000019307000FAB0D0016000021082202A80D
:10D6B0001C7806F065FC0EAB1B8802AA1380019B48
:10D6C0000393002C06D03100280009F069FD0028E2
:10D6D00041D154E03B007A79F833A2423DD9083376
:10D6E000190008390988B14208D130222034A40039
:10D6F000E3590133DB7F134202D12EE00134ECE722
:10D7000002220020DB06DB0F04ACD31AA370019BBE
:10D710002680E3600EABA3601A4BA0809D4207D128
:10D7200000F01CFD03681B69984709F034FD0500F3
:10D730002100280009F038FD80B200281FD01128F0
:10D740001CD013D8082817D002AA3100280009F0ED
:10D7500027FD002812D0032011E002AA3100280082
:10D7600009F01EFD0028F6D1063008E0064B98426D
:10D7700004D0064B9842E7D1062000E0052009B00E
:10D78000F0BDC046FFFF0000033000000134000080
:10D79000F0B5050097B008002E240B9100F062FD53
:10D7A00004ABE4181090220010A9012009F0F6FC47
:10D7B000002801D00320D4E023880B9A0A90938399
:10D7C0000B9B0A9A1B7D934250D96B791D2B01D973
:10D7D0000720C6E00B9B9B690C930A9B0C9A9B004D
:10D7E0009C586369002B46D1638B002B43D1631C8B
:10D7F000DB7F022B3FD134E06979A31C1F31C900C4
:10D800006918621CDB7FD27F089121002A310978D8
:10D810000020079121002931097806910D99059181
:10D820000C990491217F0391218B0291618B0191CD
:10D830006169009110A90AF02BF90028BAD16B791F
:10D8400007001A00203292001F335451DB005B5B4B
:10D85000E3836B7901336B71230028331B78BB4260
:10D8600037D80A980130C3B20A93A9E72B79002070
:10D8700001332B7175E0200000F0F4FC00261090BD
:10D880000D960C96230028331B78B342B4D9626AF4
:10D89000B3009F58342204AB9B1800221A70002357
:10D8A000002111AAD21801335170102BF8D1462251
:10D8B00004AB9B182C4A11A938001A8009F00CFD02
:10D8C000002803D07B690C937B8B0D93731CDEB215
:10D8D000D8E78E239B00EB5C132B00D978E7626AB4
:10D8E000BB009E580023180011A90B70CA18013301
:10D8F0005070102BFAD11C4B30004B8209F0ECFC1D
:10D900000C9000282AD1300000F0ACFC8E2292004E
:10D91000AA5C738B1D32FF325200AA1802320292A7
:10D92000327F10900192328B10A9009272690C988C
:10D930000AF08BF9002800D03CE78E238E219B0053
:10D94000EA5C8900531CDBB26B541D337A32FF331F
:10D9500092005B005651EB185B88F383781CC7B2CA
:10D960007AE717B0F0BDC04601290000F0B5040009
:10D9700087B0E36B2364266C002E08D0F368210087
:10D9800030009847236C002BF3D01B69F2E720008E
:10D990003C3009F064FC2000267166710C3009F0FF
:10D9A0005EFC2000183009F05AFC2000243009F0F9
:10D9B00056FC200001AD303009F051FC31000C2242
:10D9C000280006F0DDFA23002A00443383CA83C30B
:10D9D0000F4B3100236566650C22280006F0D0FA53
:10D9E00023002A00583383CA83C3094B0C22636681
:10D9F0003100A666280006F0C3FA23006C3307CD79
:10DA000007C33000024BE667A36707B0F0BDC0460E
:10DA1000EB71020070B50500FFF7A8FF041E1CD1D2
:10DA2000280078222100803006F0AAFA2800E93088
:10DA300050222100FF3006F0A3FA2800082221001E
:10DA4000F83006F09DFA064B2822E818210006F06F
:10DA500097FA8E239B00EC5400E00624200070BD52
:10DA60003A0200000B68002B01D1036002E0024B78
:10DA70000360002343607047436E02001FB502AC91
:10DA800008220021200006F07BFA28232380693336
:10DA9000FF336380E380803B01A8FF3B05220C49F4
:10DAA000037009F09FFD80B200280FD18020800014
:10DAB00009F094FD80B2002808D1200009F090FD03
:10DAC00080B2002802D109F087FD80B204B010BDF9
:10DAD0009594020070B500200C0000F03FFB036835
