:020000021000EC
:108000000040002019010200550102005701020042
:108010000000000000000000000000000000000060
:1080200000000000000000000000000059010200F4
:1080300000000000000000005B0102005D01020082
:108040005F01020021AD0100D50702005F010200BF
:108050005F01020000000000910102005F010200C8
:108060005F010200B10902005D0602005F0102002B
:108070005F0102005F0102005F0102005F01020078
:108080005F0102005F0102005F0102005F01020068
:108090005F010200E5E50100B5F301005F010200A8
:1080A0005F0102005F01020000000000000000000C
:1080B00000000000000000000000000000000000C0
:1080C000054B0648033310B51B1A062B03D9044B86
:1080D000002B00D0984710BDA8200020A820002029
:1080E000000000000648074910B5091A8910CB0F97
:1080F0005918491003D0044B002B00D0984710BDED
:10810000A8200020A82000200000000010B5074C87
:108110002378002B09D1FFF7D3FF054B002B02D0AA
:10812000044800E000BF0123237010BDB0200020F0
:108130000000000080960200094B10B5002B03D010
:108140000849094800E000BF08480368002B02D135
:10815000FFF7C8FF10BD064B002BF9D09847F7E793
:1081600000000000B420002080960200A82000201B
:1081700000000000144B002B00D1124B9D46402202
:1081800092029A1A924600218B460F461148124AD3
:10819000121A0BF055FF0D4B002B00D098470C4BDB
:1081A000002B00D098470020002104000D000B4850
:1081B0000BF0DAFD0BF026FE200029000FF0F0FF97
:1081C0000BF0F0FD0000080000400020000000005F
:1081D00000000000A8200020302A0020D13D02002D
:1081E00010B50400034B036040300DF0D5F82000BB
:1081F00010BDC046C0850200D92330B5254C87B0DC
:108200009B00E11805A802F085FE05A904A800F06E
:10821000CDFF05A80DF04FFA1F4905A800F0B6FFE5
:1082200005A904A80DF024F9050005A80DF0B4F87F
:10823000002D0DD0194905A800F0A8FF2000C82284
:10824000F030520005A902F049F905A80DF0A4F894
:10825000134905A800F09AFF05A904A80DF008F934
:10826000050005A80DF098F8002D0DD00D4905A8C2
:1082700000F08CFF2000C822F030520005A902F067
:108280002DF905A80DF088F804A80DF085F807B0C1
:1082900030BDC046CC2000205B950200BC9002009F
:1082A000BE900200C090020010B5054C200000F006
:1082B00065F8044A0449200010F058F910BDC04682
:1082C000CC20002000200020CD820100CA23144AC7
:1082D0009B0010B5C2501C330400C0180DF05CF8B0
:1082E000D0239B00E0180DF057F820009130FF30AC
:1082F00001F016FB20006930FF3001F011FB200077
:10830000F03001F003FF2000D03002F0F3FA20003B
:10831000643007F06DFE201DFFF762FF200010BDE6
:108320004C8A020037B5134C200000F0DFF82820FB
:1083300010F023F910231D21009301220E4B05009C
:108340000CF0C9FF20002900D03002F05BFA0028B1
:1083500005D028000CF0D6FF280010F003F9D32335
:108360009B00E01802F024FDFA20800000F0D8FC09
:10837000FAE7C046CC200020F98101001423F0B5B3
:10838000040093B0192200931821043002F0ECFD90
:1083900023002500260064331800B4351321109300
:1083A000B83607F031FE28000EF032FA00221E2106
:1083B00030000DF0D1FE2000D03002F0BBFA2300D7
:1083C000F033474A06211800119301F0C3FE200044
:1083D0000027012369301A0000971121FF3001F0B6
:1083E0001BFB200091300097012302221A21FF304D
:1083F00001F012FB2000B930022201211A23FF30C4
:1084000002F058FB300001F013F9E4235B00E05068
:10841000300001F05DFBE6235B00E0500100E42248
:1084200020005200D130119BA2580095FF3001F07E
:10843000A1FD2000E13029001C22FF3002F02EFFB8
:10844000192320000F93013B0E93013B0D93013B39
:108450000C93013B0B93013B0A93013B0993013BB6
:108460000893013B0793013B0693013B0593013BB6
:108470000493013B0393013B0293013B0193F930C9
:10848000013B082200930721013BFF300DF085FEE0
:10849000CA239B00E018290003F032FFD3239B007E
:1084A000E0181D2102F0D6FBDD239B00E750109859
:1084B000277003210FF0A2FD2300220020000949AC
:1084C0009C33A0321C6011605760074A80305A61AB
:1084D0000221012207F00EFF200013B0F0BDC046BC
:1084E000C8850200DB4F0200C74F02000123F0B530
:1084F000057891B007001D4000D0DFE00300D033C5
:108500001800049300F0ECFA00F0DEF9282010F0D7
:1085100034F8040010300CF0DEFF694B65802380D6
:10852000182010F02AF80600664B80C6039010222F
:10853000290030000E930F950BF082FD08220EA942
:1085400030000BF0F3FC604B039AE560536112239B
:10855000A260A380256265622100049802F052F9AE
:10856000002805D020000CF0CDFE20000FF0FAFF0F
:1085700001223B78554913433B703B00B43318004C
:1085800005930EF04BF95249039005980EF046F909
:1085900000260690642000F0C3FB340035003B0049
:1085A0006933FF33180007930DF0B9F9002803D1A0
:1085B000039B002B0DD109E038009130FF300DF006
:1085C000AEF90028F4D0182D03DDF1E7069B002B4F
:1085D00070D03800653021B2FF2332B2FF3000F096
:1085E00085FE322000F09CFB631CDCB20135052CBB
:1085F00002D10024731CDEB2039B192D02D0002B84
:1086000002D1CCE7002B03D03049059802F0DAFD07
:1086100003980FF0A7FF06980FF0A4FF2D492E48EE
:1086200000F05EFCDD239B00FB580893002B38D143
:1086300000F062F801000AA800F0A8FD0CF052FD5D
:1086400008900CF04FFD6B460990198C0CA80CF0AB
:10865000BFFE099B0DA8190C0CF0BAFE0DAA0CA9BF
:108660000BA80CF015FF0DA80CF096FE0CA80CF052
:1086700093FECA20012380000BAA0AA90093381890
:10868000049B03F091FE0BA80CF086FE0AA80CF0E8
:1086900083FECC239B00FB580893DD23089A9B00A4
:1086A000FA50CA2339009B00079AF031F81804F0F9
:1086B0006FF874E70749094800F012FC11B0F0BDEB
:1086C000FD0300004F5002000F500200F89002001E
:1086D0000391020000200020001C00200800002060
:1086E000BFF34F8F024A034BDA60BFF34F8FFEE7B1
:1086F0000400FA0500ED00E0F0B58DB005AF1922D9
:10870000154938000BF012FC0022144B05245A7155
:1087100080225205566E0122250001940292039395
:108720000199300008F0D6FA0800029908F04CFAD6
:10873000019B03996B430193029B361A6B4302938F
:10874000631E2C1B6C433C19225C1C1ECA54E7D1CF
:1087500008000DB0F0BDC046139102005E29002054
:10876000F0B595B01822002106000EA80BF068FCA9
:1087700013210EA80FF07EFD03210EA80FF010FEAE
:1087800001224A4B00921B68002B01D0DBB2009300
:108790000123474A002109A807F01CFF454B9E42D0
:1087A00000D9002672B6444B1022002105A81D688E
:1087B0000BF046FC414B642130000593052408F082
:1087C0008DFA60435030281806900A21300008F0D6
:1087D00085FA0A2108F068FB614350316918079156
:1087E00030000A2108F060FB4C43210050316C1826
:1087F000802608940024B601009B002B3CD004ADD9
:108800000027032C02D180260024B6016B682C4A75
:10881000029363000133D318002201921021581EE5
:1088200000780141039119788C4660460299095CF1
:108830000398014204D00120904001990143019125
:1088400001320633092AE9D1019B2A68D9431D4B1D
:1088500009011940029B934203D1312F01DC002111
:1088600000E0314309A80FF056FEFA23139A0F993E
:10887000DB001068014201D1FFF732FF013B002B02
:10888000F7D1FA23013401377600E4B25B009F424E
:10889000B7D1043508ABAB42B2D1044B1B68002BF7
:1088A000AAD0009B013BDBB20093A5E74424002043
:1088B000F0FF0000E70300000420002062910200A6
:1088C0002C910200F01F0000F8B50023144C236027
:1088D0000CF0FAFB2500002808D0042120000CF041
:1088E000EFFB00281BD00F4B236018E00122A127CB
:1088F00004210D4B0D4E1A602368FF000B4A706077
:10890000944662465268084C002AFAD0E2591B028B
:10891000013913430029F1D12B6001236360F8BDB5
:1089200048240020ED5EBC0B00D00040FCD000408D
:10893000F0B585B01F000AAB1B8806000291150038
:108940000393002F1AD028200FF017FE6B46040067
:108950001989039BAAB200933B000CF0BCFC33685E
:1089600021005B6830009847002808D020000CF0F8
:10897000C9FC20000FF0F6FD024800E0024805B0F7
:10898000F0BDC04616FCFFFF17FCFFFF0B4B70B598
:108990001C68002C11D0656D00F0B4FBA36C00299D
:1089A00003D1834201D92C00F3E720000CF0BFFB78
:1089B000034920000CF0A8FBF5E770BD70240020EF
:1089C00078240020F0B5040093B00793230C0293A1
:1089D000294B04901C68294B05911E68069285B2AC
:1089E0000027002E46D0002C30D0636D244803931E
:1089F000A36C9AB21B0C99B2854216D121488242CF
:108A000013D1002B04D0029B994201D0039CEAE7CA
:108A1000002F01D00127F9E720000CF088FB1A494C
:108A200020000CF071FB0137F0E7002A01D09542DD
:108A3000ECD1002B02D0029B9942E7D120000CF030
:108A400076FB114920000CF05FFBDFE70F4BEB18C2
:108A5000012B0FD91023029A009329000C4B08A870
:108A60000CF039FC336808A99B683000984708A8C7
:108A70000CF048FC13B0F0BD6C2400207C240020D6
:108A8000FE030000FF0300007824002002FCFFFF2B
:108A9000C589010010B572B60B4B1C68002C03D0C1
:108AA00020000CF044FB08E062B65C200FF065FD8E
:108AB0005C22002104000BF0C3FA0023E364034BA3
:108AC0002000E36310BDC0464C240020004000207D
:108AD000024B1878012318407047C04664290020D3
:108AE000F7B50600FFF7F4FF051E33D11A4C2660D8
:108AF000FFF7D0FF194B1A4918600CF005FBFFF780
:108B0000C9FF184B1860184B4363184B83632068E8
:108B100000280ED0C027164E2A00330015490097B2
:108B2000FFF706FF009733002A0013492068FFF77C
:108B3000FFFE0C200FF021FD0023838083710F4B7B
:108B400003600F4B836000F0F5FA01210D4A1378A2
:108B50000B431370F7BDC0467C2400205024002036
:108B60007824002080240020FC3F0020F5510200E2
:108B7000C5890100FF030000FE030000E885020034
:108B80008D89010064290020F7B506000D0017004B
:108B90000193002801D1002015E00029FBD0FFF748
:108BA00079FF041EF7D0084B019A436306604560C5
:108BB0008760064B002A00D0054B2000A3630549BF
:108BC0000CF0A2FA2000FEBDFC3F0020BF510200C5
:108BD000DD51020078240020024B186843425841BE
:108BE0007047C04678240020002310B504499C003B
:108BF0006258002A01D00133F9E76050100010BD1F
:108C000054240020002310B5044A99008C58844253
:108C100001D00133F9E70020885010BD5424002012
:108C200010B50024074BE058002802D003685B68A9
:108C300098470434182CF5D1034B1B68002B00D146
:108C400020BF10BD5424002078240020F8B5FFF781
:108C50003FFF002856D02C4E34683500E36CDA070D
:108C600018D502273B43E364284B1D680423EA6CB4
:108C700028001343EB64636BEB630CF07EFA28006F
:108C8000696C04F080F93068C36C3B423AD004F060
:108C9000B4F937E01E4F1F4E3A68002A01D13268FE
:108CA00008E0216DB94205D1616D002900D11100A4
:108CB000296000E02A602A6831688A4208D11B07CF
:108CC00006D52C60FFF7ACFF3B68002BFAD02B6079
:108CD00029688C4216D03368994204D10E4B4B63FD
:108CE0000E4B8B6305E09C4203D100224B6C1000BD
:108CF00006E020000CF041FA20002968626C4B6C01
:108D000004F000F9F8BDC04650240020742400206F
:108D10007824002080240020FC3F0020F551020030
:108D200070B50500FFF7D4FE002803D128000FF02E
:108D300030FB18E00C4B1C68E36CDB0706D5FFF733
:108D4000A9FE0A4B1860002800D0040000F0DAF9F0
:108D50002818A06420000CF0EAF9054920000CF066
:108D6000D3F9FFF773FF70BD502400207424002056
:108D700070240020F0B51E4B85B01C681D4B06000A
:108D80001A680F000393002A03D0FFF7A1FE002802
:108D900001D119482AE0E36CDB070ED5FFF77AFE14
:108DA000164B051E186008D00CF0C1F914492800B4
:108DB0000CF0AAF92C00FFF749FF3B043343A364EE
:108DC00020000CF0B4F920000E490CF09DF90E4B78
:108DD0000020F318012B09D9C023039800933A000F
:108DE0000A4B31000068FFF7A3FD002005B0F0BD7D
:108DF000502400207C24002016FCFFFF7424002057
:108E0000782400206C24002002FCFFFFC5890100AB
:108E100010B5FFF75DFE002809D0054C20680CF066
:108E200086F9044920680CF06FF9FFF70FFF10BDB9
:108E3000502400204C240020F7B507000D00002826
:108E40002DD0FFF745FE00282BD00724164E3068A2
:108E5000C36C1C4006D0154A290038000CF07EF97E
:108E600000241FE004F0B1F802213268D36C1940ED
:108E7000019103D003218B43D36413E001242343E6
:108E8000D3642800B8473268D36C1900A143D16479
:108E9000019C5B0706D528000CF098F902E0044C11
:108EA00000E0044C2000FEBD50240020CD51020003
:108EB00017FCFFFF16FCFFFF020010B5014B12CBA1
:108EC00012C210BD84240020034A044B12681A60A9
:108ED0007E225A607047C04604200020842400206F
:108EE00070B5124E05003278022A1AD081421AD982
:108EF0000C1A072C17D9080003232843034012D16A
:108F000072B60B48D2001550821851608022A40816
:108F1000120614432C6032780132327062B61800A7
:108F200002E0044800E0044870BDC0466629002005
:108F30008C24002013FCFFFF17FCFFFF70B5134AC1
:108F4000060013781400124D002B0CD11149124861
:108F50002B70FFF7C5FF114B984202D11E20FFF77F
:108F6000FFFB0123237000242B789C4209DA0C4973
:108F7000E300C91830000CF043F9002805D1013492
:108F8000F2E71420FFF7ECFB002070BD65290020FC
:108F90006629002000380020302A002017FCFFFF3F
:108FA0008C24002070B500281FD0104B10491C786D
:108FB0000023A34216DADA005558A84210D98A18BD
:108FC000526890420CD2041F2368002B02DC1E2042
:108FD000FFF7C6FB802322681B061343236004E0CF
:108FE0000133E6E71E20FFF7BBFB70BD66290020BA
:108FF0008C24002070B5051E15DD0C4B0C4E1A6834
:109000001C00002A02D030680FF04EF8FA212560CB
:1090100000243068074B89008361C46269430FF004
:109020004BF8200000E0044870BDC046CC2400206E
:109030009C240020E190010017FCFFFFF8B5114FC0
:1090400006003D68002D0AD130200FF096FA04008A
:1090500007F034F80C4BA5612360E5623C600B4DD2
:109060002B68002B09D110200FF087FA04000FF0B5
:1090700070F820002C600FF046F83000FFF7BAFFC0
:10908000F8BDC0469C240020F48D0200C8240020B6
:10909000014B18687047C046CC24002070B50D4CB9
:1090A0002368002B03D00C4B1B68002B02D1062039
:1090B000FFF7C4FF20680FF03DF802000749C3170F
:1090C0000D684E685219734120680A604B600FF0BA
:1090D00037F870BDC82400209C240020A820002060
:1090E00010B5FFF7DBFF0024054BE058002802D045
:1090F00003681B6898470434282CF5D110BDC0467E
:10910000A024002010B5FFF7C9FFFA22034B9200FC
:1091100018685968002307F045FF10BDA8200020FB
:1091200010B5FFF7BBFF024B1868596810BDC04669
:10913000A82000200B4B10B51B680400002B03D0A7
:10914000094B1B68002B02D10620FFF777FF002395
:10915000064A99008858002801D00133F9E78C505D
:1091600010BDC046C82400209C240020A02400205C
:10917000002310B5044A99008C58844201D0013371
:10918000F9E70020885010BDA024002010B504008D
:10919000002902D00B78002B02D1034B236001E0A1
:1091A0000CF001F9200010BDF8850200F8B50400AC
:1091B00008000D000CF0BAFA002802D1134B23600E
:1091C00022E028000CF0B2FA0530FFF7B7FE20606D
:1091D0000CF0AFFA280026680CF0A8FA236870801B
:1091E00028001E1D0CF09FFA070028000CF09EFAC4
:1091F0003900020030000AF099FE280026680CF0C1
:1092000095FA0023301803712000F8BDF88502009C
:10921000F8B505000E00140000290AD00B78002BC9
:1092200007D0002A05D0080097B20BF0DDF887427E
:1092300002D90B4B2B6010E0601DFFF77FFE28600A
:109240000CF077FA286822004780310004300AF0D9
:109250006DFE2B681C19002323712800F8BDC04641
:10926000F8850200014B03607047C046F885020094
:1092700010B50548054C20600CF05EFA044A05491B
:1092800020000FF073F910BDF8850200D0240020F3
:109290000020002099530200084B73B51C6805009C
:1092A000002C0AD0010026680831082268460AF01E
:1092B0003DFE0CCD31682000884773BDD4240020CA
:1092C000014B03607047C0460086020010B50400E1
:1092D000002902D1044B036003E0016008000CF098
:1092E0002BFA200010BDC0460086020030B504688D
:1092F0006088814206DAA588AA4203DA002901DBE8
:10930000002A01DA034804E04243601880188371A0
:10931000002030BD17FCFFFFF0B5070085B00E0040
:109320001D00002921DD002A1FDD002B1DD004684F
:10933000638803938B4200DD0391A38802939342D9
:1093400000DD0292002306340193019B029A9342AE
:109350000DDA29002000039A0AF0E8FD3B68AD19F8
:109360005B88E418019B0133EEE7024800E000202F
:1093700005B0F0BD17FCFFFFF8B504000D001600A6
:109380001F00002901DB002A02DA0D4B236016E0E2
:10939000100048430630FFF7D1FD20600CF0C9F9FA
:1093A00023685D809E80002F06D03B00320029009C
:1093B0002000FFF7B1FF02E020000CF0DEF8F8BD5E
:1093C00000860200F7B505000C1E05D000200F0036
:1093D00006000190010015E0224B03603FE03022BF
:1093E000524294469C446246092A14D90A2B0DD154
:1093F000019B361801330193B14200DA310000209D
:10940000060001373B78002BE9D106E00028F8D0B0
:1094100001360020F5E70120F3E76A46928809B299
:1094200012B22800FFF7A8FF2B680A26991D012316
:109430005B422078002812D00200303A092A06D870
:10944000DA43D217134073431B18303B05E0002B5F
:1094500003DB0B70012301315B420134E9E7280093
:10946000FEBDC04600860200F0B5040087B004A827
:1094700015001E000F00FFF71FFD23685A88954254
:1094800008DA9B88B34205DD1F2F03D9059B0093A3
:109490009F4201DD18482DE0052300217B43009306
:1094A000049B0193009B019ACB18A03BD35C002244
:1094B000029373189C465319276803937888834254
:1094C00002DABB889C4507DB0132052AF3D1013162
:1094D0000529E7D100200DE0634658435319FB18D6
:1094E000102717411B1802980740781E87417F42BA
:1094F0009F71E9E707B0F0BD17FCFFFFF7B5036800
:1095000006009C1D5B880D005A1A0192002918DD87
:109510000027994202DB0CF030F814E033689B8896
:109520009F4210DA6119019A20000AF0FFFC019BAA
:109530002900E0180CF004F8336801375B88E41860
:10954000ECE7024800E00020FEBDC04617FCFFFF2C
:1095500010B50548054C20600CF0EEF8044A0549AA
:1095600020000FF003F810BD00860200D824002070
:10957000002000203355020010B5054C01212000C9
:109580000CF0C2F8034A044920000EF0EFFF10BDB2
:10959000DC24002000200020B75602000388074A80
:1095A00010B50120934208D0834202D00020DB078F
:1095B00003D41E20FFF7D4F8002010BDFFFF0000E9
:1095C0000048704716FCFFFF10B53220FFF7C8F8BF
:1095D000004810BD16FCFFFF8280142210B5134C0A
:1095E0000281083402000023046041620400022169
:1095F000303283718172C360036143618361C361EF
:1096000003623634137053704386838622788A430C
:10961000F1310A402270020040321370021DD387DC
:10962000013343878387C38710BDC046208602006D
:10963000F0B5544F97B03B6806000593002B00D05F
:1096400094E006AC0B331C222121200001F06AFAC1
:109650000EAD0B231D2222210AA801F063FA0B2371
:109660001B222321280001F05DFA08200EF085FF5F
:109670000122059B110004900DF0E2FB3A2130001D
:109680000DF04BF900281CD0A38812ADAB80A37954
:109690005C20AB713C4B1293A3681493237B2B7318
:1096A000637B6B73A37BAB730EF067FF04230193A3
:1096B000363300932A00049B3100040002F000F9C5
:1096C00053E0322130000DF056F900281CD0A38859
:1096D00012ADAB80A3795C20AB712B4B1293A368C6
:1096E0001493237B2B73637B6B73A37BAB730EF0A1
:1096F00044FF042301932E3300932A00049B31007E
:10970000040002F07BFA30E03C2130000DF0EEF86E
:10971000002822D0AB8812ACA380AB79A420A3711F
:10972000194B1293AB6814932B7B23736B7B63737E
:10973000AB7BA3730EF021FF052305000293013BD1
:109740000193383300932200049B310001F0D4FFD1
:109750000E4B3D6044351D6008E044200EF00DFFC7
:10976000042204990400FFF737FF3C60074B054CC7
:109770001868002802D021680CF03EF9206817B064
:10978000F0BDC046E024002010860200E424002042
:10979000F0B56049C56885B08D4206DA03003633FE
:1097A0001A78022313400BD117E0C822002352007D
:1097B000954212DD030036331A78002392070CD449
:1097C000012306001F00363632785408A7433C00B8
:1097D00002279C40BA432243327004698C4205DA66
:1097E000020036321278520709D415E0C82252001E
:1097F000944211DD02003632127852070CD4060072
:109800000122363633789F08BA43970004229343E7
:109810001A0001233A433270426901920200019E0C
:1098200040328E4205DA01003631097809070AD440
:1098300015E0C821019E49008E4210DD010036313D
:10984000097809070BD40600012136363378DF0882
:10985000B9430827C900BB430B43337001E0002B19
:1098600018D01378032B15D80133DBB21370012BFA
:1098700003D10021031DD9870CE0042B0AD102007B
:1098800001213632137804300B4313700023C38751
:109890000B333CE013780293002B1BD0060001270A
:1098A000011DCB8F363601339BB2CB8703963678BA
:1098B000BC46374008D01D2B0CD963469E43039B02
:1098C0001E700023CB8704E0092B03D9029BCF87AE
:1098D000013B13700BF072FF0F4A0723904216D919
:1098E0000E49043B8D4212DBC8220133920095429F
:1098F0000DDC023B8C420ADB013B944207DC019801
:109900000433884203DB0133904200DC002318005B
:1099100005B0F0BD70FEFFFFFF700200E0FCFFFF2E
:1099200010B50400034B08330360FFF721FC20004F
:1099300010BDC0465486020070B5C369C2681B687A
:109940008AB00400451D1A4250D0EB7F002B01D095
:10995000013BEB77EB7F082B0DD90122A379134252
:1099600009D11343A371A188130006A80BF0BEFD13
:10997000FFF7C8FB2062EB7F012B26D80123A279D9
:109980001A4222D00025A188A571022202A80BF05C
:10999000ADFDA31DDE7F012E17D1FFF7B3FB2B001A
:1099A000226A801A994100900191019BA188AB42E3
:1099B00003D1174B009A9A4202D90123042201E0F5
:1099C0003300032206A80BF091FD0323A279134074
:1099D000012B1AD1FFF796FB0023226A801A9941C6
:1099E000994208D10B4B984205D80EE0EB7F0B2B28
:1099F000B0D80133ADE70222A379A1881343A37144
:109A00000332012306A80BF071FD0AB070BDC046F9
:109A1000E7030000DB050000F0B5070000250E009D
:109A200085B002930AAB1B7808370393104B0400F0
:109A3000083303600192858085712900182238005F
:109A40000AF0FEFA039A310038000EF018FC6B465B
:109A50006A469B88127AA380A31DE671DA77631D9C
:109A600025622000DD77FFF765FB200005B0F0BD23
:109A7000548602000048704716FCFFFF10B53320E3
:109A8000FEF76EFE004810BD16FCFFFF002310B568
:109A90000400838083710D48216408302060802099
:109AA000C000A061E0612062E36020002361636187
:109AB0006362A362E36223636363A363E363636438
:109AC00011000BF072FF200010BDC0466C86020032
:109AD000F0B5534F97B03B6806000593002B00D0BC
:109AE00094E00B331C22212106A80AAC01F01AF8DD
:109AF0000EAD0B231D222221200001F013F80B23B1
:109B00001B222321280001F00DF808200EF035FD5E
:109B10000122059B110004900DF092F91D213000E7
:109B20000CF012FF00281CD0A38812ADAB80A379E3
:109B30006020AB713B4B1293A3681493237B2B7370
:109B4000637B6B73A37BAB730EF017FD052301934F
:109B5000183300932A00049B3100040001F084FFB5
:109B600053E03C2130000CF01DFF00281CD0A388DE
:109B700012ADAB80A3796020AB712A4B1293A3681E
:109B80001493237B2B73637B6B73A37BAB730EF0FC
:109B9000F4FC05230193373300932A00049B310022
:109BA000040002F0CDF830E03C2130000CF09EFEC5
:109BB000002822D0AB8812ACA380AB79A420A3717B
:109BC000184B1293AB6814932B7B23736B7B6373DB
:109BD000AB7BA3730EF0D1FC052305000293013B80
:109BE0000193383300932200049B310001F084FD7F
:109BF0000D4B1D6044353D6008E048200EF0BDFC73
:109C0000052204990400FFF741FF3C60064B1A68E7
:109C1000034B002A01D019684A64186817B0F0BDD8
:109C2000E424002010860200E024002082B0F0B579
:109C30000400EBB06420719370920EF0AAFB052231
:109C40000EA811000BF0A2FC97490FA8FFF7BAFB72
:109C5000002396251A001FA86D001A50C1180C3356
:109C60004A608A60AB42F8D11922002111A80AF09B
:109C7000E7F9A0680CF069FA00260990FF21A068B6
:109C800000F024FD894FA06800F05CFB0796089661
:109C9000864B9F4202D0864B9F4212DAA0680CF09E
:109CA00056FAA568834918A8FFF770FA782218A910
:109CB000280000F079FC18A80BF06EFB7B4F002603
:109CC00006E0002F01D00F2E02D1A06800F03AFB71
:109CD0000322089B606801331A4008920BF005FECE
:109CE000050060680BF008FE0022734B06929D424F
:109CF00010DB013206922A00C8320BDBAA220421B3
:109D000092000691954205DC03220692C82D01DCE3
:109D1000013A069200220492984210DB0123049338
:109D20000300C8330BDBAA2304329B000492984241
:109D300005DC03230493C82801DC013B04930EA82F
:109D40000BF01BFC002511ABEB5C012B08D15B4930
:109D50006B00CA185278C95C0EA8FF23FFF7C6FA39
:109D60000135192DEFD16B4610229A5E6B460EA875
:109D70001821595E089BFFF7B9FA002F01DB0F2E5F
:109D800007D90023A068009374301A000EA90BF0C5
:109D90000AFC00230593059B484A5B00995C0698E2
:109DA000814227D1D3185B78049A934222D12C2286
:109DB00006AB9B18059A9B5C012B1BD00C23079AC2
:109DC000216853431D0000220AA80BF017FE1FAAAA
:109DD0002B0094460AAA634423CA23C32C2206AB51
:109DE00005999B182B3A5A54079B0133DBB2079312
:109DF000731CDEB2059B01330593192BCBD1642074
:109E00000EF0C7FA3B00643B1FB2079B182B00D82B
:109E10003EE71A001FA918A80CF00BF86A461BAB06
:109E200023CB23C21B6813601899199A1A9B2068C8
:109E30000BF0CCFDE568002D0CD0214910A8FFF7F0
:109E4000A5F91C2318AA10A928000CF01AFD10A8C7
:109E50000BF0A2FAA0680CF07AF90FA910A8A56877
:109E60000BF074FB0022174B009210A901932800FD
:109E7000130000F007FB10A80BF05BFBFA2080003A
:109E80000EF087FAA0680CF062F90999A06800F05A
:109E90001DFC0FA80BF04DFB0EA80BF04AFB6BB09E
:109EA000F0BC08BC02B01847749302008C3C000060
:109EB000D18AFFFFB993020058FDFFFF42930200D1
:109EC000CE930200DC050000F0B587B001930EAB25
:109ED0001B88060003930D9B0D000093019B0292CB
:109EE0000C9F002B3DD0002F02D1009BDB0738D503
:109EF00028200EF042FB040010300BF0ECFA6B4609
:109F00001B891820258063800EF037FB049707001B
:109F10000500009B10220593019B002108C7380013
:109F20000AF08EF8082204A9380009F0FFFF0E4B52
:109F300002226B6100230399E3602362636233684A
:109F40000A43A560A2805B68210030009847002882
:109F500008D020000BF0D6F920000EF003FB0348D8
:109F600000E0034807B0F0BD3F5A020016FCFFFFB7
:109F700017FCFFFF70B58CB08360109B01604260DE
:109F8000C3600400184918000CF048FC051E14D0EA
:109F900001001C22103105A809F0C8FF6A4608AB71
:109FA00043CB43C21B68136020680599069A079B40
:109FB0000BF00CFD28000EF0D5FA0C4B18680028A9
:109FC0000ED00B4A05AB059200220692C0320292D7
:109FD0006A4622CB22C2230003220521FFF774FF29
:109FE00020000CB070BDC046CE930200D4240020E7
:109FF0002D9C0100F0B5040085B0637A9C46002BCF
:10A0000003D120000BF032FF69E0A37A266F0193A1
:10A010001023019AF35600259B1801229A4029002B
:10A02000F36802920393039B9D4231DAB368019A6D
:10A030006B439B1872695B00E77AD3181A785878DB
:10A04000E379012F04D15F1E3F1A10003A000EE0A1
:10A05000022F05D15F1EBA1A277A013F381A06E08F
:10A06000032F04D1277A013FBF1A020038005B009A
:10A070004343606F8218D3189B79634500DD6346C4
:10A08000627B1A4202D00123AB4019430135CAE773
:10A090001123C943F356606C994023691940029B10
:10A0A00019430EF038FAA37B072B18D8627B581C93
:10A0B000520062730B499A00A073022B03D8885890
:10A0C0000EF05CF999E7084B2000236300236363DB
:10A0D000064B8958E462236414300DF0EDFF05B09F
:10A0E000F0BDC046B0860200F59F0100595E020037
:10A0F00010B50400044B03600DF0D6FF200005F0FE
:10A10000F3FF200010BDC046F48D020010B504001E
:10A110000E4B08330360FFF72BF8200074300BF070
:10A1200008FA200060300BF004FA200058300BF0E1
:10A1300033F9200050300BF02FF92000044B14307D
:10A140006361FFF7D5FF200010BDC046988602006E
:10A15000088E0200F8B500250400324B85800833D4
:10A1600003608571143016000F0005F0A7FF200072
:10A170002D4BE562636125645030FFF773F82000D2
:10A180005830FFF76FF820006030FFF799F8200093
:10A190000423F25E33682667590009B274300BF06D
:10A1A000F5F93378226FE371736801262372102367
:10A1B000E572A572A7802561D356916859188B4224
:10A1C00004DA3000984001330543F8E711230120F9
:10A1D000D356D16859188B4206DA02009A40266994
:10A1E000013332432261F6E714200EF0C6F92269EA
:10A1F00000212A430123060006F0ECF9FF226272D7
:10A20000220000230125483266646573A37323731B
:10A2100020001370A366FEF78DFFA37920002B4367
:10A22000A371F8BD98860200088E0200F0B5437A4B
:10A2300085B00400002B03D120000BF017FE66E070
:10A240000122837A11009C461023066F0025F356E5
:10A2500003926344994001912900F3680293029BA1
:10A260009D422CDAB36872696B4363445B00E77A02
:10A27000D3181A785878E379012F04D15F1E3F1A5A
:10A2800010003A000EE0022F05D15F1EBA1A277A9D
:10A29000013F381A06E0032F04D1277A013FBF1A85
:10A2A000020038005B004343606F8218D3189B792B
:10A2B000002B02D0039BAB4019430135CFE711239C
:10A2C000C943F356606C994023691940019B1943B7
:10A2D0000EF021F9667AB31EDBB2FC2B14D8FEF720
:10A2E000D7FE0C4B0500236300230B4863630B4B25
:10A2F000FF21E4622364704306F0F0FC290041432F
:10A30000200014300DF0D8FE637A012B94D905B0EB
:10A31000F0BDC0466D5E0200B6030000595E02004B
:10A320001FB5012381881A0068460BF0DFF801236E
:10A3300003491A0068460BF0D9F805B000BDC046C5
:10A34000FE0300001FB5030048331A780400002AFA
:10A350000DD000221A70012381881A0068460BF084
:10A36000C5F8012304491A0068460BF0BFF8200025
:10A3700074300BF002F91FBDFF03000010B5483028
:10A380000378002B06D00378012B03D0012102486B
:10A390000AF00CFF10BDC046FF03000010B50121FC
:10A3A000040006200AF002FF064B984209D1230060
:10A3B00048331A78002A04D01B78012B01D020BF23
:10A3C000F5E710BD16FCFFFF70B50500141E09DB94
:10A3D000060048363378002B06D03378012B03D0A3
:10A3E0000B4813E00B4811E0002328001A007430DA
:10A3F000FFF73AF80020844207D02B004A331C8034
:10A4000007234C352880337000E0200070BDC04623
:10A4100012FCFFFF17FCFFFFF8B517000A680500E4
:10A4200052880B00012A09D1002118000BF046F8D0
:10A43000002201002800FFF7C7FF1EE0002F09DD02
:10A44000060048363278002A06D03278012A03D036
:10A450000A4812E00A4810E02A00002428005C3272
:10A460001900148058300AF0F4FF2B004A331F8083
:10A47000032320004C352C803370F8BD12FCFFFF05
:10A4800017FCFFFF73B5079C0500002C09DB0600D5
:10A4900048363078002806D03078012803D00D489F
:10A4A00016E00D4814E006981BB2C0B200902800D8
:10A4B00012B274300BF077F80020844207D02B00E2
:10A4C0004A331C8007234C352880337000E020007D
:10A4D00076BDC04612FCFFFF17FCFFFFF7B5050075
:10A4E0000E00171E26DDFFF749FF2B0048331C78AE
:10A4F000E4B2002C20D133685B88012B09D1210004
:10A5000030000AF0DBFF220001002800FFF75CFFAB
:10A5100013E0310001A80AF094FF3A0001A92800D5
:10A52000FFF77AFF01A80AF037FF2800FFF736FF90
:10A53000200002E0014800E00148FEBD17FCFFFFDB
:10A5400011FCFFFFF0B587B00D9E05000F000292D1
:10A550000393002E1EDBFFF711FF2B0048331C78FE
:10A56000E4B2002C18D1390005A80AF0EFFF0C9BCB
:10A57000029A009305A9039B01962800FFF782FF2A
:10A5800005A80AF0D6FF301E07D02800FFF706FF07
:10A59000200002E0024800E0024807B0F0BDC046DB
:10A5A00017FCFFFF11FCFFFFF8B50400171E09DDC3
:10A5B000060048363378002B06D03378012B03D0C1
:10A5C0000C4816E00C4814E02200E3795632013BB7
:10A5D000137023000025200054331D8050300AF0F2
:10A5E00038FF23004A331F80022328004C34258083
:10A5F0003370F8BD12FCFFFF17FCFFFFF8B5040035
:10A60000161E09DD070048373A78002A06D03A7846
:10A61000012A03D0144826E0144824E05D42069B3A
:10A62000FF3301D16B1D00E0069B22001BB2643298
:10A6300013802300200066331D7060300AF08EFF07
:10A64000220000236C3213709D4200D0B3B222006E
:10A650004A321380079B00205A1E9341013E4C341E
:10A66000053326803B70F8BD12FCFFFF17FCFFFF8F
:10A67000F0B587B005000F00161E03931DDDFFF730
:10A680007DFE2B0048331C78E4B2002C17D1390032
:10A6900005A80AF05BFF0D9B320001930C9B05A9F6
:10A6A00000932800039BFFF7A9FF05A80AF041FFCC
:10A6B0002800FFF773FE200002E0024800E0024895
:10A6C00007B0F0BD17FCFFFF11FCFFFFFF2902D808
:10A6D0004172002000E001487047C04617FCFFFFB0
:10A6E00013B5040004A80078009020000DF05EFC73
:10A6F000002801D1207500E0004816BD0EFCFFFFC8
:10A7000013B5040004A80078009020000DF036FC7A
:10A71000002801D1207500E0004816BD0EFCFFFFA7
:10A720007FB50D0011000F226A4404001E1E117037
:10A7300015D0089B002B12DD012329000093FFF7A1
:10A74000DFFF002801D007480AE00090089B320094
:10A7500029002000FFF7C4FF002801D0F3E70248DA
:10A7600004B070BD0EFCFFFF17FCFFFFF7B507003C
:10A770000D1E27D00023022604690193002C1DD052
:10A78000AA88A3885340334216D1324203D1AB8802
:10A79000334207D010E0A968A0680CF036FB00280F
:10A7A00004D1F4E7A368AA68934205D12B88002B53
:10A7B0000AD022889A4207D0646ADFE7019B200012
:10A7C000002B1ADC0D4818E06B88002B02D0628841
:10A7D0009A42F1D1EB68E268934201D0002BEBD1B1
:10A7E0007B68002B01D020009847A388044A1343BC
:10A7F000A380019B01330193DEE7FEBD17FCFFFF41
:10A800000080FFFFF0B5060085B00D1E5CD001276B
:10A810000469002C1DD00221AA8800230A4202D01C
:10A82000A3885B083B40226829688A4257D1002BE5
:10A830000AD0A968A0680CF0E8FA00284FD0EB68AD
:10A84000E26893424BD141E0A368AA68934246D1A3
:10A85000F5E731692A880F000B1E0CD13561012301
:10A86000214968460AF042FE20003AE0586A1F007B
:10A87000002812D0030018889042F7D318003B003C
:10A880000488944209D147886C88A74205D8446A55
:10A890000300002C01D02000F2E799420AD1088879
:10A8A000824204D306D14C886888844202D9696206
:10A8B000356102E0596A69625D6201230A496846AE
:10A8C0000AF014FE00200CE008480AE0A3881AB23F
:10A8D000002A02DA5B045B0CA380054801E0646A8D
:10A8E00097E705B0F0BDC046FD03000017FCFFFF71
:10A8F00016FCFFFF064B10B51A00040008322C337B
:10A90000026083600830FEF77DF9200010BDC0466C
:10A91000D086020008B4024B9C46083808BC604749
:10A92000F5A8010008B4024B9C46083808BC6047F3
:10A93000C16202000C4A002311002C32083110B50C
:10A940004360838183738260036143618361C38356
:10A95000016004000830FEF747F9044B1A68002A2A
:10A9600000D11C60200010BDD0860200D42400203D
:10A97000F7B50E00012504690192002C37D0238819
:10A9800032889A4201D0002B26D1638872889A427D
:10A9900001D0002B20D1FEF79BF80123002806D020
:10A9A000A288BF331340C03B5A425341DBB2019AE5
:10A9B000934210D1A7883BB2002B0CDB1022310050
:10A9C000A01809F0B3FA40231F4207D1FEF780F820
:10A9D000002803D006E00025646ACEE720000BF0D3
:10A9E00078FCF9E721000348FEF726FAF4E728008F
:10A9F000FEBDC046D362020008B4024B9C46083834
:10AA000008BC60475D640200F0B587B001930EABEF
:10AA10001B88060003930D9B0D000093019B02927F
:10AA20000C9F002B3DD0002F02D1009BDB0738D5B7
:10AA300028200DF0A2FD040010300AF04CFD6B46FA
:10AA40001B891820258063800DF097FD049707006F
:10AA50000500009B10220593019B002108C73800C8
:10AA600009F0EEFA082204A9380009F05FFA0E4B4B
:10AA700002226B6100230399E360236263623368FF
:10AA80000A43A560A2805B68210030009847002837
:10AA900008D020000AF036FC20000DF063FD0348CA
:10AAA00000E0034807B0F0BD8964020016FCFFFF18
:10AAB00017FCFFFFF0B50400160000258380164A3E
:10AAC000164B85710260218146810573186889B033
:10AAD0008C46A8421DD0124A05950492C0220292CB
:10AAE0006A4604AB82CB82C2614623002A00FFF78C
:10AAF0008BFF0B4A094B0692C022186802926A46E5
:10AB000006AB079582CB82C223002A003100FFF7F3
:10AB10007BFF200009B0F0BD14870200D424002080
:10AB2000B365020030B5002403730123034D847123
:10AB30000560818082734373846030BD108602009B
:10AB400070B583790400DB0702D580680DF00AFD3B
:10AB5000A3799B0702D5A0680DF004FDA3795B07DC
:10AB600007D5A0230021144ADB00D150A0680DF0C6
:10AB7000F9FCA3791B0708D5A568002D05D028008E
:10AB80000CF0B4F928000DF0EDFCA379DB0605D537
:10AB9000A068002802D00368DB6898476023A27988
:10ABA0001A4205D0A068002802D003685B68984765
:10ABB0000023A360A37170BD00700040F7B50126AB
:10ABC000037B040033422BD0612385791D4017D1CC
:10ABD000FFF7B6FF18200DF0D0FC0E230700E35658
:10ABE00018220093637B2900019309F029FA019A46
:10ABF000009938000DF043FBA379A7603343A3719C
:10AC00006023A2791A4203D0A0680DF0F0F908E0A1
:10AC1000A268536950681B681840431E984100E0C1
:10AC20000048FEBD16FCFFFF10B501248379417377
:10AC30001C4004D080680DF0B3FB002007E06022C8
:10AC4000134203D080680DF0D9F9F6E7004810BD33
:10AC500016FCFFFF70B5040000250D4B0E000833F5
:10AC6000858085710360210018300BF05AFD2000AB
:10AC7000210020300BF078FD064BA680A571E57110
:10AC80002572E5602561656120001C6070BDC046CD
:10AC900024870200E82400208379DB0702D5C16005
:10ACA000002000E00048704716FCFFFF8379DB07B7
:10ACB00001D5C06800E001487047C04616FCFFFFA0
:10ACC00070B545690400002D21D0037A032B20D8EC
:10ACD000FFF7ECFFA8622C200DF04FFC2C22002186
:10ACE000050009F0ADF90023626953622369002B66
:10ACF00001D1226105E0596A002901D00B00FAE771
:10AD00005A62237A656101332372002002E002480F
:10AD100000E0024870BDC04617FCFFFF13FCFFFFB8
:10AD2000154B70B55A68154D002A03D000225A60A1
:10AD30000132AA601B69114E002B1CD000210E4B62
:10AD40000F4C19618023DB00F358012B0ED1A9238E
:10AD5000DB00F15820684942FFF79EFF2068FFF7AB
:10AD6000AFFF23685A69074BF25002E02068FFF7F3
:10AD700093FF0123AB6070BDFC1000400010004049
:10AD8000E82400200405000070B505000C000AF05E
:10AD90009BF9002804D1034B034AEC71D45000E026
:10ADA000024870BD240500000010004016FCFFFFA3
:10ADB000F8B5837905000020DB076FD40AF084F929
:10ADC000002868D16E69002E08D12C300DF0D5FB1B
:10ADD00004002C22310009F033F96C616B69002BFF
:10ADE0005BD000222E4B01215A608022D2051160D7
:10ADF0005A68002AFCD006222A4B2B4C9A562B4B21
:10AE00000026E2500722043BE2500833E650284A6D
:10AE1000284B2800E250E979FFF7B6FF012208210C
:10AE2000254B2648E6500433E250254B254FE15090
:10AE30000433E05002232448235024482750244F51
:10AE4000043827501827234827506F692248275075
:10AE5000C1208000215021498538FF380B500B60FC
:10AE60008021890063587138FF38034363501C4BBD
:10AE70005E6062605A68002AFCD000240126184BEC
:10AE800028001C61084B9E60FDF7AEFEAB792000E8
:10AE90003343AB7102E0134800E01348F8BDC046ED
:10AEA000FC0000405D950200001000400C05000011
:10AEB000746962751C0500002C0500002000040266
:10AEC00014050000FFFF0000340500003C050000F1
:10AED00021100100540500000405000000E100E01D
:10AEE000FC10004016FCFFFF13FCFFFF030000698D
:10AEF000002809D00221054AD167426A1A611A7AEC
:10AF0000013A1A72024B19607047C04604E100E032
:10AF100000E100E037B54C680500002C03D10C4976
:10AF20000AF0D0FB12E0636A01A84B602278211D71
:10AF3000033AA36A0AF0F1FB20000DF013FB01A90C
:10AF400028000AF0BFFB01A80AF0B5FB28003EBDAF
:10AF5000DC24002010B5002903DB024B19600DF042
:10AF600085F810BDEC24002070B504001E0004AB71
:10AF70001D7805F06DF820000E4B40302360FEF781
:10AF800071F9230001364C33013522001E701D7308
:10AF90000023E1214E32A3646365138053809381C3
:10AFA000D381013B200063644902FFF7D3FF2000F7
:10AFB00070BDC046C0850200F7B580277F053D699A
:10AFC0007C690822113C6C4306002100684608F0A9
:10AFD000ADFF104B009A9A4219D0009300230193C1
:10AFE00079693000133969430BF0D3FB019A00995A
:10AFF00030000BF0E6FB210030000BF0CAFB796952
:10B00000AB0813396943220030000BF0CCFB0198E8
:10B01000FEBDC046FECA0000F0B50D00ABB00D92FB
:10B0200000213022060012A80B9309F009F828002D
:10B0300009F0DAF9431C0C93102B00DDB6E00B9BF2
:10B04000202B00D9B2E0290030000BF0E7FB071EEF
:10B0500029D129000C9A12A808F068FF0D990B9AC3
:10B0600016A808F063FF80235B051F695A6930004A
:10B07000113A7A435D690D92FFF79EFF0D9B3022D6
:10B080000833002104001EA80F9308F0D9FF2900FF
:10B090001339794330000BF07CFB0F9B0B9300239B
:10B0A0000C930E9335E010300B9A0D9908F016FFB3
:10B0B000040038000DF056FA002C7AD0C9E70B993D
:10B0C00030221EA808F032FF12A91EA809F048F984
:10B0D000002822D1384930002200109111940BF041
:10B0E00070FB6A460B9B099315AB23CB23C223CB82
:10B0F00023C223CB23C23000149B1299139A0BF066
:10B100006EFB01230E930B9B30330B930C9B01338F
:10B110000C930C9BA342D2DB10E06A460B9B099375
:10B1200021AB23CB23C223CB23C223CB23C23000AA
:10B130001E991F9A209B0BF052FBE4E7E543302158
:10B14000ED1725404D430F9B5D190E9B002B1BD126
:10B15000B81E05F039FD84422AD017490134300069
:10B160002200109111940BF02CFB6A46099515AB47
:10B1700023CB23C223CB23C223CB23C2300012997B
:10B18000139A149B0BF02BFB0D9930000BF001FB75
:10B1900080235B0559690C236343133902337943D8
:10B1A0000D9A30000BF0FFFA002402E0034C00E09F
:10B1B000034C20002BB0F0BDFECA000017FCFFFFBF
:10B1C00013FCFFFF8023F0B55B051A6995B002926E
:10B1D0005A6905910299113A51435C69029B133CEB
:10B1E000050003915C43FFF7E7FE061E4ED00027E3
:10B1F000039B302208330021083408A8019308F08B
:10B200001FFF210028000BF0C4FA0497B74220DA90
:10B210000199302208A808F089FE059908A809F0CC
:10B220009FF8002809D11B49721E28000691079239
:10B230000BF0C7FA0123049306E022000C230199C6
:10B2400028000BF0B0FA3034019B01373033019302
:10B25000DCE7049B002B05D10E49320028000BF0DF
:10B26000B0FA13E0039928000BF093FA80235B05F2
:10B2700059690C23029A13394A4373431100280079
:10B280000233039A0BF08FFA002000E0024815B059
:10B29000F0BDC046FECA00000CFCFFFF70B5040004
:10B2A000A280FA22002308000C4992000831216094
:10B2B000A3716061E260A360638209490BF0AEFA9A
:10B2C000051E09D00100200010310222123008F0C2
:10B2D0002DFE28000DF046F9200070BD3C870200CD
:10B2E000D993020030B50225837987B004002B4240
:10B2F00004D1FDF779FCA3792B43A37120000BF057
:10B30000D1FA00282DD06B46DD1C28000BF0C1FAC5
:10B310002B78002B03D001A80BF0B9FA0FE0012223
:10B32000114B1A60114A5368002BFCD000220F4BBE
:10B330005A600F4B01321B6801930B4B5A6003227A
:10B34000019BD9170A40D3189B102382FDF7DAFE20
:10B35000E368A18818180123A0601A0002A80AF067
:10B36000C5F8002007B030BD00C00040FCC0004060
:10B3700008C50040022802D10122014B1A70704713
:10B380006729002070B5064C05002378002B04D1F6
:10B39000044802F00FFE01232370280070BDC04650
:10B3A0006829002075B3010070B50C0009F08CFE0F
:10B3B000002811D0164B0022A50A1C001A70280084
:10B3C0000BF084FA002803D00A200CF0E2FFF6E725
:10B3D0002378002BFCD019E0022180250D4B0E4A6A
:10B3E000ED00995080205959C0000029FAD0A121C0
:10B3F000084DC9006C5019580029FCD0002005499F
:10B4000088508021C9005A58002AFCD070BDC0461F
:10B410006729002000E0014004050000F8B50C0099
:10B4200015001E0009F050FE002812D0194B002212
:10B430001F001A703200290020000BF045FA002886
:10B4400003D00A200CF0A5FFF4E73B78002BFCD0DA
:10B450001EE00121104A114B944699508021C900E9
:10B460005A58002AFCD080270022FF008021C90002
:10B47000964207DD910068586050D9590029FCD0E8
:10B480000132F3E7002260461A505A58002AFCD0D5
:10B49000F8BDC046672900200405000000E0014017
:10B4A00008B4024B9C46443808BC6047D16802008F
:10B4B000F8B5FA230189DB000400594332480BF048
:10B4C000BAFCFA21890005F07FFB304F2081A17A78
:10B4D00038000BF0B0FC23002600250022894C33F5
:10B4E000A072A0361A808C35317800232A22286871
:10B4F0000AF03AFE002801D0254844E031781F23A5
:10B500005B2228680AF030FE0028F5D1317820232C
:10B510005C2228680AF028FE0028EDD1317801234A
:10B520002C2228680AF020FE0028E5D1317801237A
:10B530002D2228680AF018FE0028DDD13178012379
:10B540002E2228680AF010FE0028D5D1A17A3800F2
:10B550000BF06CFC3178C3B20E2228680AF004FEAE
:10B560000028C9D1FA2321899B00594306480BF0D2
:10B570005DFC01231843C3B231782A2228680AF0FF
:10B58000F3FD0028B8D1F8BD1488020094870200AA
:10B590000EFCFFFF08B4024B9C46443808BC6047D1
:10B5A000B1B40100074B10B51A00040008323C3357
:10B5B0000260436444300AF0C6F920000AF0F7F84C
:10B5C000200010BDB487020008B4024B9C464438EA
:10B5D00008BC6047A5B5010008B4024B9C4644383E
:10B5E00008BC6047DB680200F0B5042583798BB0A6
:10B5F00004002B4204D1FDF7F7FAA3792B43A37182
:10B6000020009030FFF7DAFA061E66D12300A0333F
:10B61000197820000C2307AD00938C302B000122F9
:10B620000068FFF77DF8002801D02E4E56E00A236F
:10B6300004AA9B182A785A706A781A700022995EB8
:10B64000AA785A70EA781A7000201A5E0392287954
:10B6500058706879187000201F5EA8795870E879D2
:10B6600018700022985E0490287A5870687A1870D2
:10B670000022985E0590A87A5870E87A18701F200A
:10B6800000229B5E039A9C46A37A52425A43594336
:10B69000D5177B430540AA185211A261DF17CA17BC
:10B6A00002403840C3185B11236264235118059A85
:10B6B0005B4253434911A3676423E1616146049AE5
:10B6C00020005A434B43E267221DD3670AF0DFF89C
:10B6D000200044300AF03EF900E0002630000BB0B4
:10B6E000F0BDC0460EFCFFFF08B4024B9C46443838
:10B6F00008BC6047E9B50100F7B51E00040008ABBF
:10B700001B881500019309AB00911A8831000AAB20
:10B710001F88FDF761FF20003A0031004430FEF73A
:10B72000B5F9144B20001A003C336364230008323F
:10B730002260009A8C331A60AB8890308380AB799A
:10B740006A4683710C4B92880360AB680321836067
:10B750002B7B03736B7B43730E23EB5683732300A6
:10B76000A0331A80FFF760FA2000FFF7A1FE200047
:10B77000FEBDC046B487020010860200F8B5FA2666
:10B780000189B6000400714326480BF054FB3100D8
:10B7900005F01AFA244F2081A17A38000BF04BFBF8
:10B7A0002500A0725835297800232A22606C0AF0FF
:10B7B000DBFC002801D01D4832E0297810232B2221
:10B7C000606C0AF0D1FC0028F5D1297801232D22E4
:10B7D000606C0AF0C9FC0028EDD1297801232E22E3
:10B7E000606C0AF0C1FC0028E5D1A17A38000BF0AA
:10B7F0001DFB2978C3B20E22606C0AF0B5FC00284C
:10B80000D9D12189074871430BF010FB012318435C
:10B81000C3B229782A22606C0AF0A6FC0028CAD19B
:10B82000F8BDC046B08802005C8802000EFCFFFF35
:10B8300010B50400034B0833036009F0B8FF200083
:10B8400010BDC0467C8802007FB5042583790400C2
:10B850002B4204D1FDF7C8F9A3792B43A371200033
:10B860004830FFF7ABF9051E24D12300583319786F
:10B87000062302AE009301223300606CFEF750FFF6
:10B88000002801D00D4D16E0042302200022A17AE9
:10B89000F3563056B2564B43C0004A4340424143F0
:10B8A000DB0023622368D200A161E2619B6A200071
:10B8B000984700E00025280004B070BD0EFCFFFF93
:10B8C000F8B50400150006AA168807AA0F0012880A
:10B8D0001900FDF781FE0F4B6764083323602300D6
:10B8E000AA8848339A80AA7920009A710A4AA264E9
:10B8F000AA6822652A7B1A736A7B5A730E22AA569B
:10B900009A730023A371230058331E80FFF736FF7C
:10B910002000F8BD7C8802001086020010B50400EB
:10B92000034B083303600AF00EF8200010BDC04638
:10B93000B888020070B50825837986B004002B42D0
:10B9400004D1FDF751F9A3792B43A37120004C30AA
:10B95000FFF734F9002830D023005C331978062330
:10B9600004AE009301223300A06CFEF7D9FE051E41
:10B9700001D0134821E00E2332786B445A7072785C
:10B9800020001A700022995E64224A43A263B278B2
:10B990005A70F2781A700022995E64225242514322
:10B9A0006163317959707179197000215B5E5A4376
:10B9B0002368E2631B6A9847280006B070BDC04642
:10B9C0000EFCFFFFF0B507005C3787B00400397844
:10B9D00000231022806C0AF0C7FB0326002807D042
:10B9E0001F483AE02B78334211D06420FDF798F9D4
:10B9F0000F2502ABED180123397808220093A06CC3
:10BA00002B00FEF78DFE164B9842EBD1E8E7FA25A6
:10BA10002189144EAD00694330000BF00CFA290067
:10BA200005F0D2F820813978A0231122A06C0AF009
:10BA30009BFB0028D4D1A36C218903936943300078
:10BA40003F780BF0F3F901231843C3B210223900F9
:10BA500003980AF089FB0028C2D107B0F0BDC046A8
:10BA60000EFCFFFF3C890200F8B50400150006AA91
:10BA7000168807AA0F0012881900FEF707F80D4B69
:10BA8000A764083323602300AA884C339A80AA79DC
:10BA900020009A71084AE264AA6862652A7B1A73D8
:10BAA0006A7B5A730E22AA561E829A73FFF78AFF88
:10BAB0002000F8BDB888020010860200F7B5FA250C
:10BAC0000189204FAD000400694338000BF0B3F941
:10BAD000290005F079F8A17A20811B480BF0ABF919
:10BAE0002600636CA072009321895836337869432D
:10BAF000380001930BF09AF907231843C3B22022B0
:10BB0000019900980AF030FB002801D00F4818E096
:10BB1000317810232222606C0AF026FB0028F5D130
:10BB2000A17A0948656C37780BF080F980235B4275
:10BB30001843C3B22322390028000AF015FB00285D
:10BB4000E4D1FEBDE8890200C08902000EFCFFFFBF
:10BB500010B50400034B0833036009F028FE2000F1
:10BB600010BDC04644890200F0B50425837985B034
:10BB700004002B4204D1FDF737F8A3792B43A371BE
:10BB800020004830FFF71AF8002832D0230058333D
:10BB90001978062302AE0093A8223300606CFEF7EA
:10BBA000BFFD051E01D0144823E01F200023F25ED4
:10BBB000D31703409B180222B15E5B11CA170240E3
:10BBC00052180427F15F3380CF17384040184111D5
:10BBD000A07A5B4243435211728052424243B18089
:10BBE0004143E3612368A26121629B6A2000984778
:10BBF000280005B0F0BDC0460EFCFFFFF8B50400FC
:10BC0000150006AA168807AA0F0012881900FDF76A
:10BC1000E3FC0F4B6764083323602300AA88483392
:10BC20009A80AA7920009A710A4AA264AA682265B9
:10BC30002A7B1A736A7B5A730E22AA569A730023C0
:10BC4000A371230058331E80FFF738FF2000F8BD92
:10BC50004489020010860200F7B5FA250400018924
:10BC6000134EAD00694330000BF0E5F8290004F0F5
:10BC7000ABFF2700A36C208100935C373B7881B237
:10BC80006943300001930BF0D1F86022C3B20199EF
:10BC900000980AF069FA002801D0064807E03978D0
:10BCA00001236222A06C0AF05FFA0028F5D1FEBDE4
:10BCB0003C8A02000EFCFFFF10B50400034B083362
:10BCC000036009F040FE200010BDC046F08902006C
:10BCD0007FB50825837904002B4204D1FCF784FF4B
:10BCE000A3792B43A37120004C30FEF767FF002897
:10BCF00022D023005C331978062302AE0093E82299
:10BD00003300A06CFEF70CFD051E01D00B4813E0BC
:10BD10000223F25E96235B425A4362630021725E05
:10BD200020005343A3630423F25E96235343E3634B
:10BD300023681B6A9847280004B070BD0EFCFFFF03
:10BD4000F8B50400150006AA168807AA0F00128885
:10BD50001900FDF79BFE0D4BA764083323602300F9
:10BD6000AA884C339A80AA7920009A71084AE26422
:10BD7000AA6862652A7B1A736A7B5A730E22AA56D6
:10BD80001E829A73FFF768FF2000F8BDF089020059
:10BD90001086020010B50400054B083303601C3008
:10BDA00009F0FAFA2000183009F0F6FA200010BD68
:10BDB000448A0200FF23F0B52B4C8DB02370002382
:10BDC000050069460088009303F032FA002802D18A
:10BDD0006B469B782370254E3368DB68002B06D1B9
:10BDE000002328881A0019000AF0E7FD3AE02378BA
:10BDF000032BF5D81E4901A8FDF7C8F9336801A93E
:10BE0000DE6804A809F01DFB04A930000AF033FD28
:10BE1000060004A809F0C0FA371E1ED03100202207
:10BE2000103104A808F082F830000CF09BFB217858
:10BE300004ABC9005918082202A808F077F828882E
:10BE40000123082202A90AF0B8FD0127002804D125
:10BE50002888084A0C210AF0AEFD01A809F09CFAD6
:10BE6000002FBDD00DB0F0BD80200020F0240020B8
:10BE700064940200FFFF0000F0B5837991B00400E4
:10BE80005B071BD5FDF73EF900232269801A994113
:10BE9000994203D1F423FF3398420FD9A0680028B8
:10BEA00008D0364B1D8801F055F9036815221B6A2E
:10BEB000290098470422A3799343A371A3799B0790
:10BEC0005AD52F4D2B68DB68002B51D02D4B1A789B
:10BED0000193032A4CD8294B2B491B8804A80093B3
:10BEE000FDF754F92B6804A9DE6808A809F0A9FA3F
:10BEF00008A930000AF0BFFC070008A809F04CFAB6
:10BF000002AB9E1D08233200338006A9073B009830
:10BF10000AF055FD002F08D039002022103108A862
:10BF200008F004F838000CF01DFB019B32881B78E8
:10BF300006A9DE0008AB9E19300007F0CFFF0028ED
:10BF400013D0082206A9300007F0F0FF2B6804A9DF
:10BF5000DD6805A809F075FA202308AA05A92800BC
:10BF60000AF08FFC05A809F017FA04A809F014FAE2
:10BF70000222A3799343A37111B0F0BD10290020D0
:10BF8000F02400208020002064940200F7B5040013
:10BF900000250192C77FAF4254D966197078884254
:10BFA00002D1152927D804E0605D2D180135EDB2C6
:10BFB000F1E701228A40264802421CD0D91901200B
:10BFC0001F2943DCE1193718B94210D80021C8B243
:10BFD000834205D9019A7018575C01318770F6E7E2
:10BFE000625D9A186255E27F9B18E37728E0087833
:10BFF000C8540139E8E7655D013DEDB2AB4209D1B6
:10C000000021C8B283421BD9019A7018545C0131D7
:10C010008470F6E7FF187F1B01201F2F16DC022714
:10C02000A81C7F4236187F1BE07F2218964203D25D
:10C030003078F0550136F7E7451B023DE57701E022
:10C04000002003E0019A20000AF003FDFEBDC04677
:10C05000FC002000F0B585B001930AAB1E880BAB45
:10C060001B78451C02930EAB1B78040003930B78DE
:10C07000170003704B8A102243820131280007F019
:10C0800055FF6B469B88268363836B461B7B00268C
:10C0900023776B4601221B7A6761E683EB77A31C4B
:10C0A000DA770C9B0C256362230020000D9A28335D
:10C0B0001A705E709E702A0031002C3007F0C0FFAD
:10C0C0002000074BE663A3632A003100403007F0ED
:10C0D000B7FF2000034B2665E36405B0F0BDC04602
:10C0E000D5690200C769020070B50D0001F032F891
:10C0F00004000368002D02D15B69984708E09B6843
:10C100009847854204D2236820009B689847050021
:10C11000FA2080006843024904F056FDE08070BDBB
:10C1200071020000F0B507001600A1B002C70400BC
:10C130006B4918A81D000AF0BEFC331E03D0300066
:10C1400008F052F983B20122049200220392029273
:10C15000023201920093320018A93800FFF77AFFEB
:10C1600023006049583318A807930AF0A4FC2B1E3B
:10C1700003D0280008F038F983B20122049200228B
:10C18000039202920232019200932A0018A90798A2
:10C19000FFF760FF23005449AC3318A808930AF056
:10C1A0008AFC269B002B03D0180008F01DF983B2EF
:10C1B0000122049200220392029202320192009321
:10C1C000269A18A90898FFF745FF631CFF334749D3
:10C1D00018A809930AF06FFC279B002B03D01800C6
:10C1E00008F002F983B2012204920022601C03923B
:10C1F0000292023201920093279A18A9FF30FFF7AA
:10C2000029FF23005533FF33394918A809930AF051
:10C2100052FC289B002B03D0180008F0E5F883B2ED
:10C2200001220492002203920292023201920093B0
:10C23000289A18A90998FFF70DFF2300A933FF33A7
:10C240002C4918A80A930AF036FC299B002B03D02E
:10C25000180008F0C9F883B201220492002218AD38
:10C2600003920292023201920093299A29000A98BD
:10C27000FFF7F0FE204B1B780B93002B2DD1079B73
:10C2800012971393089B0DAF1493631CFF33159300
:10C29000099B1A4916930A9B380017930AF00BFC66
:10C2A0001D2149203B7810222B707B8A12AE6B82B5
:10C2B00006ABC918C01807F039FE06232B756B466C
:10C2C0009B8D2068AB83AE6100F054FF03682900AA
:10C2D0001B6898470122084B1A70200021B0F0BD5E
:10C2E000292A0000242A0000252A0000272A00000D
:10C2F000262A0000282A0000692900200A180000C8
:10C3000070B5002504000B4B8580083385710360F0
:10C31000C1601830FCF7A6FF20001C30FCF7A2FF1C
:10C320000123621CD377044AA56065612000146074
:10C33000A37170BD448A0200F0240020FA2130B5B8
:10C3400085B00500012302228900684609F0CEF875
:10C35000074C2068002809D00AF0E6FB2988054B25
:10C3600022681980022193790B43937105B030BD87
:10C37000F02400201029002010B50C0007290BD84C
:10C38000806800F0E7FE054B195703685B6C98471F
:10C39000002802D0024800E0024810BD5D9502006E
:10C3A00016FCFFFF17FCFFFFF0B5A24C0D00A544E3
:10C3B000040007939AAB1B789F4909A8049306923F
:10C3C000FCF7E4FE200029001C3009F042F8C020F0
:10C3D000800001F0E5FD08200CF0CFF807000021F7
:10C3E00000F080FE15AD0021A7600C220EA807F01A
:10C3F00027FE2B000EAA43CA43C3904B2900EB60D3
:10C40000002338002B610AF077FDA06800F0A2FE3F
:10C410000C2200210590280007F012FE14200CF0D9
:10C42000ACF8874B2A0015930300C2CAC2C3854BE0
:10C43000059EC3600023A43603613368002B00D03F
:10C4400003613060A06800F095FE0C220021060018
:10C45000280007F0F5FD14200CF08FF87A4B1593A7
:10C46000030086CD86C3794BC36000230361336B21
:10C47000002B00D003613063A06800F06BFE15ADA7
:10C480000C2200210600280007F0DAFD14200CF031
:10C4900074F86F4B98361593030086CD86C36D4BA9
:10C4A000C360002303613368002B00D003610125C2
:10C4B00004AB1B7C04AA2B43306008A9280013742A
:10C4C0000AF07FFAA06800F065FE036862495B6AC3
:10C4D0009847A06800F05EFE036860499B69984732
:10C4E000A06800F057FE00230268009316680499C4
:10C4F0002A00B047049B002B0AD020000AF01DFB45
:10C50000032805DDA06800F045FE0368DB68984756
:10C510000EA80AF095FA2F2004ABC0180AF090FA82
:10C52000362004ABC0180AF08BFA3D20042504AB7A
:10C53000C0180AF085FA0EAB0A93A06804AB5D77C9
:10C5400000F028FE03680AA91B699847A06800F05C
:10C5500001FE03680AA95B6D9847A06800F0FAFD28
:10C5600003680021DB6D9847A06800F0F3FD0368C5
:10C5700002219B6D984700212000FFF7FDFE182047
:10C580000BF0FBFFA16800F04DFA354B354A1B68F4
:10C59000A1680393344B15A81B680CAE0293334B70
:10C5A00000271B680193069B1B685B190093304BA7
:10C5B00012681B68FFF7B6FD30200BF0DEFF079A0C
:10C5C000A16800F0EDFAA06800F0C4FD0368310036
:10C5D0009B6A98470823A0683380DB187380B78074
:10C5E00000F0B8FD03683100DB6A98472900A068B5
:10C5F0000AF06DFA099A09219378A06852190AF095
:10C6000079FAA06800F0A6FD32210771A068FFF753
:10C610006BFD04AB1B7FBB4204D0A06800F09AFD09
:10C620000AF03FFA09A808F0B7FE95239B009D4445
:10C63000F0BDC046ACFDFFFF70940200E36902004C
:10C640003DC30100F1690200B5BD0100FF690200B0
:10C650002D6A02000D6A020075C60100A9C601001C
:10C66000F8240020F42400200C200020FC240020CA
:10C670000820002013B506226846FCF7C9FD094BC7
:10C680001C68002C0AD0694601A808F0DAFE2000D8
:10C6900001A90AF073FA01A808F07EFE684608F0C6
:10C6A0007BFE13BDF0240020002373B501AE0C0007
:10C6B00031000500019302F0BBFD002802D1B278E1
:10C6C000064B1A70064B1868002806D0614261417B
:10C6D000044BC9B21D800AF059FA73BD80200020B6
:10C6E000F02400201029002030B5284CA9B06A227F
:10C6F0000D000DA8210007F019FC0DA903A8FCF7F7
:10C70000E5FD03A906A808F021FF01230193013BE1
:10C71000FF3B00930533FF33642206A92800FDF791
:10C72000A7FF06A808F005FF210019226A3106A814
:10C7300007F0FCFB05220024110006AB04A808F05A
:10C740002CFF04A905A808F001FF01940094230020
:10C75000220005A92800FDF7F5FE05A808F0E9FE6E
:10C7600021002800FDF7B2FF05340520FCF7D8FAB8
:10C77000FF2CF5D1FA208000FCF7D2FA04A808F0CB
:10C78000D8FE03A808F0D5FE29B030BDE193020021
:10C79000F0B59B4B95B005921A68082304000291EE
:10C7A000D16C06A80B43D3649649FCF7EFFC96497D
:10C7B00007A8FCF7EBFC220000250DAF38001C3267
:10C7C00006A908F065FE07AA390008A808F060FE6F
:10C7D000380008F0E1FD631CDD77A06800F0BAFCCA
:10C7E00003680BAE5B69984738000AF029F92B20E3
:10C7F00004ABC0180AF024F9322004ABC0180AF0C8
:10C800001FF9392004ABC0180AF01AF90423A068F4
:10C8100073710B97357100F09DFC036831005B6DFF
:10C820009847A06800F096FC036829009B6D984724
:10C83000A06800F08FFC070006000A371F222900BD
:10C84000380007F0FDFBFD7730000AF021F90621E2
:10C85000A0680AF03CF9089A09219378A06804328C
:10C860000AF048F9A06800F075FCC8210571A068BD
:10C87000FFF73AFCA06800F06DFC0581A06800F0AD
:10C8800069FC0AF00EF90298FDF75CFD2000FCF748
:10C89000ABF902992000FFF727FF029920000AF068
:10C8A00088F90423FF27039504936369DB0735D5D3
:10C8B000564909A8FCF786FD09A90AA808F046FE12
:10C8C00000220AA91300019200920298FDF73AFE95
:10C8D0000AA808F02EFE039B002B01D1043F00E0C4
:10C8E0000437282F03DD0023FE2F06DC06E0029824
:10C8F00009F02DFC0123002F00DC0393059809F0BB
:10C900000EF8002806D0012362699A431300049AA6
:10C910001343636109A808F00CFE00256369049ABB
:10C9200013422AD0FF210298FDF7D0FE0025A3690B
:10C9300002229B5E9D421BDA200029B2183008F0CB
:10C94000BDFD0023010002981A007430FCF78CFD35
:10C95000C8208000FCF7E4F9029809F0F8FBC82031
:10C96000FCF7DEF902226369134201D10135DEE7EB
:10C97000FA208000FCF7D4F90025022263691342F3
:10C9800033D008261E401AD0214909A8FCF71AFD09
:10C9900009A90AA808F0DAFD00220AA9019200926A
:10C9A00013000298FDF7CEFD0AA808F0C2FD194851
:10C9B000FCF7B6F909A808F0BCFD174D15E01749BA
:10C9C00009A8FCF7FFFC09A90AA808F0BFFD33007D
:10C9D00032000AA9019600960298FDF7B3FD0AA855
:10C9E00008F0A7FD09A808F0A4FD6420FCF798F959
:10C9F0000B4B01359D4200DC57E708F077FB54E70D
:10CA0000502400207E9402008E9402009094020034
:10CA1000D5940200983A00008C0A0000129502009A
:10CA20008B0A0000F0B505000024574BA9B008336D
:10CA300003600391A96021000BAB1A1901345170F6
:10CA4000102CFAD1012251481A701A1B013C015DC9
:10CA50005174002CF9D19A7B597B12020A432900A8
:10CA600045270C31029125211B7813AE337002ABA0
:10CA7000FF18C91872823800102207F057FA029B7B
:10CA800002AA73610123338333770933FB771DAB2C
:10CA90001C706D239B181C706E2321009B187483DF
:10CAA0000C22F4831EA81C70746207F0C9FA384B7C
:10CAB0000C22B3632100F46323A807F0C1FA354BBD
:10CAC0000322F364462302A95B18DA772200346557
:10CAD0002C73059606AF3B1901345A70102CFAD10D
:10CAE00001232D493B703B1B013C0A5D5A74002C0D
:10CAF000F9D111212520BB7B7A7B1B020BAE13439E
:10CB00003A78738202ABC9183270C018102207F04D
:10CB10000DFA01230398337505ABB361B48300F0BC
:10CB200029FB036831001B68984713ABDB8BA868AF
:10CB3000AB8200F01FFB03680094A98A029ADE68AA
:10CB40000123B047A86800F015FB029014200BF0F9
:10CB500014FD06000C22210007F072FA30000123B8
:10CB60003461082220C039000793069407F0DEF9EB
:10CB70000A4BF360029B9B69002B00D033612800B5
:10CB8000029B9E6129B0F0BD5C8A0200759502008F
:10CB9000D5690200C769020065950200156C0200A4
:10CBA000F0B500260400764BDDB0083303608160E9
:10CBB000C260868086713200724947A80AF0CAF8BE
:10CBC0002300143308931223012501930E3B04958F
:10CBD0000093089A330047A9039602961DA8FFF711
:10CBE00039FA3200684947A80AF0B4F80C23220049
:10CBF0000193083B15AF10320495009347A9330009
:10CC00000396029632A8FFF725FA32005F493800F2
:10CC10000AF0A0F823001C33099308230193043B76
:10CC2000390004950093099A33000396029647A8A9
:10CC3000FFF710FA3200564938000AF08BF85420FA
:10CC40000BF09BFC230018330793122301930E3B38
:10CC5000390004950093079A3300039602960690D4
:10CC6000FFF7F8F9069B0822A3624A4B0AA90A9328
:10CC7000069B0B961800DC62303007F057F9069AD5
:10CC8000454B268293631300668229331D70236906
:10CC90000422E3610999079807F048F904220799EB
:10CCA000089807F043F96622032304A95218D377A2
:10CCB000BA225218D377872252005218D377069A95
:10CCC00036490232D3771DAB0C9332AB0D9347AB91
:10CCD0000E93069B3200A68510A80F930AF03AF82F
:10CCE00030223121452004AB9B181B7812323B7057
:10CCF00004AB9B181B88323A7B8204ABC918C0185E
:10CD000007F014F904230CADA0683B75BD61BE8328
:10CD100000F030FA036839001B689847822204ABA0
:10CD20009B181B885432238404AB9B181B885432F5
:10CD3000A38404AB9B181B88A068638400F01AFAD4
:10CD4000070014200BF019FC05000C22310007F03D
:10CD500077F92800124B2E61082210C010A91093F9
:10CD6000119607F0E3F80F4BEB60BB69B34200D0BC
:10CD70002B61BD612000FBF737FF20005DB0F0BDE7
:10CD8000688A020095950200C5950200B5950200DB
:10CD900085950200276D0200936C0200A5950200A4
:10CDA00011CE0100BD6C0200F0B504000E001500AC
:10CDB00085B000930CAB1B881030019308F08BFBFF
:10CDC0002680658018200BF0D8FB070002AE3300E8
:10CDD0003D000AAA03CA03C3009B102208C5002114
:10CDE000280007F02DF931000822280007F09EF8EE
:10CDF000064B02227B61200000230199A7600A43B1
:10CE0000E360A2802362636205B0F0BDE76C0200BC
:10CE1000F0B50B898DB00593CB68050004934B8862
:10CE2000828C9A420ED1049C059B049A1B1BD3183A
:10CE3000032B39DD62882188012308A808F056FBFE
:10CE40000434F1E7428C9A422ED1049C059B049A4B
:10CE50001B1BD318032B27DD238828200693638808
:10CE6000EF680793114B0893002309930BF085FBA0
:10CE7000C0236A460600029308AB03CB03C22B0013
:10CE80000699079A3000FFF78FFF3B6831005B6817
:10CE900038009847002805D0300008F033FA3000F9
:10CEA0000BF060FB0434D1E70DB0F0BDA76D0200BC
:10CEB00070B5040090B0806809F070FF0223010093
:10CEC00019401AD1A38D002B17D00D4B6A4604933D
:10CED0001023E568A1850591029304AB41CB41C2C3
:10CEE0000A00230006A8FFF75FFF2B6806A99B68CE
:10CEF0002800984706A808F005FA10B070BDC04693
:10CF0000A76D0200002815D0006041608260C360F8
:10CF1000046145618661C761444604624C464462CF
:10CF2000544684625C46C462644604636E4646634B
:10CF300074468463002A06D0C46B043C043A256816
:10CF40001560B442F9D18C6BA6464E6BB546002BEA
:10CF500006D0CC6B043C043B1D682560B442F9D17B
:10CF60000C6BA446CC6AA3468C6AA2464C6AA146C6
:10CF70000C6AA046CF698E694D690C69CB688A68D6
:10CF8000086849687047006041608260C36004615E
:10CF900045618661C761444604624C46446254461A
:10CFA00084625C46C462644604636E4646637446AB
:10CFB0008463C46B043C043925680D60B442F9D124
:10CFC000C76986694569046970470060416082608D
:10CFD000C360046145618661C761444604624C4692
:10CFE0004462544684625C46C462644604636C4690
:10CFF00044637446846304697047846BA646446B3B
:10D00000A546046BA446C46AA346846AA246446A41
:10D01000A146046AA046C769866945690469C36870
:10D02000826800684168704710B5041E0DD007F093
:10D03000DBF9230001382018834208D21A780178DE
:10D040000138197042700133F6E7024800E0002011
:10D0500010BDC04617FCFFFFF0B585B001900C1E57
:10D0600028D00027C217161A56407D1C6319029358
:10D070003000013B0A21039303F016FFCB17C918B8
:10D080005940039B3031197030000A2103F026FE0D
:10D09000061E01D02F00E8E7019B002B03DA2D23A9
:10D0A000029ABD1C1370002620006655FFF7BCFFD6
:10D0B000300000E0014805B0F0BDC04617FCFFFF9E
:10D0C0000CC8074810B51B18DB00D3181800934292
:10D0D00005D31C688C4202D31800083BF7E710BD4B
:10D0E000FFFFFF1F002370B50400016043609942F9
:10D0F0000AD1064D2B68002B02D10AF02FF92860C7
:10D1000023689B00EB586360200070BD0C25002055
:10D1100070B500280DD10C4C2668002E07D10830C0
:10D120000BF02BFA05003100FFF7DCFF25602068CB
:10D1300008E00122054906480B68134002D102604D
:10D1400043600A6070BDC046002500201025002005
:10D1500004250020436810B50400002B02D10448C8
:10D160000BF05FF8606803681B69984710BDC04604
:10D17000D5950200436810B50400002B02D1044885
:10D180000BF04FF8606803689B69984710BDC04674
:10D19000D5950200436810B50400002B02D1044865
:10D1A0000BF03FF8606803685B6A984710BDC046A3
:10D1B000D595020000487047FFFF0000F0B597B01A
:10D1C0000593036807AD1B680491039311002B00BE
:10D1D000060091C991C30024D36821000C220CA839
:10D1E000EB602C6106F02CFF21000B4B10940F9389
:10D1F00011AB1C701A1901345170102CFAD1002295
:10D200005A820193059B2A00009304990CAB3000CD
:10D21000039CA04717B0F0BD45700200FC3070B50C
:10D22000046C0500002C0DD124200BF0A6F9064B50
:10D2300044608361054B8460C46004614461C461DF
:10D2400003602864286C70BD548B02003C8C020083
:10D25000FC3070B5C56B0600002D16D134200BF0E4
:10D260008CF904003422290006F0EAFE084BA56080
:10D270006360084B65612361074B2562E361074BDF
:10D28000E562A362064BF4632360F06B70BDC04699
:10D29000848B0200748B0200E48B0200F48B02008A
:10D2A000048C02007FB503791548002B26D0154D5C
:10D2B000154C2B782000002B20D102AE300009F055
:10D2C0009EFE002814D17388592B11D13378B2886F
:10D2D000D91F012902D800920C4A01E000920C4AA1
:10D2E0002021200006F0FAFF01232B70200005E02A
:10D2F00020220849200007F0ABF8F7E704B070BD22
:10D30000F89502006A2900206B290020129602007D
:10D310002F9602005496020010B50400024B08C07C
:10D3200009F0FFFE200010BDF48B020010B50400D0
:10D33000024B08C009F0F5FE200010BD948B0200DE
:10D3400010B50400024B08C009F0EBFE200010BD30
:10D35000848B020010B50400024B08C009F0E1FE06
:10D36000200010BD748B020010B50400024B08C0F1
:10D3700009F0D7FE200010BD648B020010B5040038
:10D38000024B08C009F0CDFE200010BDA48B0200A6
:10D3900010B50400024B08C009F0C3FE200010BD08
:10D3A000548B020010B50400024B08C009F0B9FE0E
:10D3B000200010BDA88A020010B50400024B08C06E
:10D3C00009F0AFFE200010BD988A020010B50400DD
:10D3D000024B08C009F0A5FE200010BD888A02009B
:10D3E00010B50400024B08C009F09BFE200010BDE0
:10D3F000B88A020010B50400024B08C009F091FE83
:10D40000200010BDE48B0200FC3070B5046C0500F8
:10D41000002C0DD124200BF0B0F8064B4460836142
:10D42000054B8460C46004614461C4610360286486
:10D43000286C70BD548B02003C8C0200104B10B560
:10D44000083303600F4B0400C36080230E4A5B0067
:10D45000C250C018FCF74CFE20000C4BB830E36003
:10D46000FFF7BEFF2000AC30FFF79CFF2000A0308C
:10D47000FFF7A2FF20006C30FFF7A8FF200010BDCF
:10D48000688C0200E08C0200088E0200C88A02004C
:10D49000F0B50500040087B0AC356B68AB60AE68D2
:10D4A000002E08D0F368210030009847AB68002BAD
:10D4B000F3D01B69F2E72000B03009F032FE220001
:10D4C000FC235832117820000B40137023005C338A
:10D4D0001E700A3009F039FF2000343009F035FFA2
:10D4E0002000643009F01DFE2000983009F019FE7C
:10D4F000200001ADA43009F014FE31000C222800F8
:10D5000006F09EFD23002A006C3383CA83C3094BB7
:10D51000E667A3670C223100280006F091FD230086
:10D52000803307CD07C33000034A90341A60266069
:10D5300007B0F0BD297002001B700200454AF0B52B
:10D540000600C260A022444B163608330360010077
:10D55000002342820400320085B0037183600374AB
:10D56000838235311370013200259142FAD1802730
:10D5700080222000D201BF001100F57737842B00F4
:10D580000095383000F024FF23002100403303933E
:10D590001A002B005F311370013200258A42FAD144
:10D5A000039B2200DD77230060331F80FC2364325D
:10D5B000117820000B401370230068331D70274B37
:10D5C0002900E36625670C22783006F039FD230038
:10D5D000270088331D60224B0837FB6784372900FA
:10D5E0000C22380006F02CFD1E4B1F4AFB60230066
:10D5F000A0333D611A601D4A5D60DA601C4A1D61FE
:10D600009A61DD61300009F0A0FE039809F09DFEEB
:10D61000184B601CE3602300C4331D705D709D7067
:10D62000FF3002F04BFD8C235B00E55023001933E3
:10D63000FF335D618023104A5B00E250230001222A
:10D640002000FE3352425A86023B9D63DD631D6417
:10D6500005B0F0BDC88A0200688C0200888A02000A
:10D66000297002001B700200988A0200A88A02003A
:10D67000B88A0200E08C0200088E020070B5074CE8
:10D680002368002B07D1A02040000AF076FF050098
:10D69000FFF754FF2560206870BDC04614250020A8
:10D6A00070B50C220D000021040006F0C9FC002317
:10D6B0002361024B25602000E36070BD37700200DB
:10D6C00070B500250400264B05710360254B45719C
:10D6D0008360254BC5604361244B85610362244B05
:10D6E0004562C362234B05638363C56329004430ED
:10D6F000FFF7D6FF200029005830FFF7D1FF2000A8
:10D7000029006C30FFF7CCFF1B4B22002360230065
:10D71000F832803320C39342FCD126001D00E93645
:10D72000FF36280008220021083506F089FCAE42A9
:10D73000F7D18E22330000209200A11801C30022ED
:10D740009942FBD18E239B00E2540C490C4B61188B
:10D75000E3181A8002339942FBD1200070BDC04605
:10D76000B48B0200648B0200748B0200848B020075
:10D77000948B0200A48B0200B08C020062020000B5
:10D780003A02000013B504680093A46813000A006D
:10D790000149A04716BDC046FFFF000037B506ACE3
:10D7A0002578046801950093246913000A00014953
:10D7B000A0473EBDFFFF0000F0B589B00193070010
:10D7C0000FAB0D0016000021082202A81C7806F0FD
:10D7D00037FC0EAB1B8802AA1380019B0393002C1D
:10D7E00006D03100280009F02FFE002841D154E076
:10D7F0003B007A79F833A2423DD908331900083941
:10D800000988B14208D130222034A400E359013301
:10D81000DB7F134202D12EE00134ECE7022200202C
:10D82000DB06DB0F04ACD31AA370019B2680E360F8
:10D830000EABA3601A4BA0809D4207D1FFF71EFFDD
:10D8400003681B6998470AF0DDFA050021002800EB
:10D8500009F0FEFD80B200281FD011281CD013D87B
:10D86000082817D002AA3100280009F0EDFD002891
:10D8700012D0032011E002AA3100280009F0E4FDD3
:10D880000028F6D1063008E0064B984204D0064B3B
:10D890009842E7D1062000E0052009B0F0BDC0465F
:10D8A000FFFF00000330000001340000F0B5050068
:10D8B00097B008002E240B9100F050FA04ABE41846
:10D8C0001090220010A9012009F0BCFD002801D011
:10D8D0000320D4E023880B9A0A9093830B9B0A9A27
:10D8E0001B7D934250D96B791D2B01D90720C6E0CF
:10D8F0000B9B9B690C930A9B0C9A9B009C58636939
:10D90000002B46D1638B002B43D1631CDB7F022BA2
:10D910003FD134E06979A31C1F31C9006918621C2A
:10D92000DB7FD27F089121002A31097800200791FE
:10D9300021002931097806910D9905910C990491DE
:10D94000217F0391218B0291618B0191616900918B
:10D9500010A909F0B4FF0028BAD16B7907001A00AA
:10D96000203292001F335451DB005B5BE3836B7901
:10D9700001336B71230028331B78BB4237D80A98D8
:10D980000130C3B20A93A9E72B79002001332B7130
:10D9900075E0200000F0E2F9002610900D960C963C
:10D9A000230028331B78B342B4D9626AB3009F586E
:10D9B000342204AB9B1800221A700023002111AA04
:10D9C000D21801335170102BF8D1462204AB9B18AA
:10D9D0002C4A11A938001A8009F0BEFD002803D096
:10D9E0007B690C937B8B0D93731CDEB2D8E78E237F
:10D9F0009B00EB5C132B00D978E7626ABB009E5852
:10DA00000023180011A90B70CA1801335070102B95
:10DA1000FAD11C4B30004B8209F09EFD0C9000287F
:10DA20002AD1300000F09AF98E229200AA5C738B02
:10DA30001D32FF325200AA1802320292327F109039
:10DA40000192328B10A9009272690C980AF014F8B6
:10DA5000002800D03CE78E238E219B00EA5C8900E1
:10DA6000531CDBB26B541D337A32FF3392005B00E0
:10DA70005651EB185B88F383781CC7B27AE717B06E
:10DA8000F0BDC0460129000070B5050009F08BFC0F
:10DA9000041E1CD1280078222100803006F0D0FA24
:10DAA0002800E93050222100FF3006F0C9FA280092
:10DAB00008222100F83006F0C3FA064B2822E818A5
:10DAC000210006F0BDFA8E239B00EC5400E00624F2
:10DAD000200070BD3A0200000B68002B01D10360EA
