:020000021000EC
:1080000000400020E1FF01001D0002001F000200EF
:108010000000000000000000000000000000000060
:10802000000000000000000000000000210002002D
:1080300000000000000000002300020025000200F4
:108040002700020055AE01009D0602002700020035
:108050002700020000000000590002002700020073
:10806000270002007908020025050200270002000F
:10807000270002002700020027000200270002005C
:10808000270002002700020027000200270002004C
:108090002700020071E4010041F201002700020004
:1080A000270002002700020000000000000000007E
:1080B00000000000000000000000000000000000C0
:1080C000054B0648033310B51B1A062B03D9044B86
:1080D000002B00D0984710BDC4200020C4200020F1
:1080E000000000000648074910B5091A8910CB0F97
:1080F0005918491003D0044B002B00D0984710BDED
:10810000C4200020C42000200000000010B5074C4F
:108110002378002B09D1FFF7D3FF054B002B02D0AA
:10812000044800E000BF0123237010BDD0200020D0
:108130000000000070950200094B10B5002B03D021
:108140000849094800E000BF08480368002B02D135
:10815000FFF7C8FF10BD064B002BF9D09847F7E793
:1081600000000000D420002070950200C4200020F0
:1081700000000000144B002B00D1124B9D46402202
:1081800092029A1A924600218B460F461148124AD3
:10819000121A0BF0B9FE0D4B002B00D098470C4B78
:1081A000002B00D098470020002104000D000B4850
:1081B0000BF03EFD0BF08AFD200029000FF05EFF62
:1081C0000BF054FD000008000040002000000000FB
:1081D00000000000C8200020542A0020993C020022
:1081E00010B50400034B036040300DF0A2F82000EE
:1081F00010BDC0469C840200F0B585B01F000AABDC
:108200001B880600029115000393002F1AD0282026
:1082100010F021F96B4604001989039BAAB2009360
:108220003B000DF025F8336821005B68300098476B
:10823000002808D020000DF032F8200010F000F9DE
:10824000024800E0024805B0F0BDC04616FCFFFF42
:1082500017FCFFFFF7B5040000250192C77FAF426E
:1082600054D966197078884202D1152927D804E0BC
:10827000605D2D180135EDB2F1E701228A402648F4
:1082800002421CD0D91901201F2943DCE1193718FB
:10829000B94210D80021C8B2834205D9019A70189A
:1082A000575C01318770F6E7625D9A186255E27F8C
:1082B0009B18E37728E00878C8540139E8E7655D42
:1082C000013DEDB2AB4209D10021C8B283421BD9B6
:1082D000019A7018545C01318470F6E7FF187F1B17
:1082E00001201F2F16DC0227A81C7F4236187F1B97
:1082F000E07F2218964203D23078F0550136F7E736
:10830000451B023DE57701E0002003E0019A2000D3
:108310000CF0BDFDFEBDC046FC002000F0B5040021
:1083200087B0434D039383B2009002920191200CD9
:108330002A78012B03D0022B04D1013B03E0022356
:10834000002601E000231E00012801D1134304E0B0
:10835000022803D1110099430B002B702B78934214
:1083600063D0CC24334FA40038590CF0CBFD062148
:1083700038590CF0B4FD304A304C138801339BB2AD
:108380001380584258412E4A637311781B0A0143E7
:1083900011702A78A3732273002902D00423134397
:1083A00023732300210019330E315A78013B500802
:1083B0005A78D20102439A709942F6D1E37BF601D2
:1083C0005B081E43CC239B00F858E67304F026FE9E
:1083D0001A23060022000A30FF21FFF73BFF002886
:1083E00002D130000CF072FD2B781649002B01D120
:1083F00020330CE0022B01D13F3308E0012B01D1E7
:10840000413304E0032B01D12F3300E03F2305A8C3
:108410000B7000F0BBFF3800C822F030520005A9F5
:1084200002F0C8F805A80CF084FF07B0F0BDC04604
:1084300080290020EC20002030290020832000200B
:10844000812900208120002073B52B4BCC25197881
:10845000CA232A4C9B00E018AD0003F0F1FE6059DE
:1084600004F0DCFD03230371605904F0D7FD0368B9
:1084700005009B6898470300A020834203D92B681E
:1084800028009B689847FA239B0058431C4908F032
:10849000FFFAE880CC25AD0060590CF033FD0621D1
:1084A00060590CF01CFD605904F0B8FD1A23060059
:1084B000144A0A30FF21FFF7CDFE002802D1300018
:1084C0000CF004FD605904F0A9FD05000CF0FEFC61
:1084D0002B68291DDB6F280098470B4901A800F085
:1084E00055FF20005A2201A9F03002F0F7F801A848
:1084F0000CF01FFF73BDC04680200020EC20002040
:1085000071020000832000209E8F020073B51026A8
:108510000C4C200000F010F90B4DD0342B000096CD
:10852000002201212000FFF767FE2B00002202211C
:1085300000962000FFF760FEFFF786FF00F068FD61
:10854000002076BDEC2000201D83010010B5054CF5
:10855000200000F039F8044A044920000FF074FFAD
:1085600010BDC046EC2000200020002071850100D5
:10857000CA23144A9B0010B5C2501C330400C01813
:108580000CF0D7FED0239B00E0180CF0D2FE2000A8
:108590009130FF3001F092FA20006930FF3001F095
:1085A0008DFA2000F03001F07FFE2000D03002F084
:1085B0003BFA2000643007F07FFC201DFFF710FE1F
:1085C000200010BD288902001423F0B5040093B0E8
:1085D000192200931821043002F08EFC230025009C
:1085E000260064331800B43513211093B83607F011
:1085F0006FFC28000EF0B5F800221E2130000DF0AF
:1086000054FD2000D03002F02FFA2300F033474A07
:1086100006211800119301F06BFE200000270123B2
:1086200069301A0000971121FF3001F0C3FA2000D1
:1086300091300097012302221A21FF3001F0BAFA8B
:108640002000B930022201211A23FF3002F0CCFAB7
:10865000300001F0BBF8E4235B00E050300001F093
:1086600005FBE6235B00E0500100E42220005200FD
:10867000D130119BA2580095FF3001F049FD200038
:10868000E13029001C22FF3002F0D0FD1923200028
:108690000F93013B0E93013B0D93013B0C93013B68
:1086A0000B93013B0A93013B0993013B0893013B68
:1086B0000793013B0693013B0593013B0493013B68
:1086C0000393013B0293013B0193F930013B0822E4
:1086D00000930721013BFF300DF008FDCA239B00EA
:1086E000E018290003F070FDD3239B00E0181D2142
:1086F00002F04AFBDD239B00E7501098277003210E
:108700000FF0EAFB23002200200009499C33A0322D
:108710001C6011605760074A80305A6102210122B3
:1087200007F04CFD200013B0F0BDC046A484020049
:108730003B4F0200274F02000123F0B505788DB0B2
:1087400007001D4000D0E9E00300D0331800029379
:1087500000F0C6FA00F0E6F928200FF07CFE0400D5
:1087600010300CF075FE6E4B6580238018200FF0E2
:1087700072FE06006B4B80C6039010222900300069
:108780000A930B950BF0C0FB08220AA930000BF0EE
:1087900031FB654B039AE56053611223A260A3800D
:1087A000256265622100029802F0C6F8002805D013
:1087B00020000CF074FD20000FF042FE01223B78F7
:1087C0005A4913433B703B00B433180004930DF037
:1087D000CEFF5749039004980DF0C9FF002405907F
:1087E000642000F09DFB260025003B006933FF3329
:1087F000180006930DF03CF8002803D1039B002BD2
:108800000DD109E038009130FF300DF031F800282B
:10881000F4D0182D03DDF1E7059B002B58D038006C
:10882000653031B222B2FF23FF30013600F02CFE5A
:10883000F6B2322000F074FB0135052E02D100267D
:10884000631CDCB2039B192D02D0002B02D1CCE7B4
:10885000002B03D03549049802F07CFC03980FF0FC
:10886000EFFD05980FF0ECFD3249334800F038FC7D
:10887000DD239B00FB580793002B20D100F06AF802
:10888000010008A800F082FD09A80CF0C9FBCA206D
:108890000123800009AA08A900933818029B03F05D
:1088A000E7FC09A80CF045FD08A80CF042FDCC231C
:1088B0009B00FB580793DD23079A9B00FA50CA23BD
:1088C00039009B00069AF031F81803F0C5FE8CE7DA
:1088D000DD2418491848A40000F002FC3B59002B85
:1088E0001CD100F037F8010008A800F04FFD09A8DE
:1088F0000CF096FBCA239B00F818059B09AA08A94F
:108900000093029B03F0B4FC09A80CF012FD08A828
:108910000CF00FFDCC239B00FB583B510DB0F0BD7C
:10892000FD030000AF4F02006F4F0200E68F020010
:10893000F18F020000200020001C0020BFF34F8FA9
:10894000024A034BDA60BFF34F8FFEE70400FA05DB
:1089500000ED00E0F0B58DB005AF192215493800E3
:108960000BF048FA0022144B05245A71802252055C
:10897000566E012225000194029203930199300062
:1089800008F00CF90800029908F082F8019B03999D
:108990006B430193029B361A6B430293631E2C1B9D
:1089A0006C433C19225C1C1ECA54E7D108000DB070
:1089B000F0BDC0460190020082290020F0B595B0BC
:1089C0001822002106000EA80BF09EFA13210EA813
:1089D0000FF0BEFB03210EA80FF050FC01224A4B02
:1089E00000921B68002B01D0DBB200930123474AA1
:1089F000002109A807F052FD454B9E4200D90026F0
:108A000072B6444B1022002105A81D680BF07CFAB9
:108A1000414B642130000593052408F0C3F86043FE
:108A20005030281806900A21300008F0BBF80A21BF
:108A300008F09EF9614350316918079130000A210E
:108A400008F096F94C43210050316C1880260894A8
:108A50000024B601009B002B3CD004AD0027032C62
:108A600002D180260024B6016B682C4A0293630071
:108A70000133D318002201921021581E00780141C1
:108A8000039119788C4660460299095C039801426B
:108A900004D0012090400199014301910132063335
:108AA000092AE9D1019B2A68D9431D4B09011940C4
:108AB000029B934203D1312F01DC002100E03143BE
:108AC00009A80FF096FCFA23139A0F99DB0010689F
:108AD000014201D1FFF732FF013B002BF7D1FA230E
:108AE000013401377600E4B25B009F42B7D1043510
:108AF00008ABAB42B2D1044B1B68002BAAD0009B41
:108B0000013BDBB20093A5E764240020F0FF0000E6
:108B1000E703000004200020509002001A90020099
:108B2000F01F0000F8B50023144C23600CF099FAF4
:108B30002500002808D0042120000CF08EFA00281F
:108B40001BD00F4B236018E00122A12704210D4BFD
:108B50000D4E1A602368FF000B4A7060944662460F
:108B60005268084C002AFAD0E2591B02013913431B
:108B70000029F1D12B6001236360F8BD6824002037
:108B8000ED5EBC0B00D00040FCD000400B4B70B53C
:108B90001C68002C11D0656D00F0B4FBA36C00299B
:108BA00003D1834201D92C00F3E720000CF08CFAAA
:108BB000034920000CF075FAF5E770BD9024002001
:108BC00098240020F0B5040093B00793230C02937F
:108BD000294B04901C68294B05911E68069285B2AA
:108BE0000027002E46D0002C30D0636D244803931C
:108BF000A36C9AB21B0C99B2854216D121488242CD
:108C000013D1002B04D0029B994201D0039CEAE7C8
:108C1000002F01D00127F9E720000CF055FA1A497E
:108C200020000CF03EFA0137F0E7002A01D095420F
:108C3000ECD1002B02D0029B9942E7D120000CF02E
:108C400043FA114920000CF02CFADFE70F4BEB1828
:108C5000012B0FD91023029A009329000C4B08A86E
:108C60000CF006FB336808A99B683000984708A8F9
:108C70000CF015FB13B0F0BD8C2400209C240020C8
:108C8000FE030000FF0300009824002002FCFFFF09
:108C9000C58B010010B572B60B4B1C68002C03D0BD
:108CA00020000CF011FA08E062B65C200FF0D3FB54
:108CB0005C22002104000BF027F90023E364034B3E
:108CC0002000E36310BDC0466C240020004000205B
:108CD000024B1878012318407047C04688290020AD
:108CE000F7B50600FFF7F4FF051E33D11A4C2660D6
:108CF000FFF7D0FF194B1A4918600CF0D2F9FFF7B3
:108D0000C9FF184B1860184B4363184B83632068E6
:108D100000280ED0C027164E2A00330015490097B0
:108D2000FFF76AFA009733002A0013492068FFF71B
:108D300063FA0C200FF08FFB0023838083710F4BAD
:108D400003600F4B836000F0F5FA01210D4A1378A0
:108D50000B431370F7BDC0469C24002070240020F4
:108D600098240020A0240020FC3F00208F51020006
:108D7000C58B0100FF030000FE030000C484020055
:108D80008D8B010088290020F7B506000D00170023
:108D90000193002801D1002015E00029FBD0FFF746
:108DA00079FF041EF7D0084B019A436306604560C3
:108DB0008760064B002A00D0054B2000A3630549BD
:108DC0000CF06FF92000FEBDFC3F0020595102005D
:108DD0007751020098240020024B18684342584102
:108DE0007047C04698240020002310B504499C0019
:108DF0006258002A01D00133F9E76050100010BD1D
:108E000074240020002310B5044A99008C58844231
:108E100001D00133F9E70020885010BD74240020F0
:108E200010B50024074BE058002802D003685B68A7
:108E300098470434182CF5D1034B1B68002B00D144
:108E400020BF10BD7424002098240020F8B5FFF73F
:108E50003FFF002856D02C4E34683500E36CDA070B
:108E600018D502273B43E364284B1D680423EA6CB2
:108E700028001343EB64636BEB630CF04BF92800A1
:108E8000696C03F0E4FF3068C36C3B423AD004F0F5
:108E900018F837E01E4F1F4E3A68002A01D1326899
:108EA00008E0216DB94205D1616D002900D11100A2
:108EB000296000E02A602A6831688A4208D11B07CD
:108EC00006D52C60FFF7ACFF3B68002BFAD02B6077
:108ED00029688C4216D03368994204D10E4B4B63FB
:108EE0000E4B8B6305E09C4203D100224B6C1000BB
:108EF00006E020000CF00EF920002968626C4B6C33
:108F000003F064FFF8BDC0467024002094240020C4
:108F100098240020A0240020FC3F00208F51020054
:108F200070B50500FFF7D4FE002803D128000FF02C
:108F30009EF918E00C4B1C68E36CDB0706D5FFF7C5
:108F4000A9FE0A4B1860002800D0040000F0DAF9EE
:108F50002818A06420000CF0B7F8054920000CF098
:108F6000A0F8FFF773FF70BD702400209424002048
:108F700090240020F0B51E4B85B01C681D4B0600E8
:108F80001A680F000393002A03D0FFF7A1FE002800
:108F900001D119482AE0E36CDB070ED5FFF77AFE12
:108FA000164B051E186008D00CF08EF814492800E6
:108FB0000CF077F82C00FFF749FF3B043343A36420
:108FC00020000CF081F820000E490CF06AF80E4BDE
:108FD0000020F318012B09D9C023039800933A000D
:108FE0000A4B31000068FFF707F9002005B0F0BD1B
:108FF000702400209C24002016FCFFFF94240020F5
:10900000982400208C24002002FCFFFFC58B010067
:1090100010B5FFF75DFE002809D0054C20680CF064
:1090200053F8044920680CF03CF8FFF70FFF10BD1F
:10903000702400206C240020F7B507000D000028E4
:109040002DD0FFF745FE00282BD00724164E3068A0
:10905000C36C1C4006D0154A290038000CF04BF8B0
:1090600000241FE003F015FF02213268D36C194081
:10907000019103D003218B43D36413E001242343E4
:10908000D3642800B8473268D36C1900A143D16477
:10909000019C5B0706D528000CF065F802E0044C43
:1090A00000E0044C2000FEBD702400206751020047
:1090B00017FCFFFF16FCFFFF020010B5014B12CB9F
:1090C00012C210BDA4240020034A044B12681A6087
:1090D0007E225A607047C04604200020A42400204D
:1090E00070B5124E05003278022A1AD081421AD980
:1090F0000C1A072C17D9080003232843034012D168
:1091000072B60B48D2001550821851608022A40814
:10911000120614432C6032780132327062B61800A5
:1091200002E0044800E0044870BDC0468A290020DF
:10913000AC24002013FCFFFF17FCFFFF70B5134A9F
:10914000060013781400124D002B0CD1114912485F
:109150002B70FFF7C5FF114B984202D11E20FFF77D
:109160002DFC0123237000242B789C4209DA0C4942
:10917000E300C91830000CF010F8002805D10134C4
:10918000F2E71420FFF71AFC002070BD89290020A7
:109190008A29002000380020582A002017FCFFFFF1
:1091A000AC24002070B500281FD0104B10491C784B
:1091B0000023A34216DADA005558A84210D98A18BB
:1091C000526890420CD2041F2368002B02DC1E2040
:1091D000FFF7F4FB802322681B061343236004E09F
:1091E0000133E6E71E20FFF7E9FB70BD8A29002066
:1091F000AC24002070B5051E15DD0C4B0C4E1A6812
:109200001C00002A02D030680EF0BCFEFA21256056
:1092100000243068074B89008361C46269430EF003
:10922000B9FE200000E0044870BDC046EC240020D8
:10923000BC240020E192010017FCFFFFF8B5114F9C
:1092400006003D68002D0AD130200FF004F904001B
:1092500006F098FE0C4BA5612360E5623C600B4D67
:109260002B68002B09D110200FF0F5F804000EF048
:10927000DEFE20002C600EF0B4FE3000FFF7BAFFD7
:10928000F8BDC046BC240020D08C0200E824002099
:10929000014B18687047C046EC24002070B50D4C97
:1092A0002368002B03D00C4B1B68002B02D1062037
:1092B000FFF7C4FF20680EF0ABFE02000749C3179A
:1092C0000D684E685219734120680A604B600EF0B9
:1092D000A5FE70BDE8240020BC240020C82000208A
:1092E00010B5FFF7DBFF0024054BE058002802D043
:1092F00003681B6898470434282CF5D110BDC0467C
:10930000C024002010B5FFF7C9FFFA22034B9200DA
:1093100018685968002307F0A9FD10BDC820002077
:1093200010B5FFF7BBFF024B1868596810BDC04667
:10933000C82000200B4B10B51B680400002B03D085
:10934000094B1B68002B02D10620FFF777FF002393
:10935000064A99008858002801D00133F9E78C505B
:1093600010BDC046E8240020BC240020C0240020FA
:10937000002310B5044A99008C58844201D001336F
:10938000F9E70020885010BDC024002010B504006B
:10939000002902D00B78002B02D1034B236001E09F
:1093A0000BF0CEFF200010BDD4840200F8B50500FC
:1093B0000E00140000290AD00B78002B07D0002AD9
:1093C00005D0080097B20AF073FF874202D90B4B11
:1093D0002B6010E0601DFFF7B1FE28600CF052F921
:1093E000286822004780310004300AF003FD2B6812
:1093F0001C19002323712800F8BDC046D484020044
:10940000014B03607047C046D484020010B5054884
:10941000054C20600CF039F9044A054920000FF092
:1094200013F810BDD4840200F02400200020002096
:1094300033530200084B73B51C680500002C0AD09A
:10944000010026680831082268460AF0D3FC0CCDDA
:1094500031682000884773BDF4240020014B03606D
:109460007047C046DC84020010B50400002902D118
:10947000044B036003E0016008000CF006F92000D3
:1094800010BDC046DC84020030B5046860888142AB
:1094900006DAA588AA4203DA002901DB002A01DAEC
:1094A000034804E04243601880188371002030BDF7
:1094B00017FCFFFFF0B5070085B00E001D00002966
:1094C00021DD002A1FDD002B1DD004686388039373
:1094D0008B4200DD0391A3880293934200DD029248
:1094E000002306340193019B029A93420DDA29006E
:1094F0002000039A0AF07EFC3B68AD195B88E418F3
:10950000019B0133EEE7024800E0002005B0F0BD0A
:1095100017FCFFFFF8B504000D0016001F0000291E
:1095200001DB002A02DA0D4B236016E010004843ED
:109530000630FFF703FE20600CF0A4F823685D807E
:109540009E80002F06D03B00320029002000FFF74C
:10955000B1FF02E020000BF0CDFFF8BDDC8402007B
:10956000F7B505000C1E05D000200F000600019085
:10957000010015E0224B03603FE030225242944646
:109580009C446246092A14D90A2B0DD1019B361836
:1095900001330193B14200DA3100002006000137A7
:1095A0003B78002BE9D106E00028F8D001360020F6
:1095B000F5E70120F3E76A46928809B212B2280063
:1095C000FFF7A8FF2B680A26991D01235B4220782C
:1095D000002812D00200303A092A06D8DA43D217FE
:1095E000134073431B18303B05E0002B03DB0B706B
:1095F000012301315B420134E9E72800FEBDC0468A
:10960000DC840200F0B5040087B004A815001E0039
:109610000F00FFF751FD23685A88954208DA9B88AE
:10962000B34205DD1F2F03D9059B00939F4201DD47
:1096300018482DE0052300217B430093049B0193F0
:10964000009B019ACB18A03BD35C002202937318B5
:109650009C465319276803937888834202DABB88B3
:109660009C4507DB0132052AF3D101310529E7D1F9
:1096700000200DE0634658435319FB18102717418B
:109680001B1802980740781E87417F429F71E9E7C7
:1096900007B0F0BD17FCFFFFF7B5036806009C1D7F
:1096A0005B880D005A1A0192002918DD00279942A3
:1096B00002DB0BF01FFF14E033689B889F4210DA37
:1096C0006119019A20000AF095FB019B2900E0181E
:1096D0000BF0F3FE336801375B88E418ECE70248CF
:1096E00000E00020FEBDC04617FCFFFF10B5054896
:1096F000054C20600BF0C9FF044A054920000EF01C
:10970000A3FE10BDDC840200F8240020002000200D
:10971000AD54020010B5054C012120000BF0A9FF4B
:10972000034A044920000EF08FFE10BDFC240020E7
:1097300000200020315602000388074A10B501209E
:10974000934208D0834202D00020DB0703D41E20BE
:10975000FFF734F9002010BDFFFF000000487047FC
:1097600016FCFFFF10B53220FFF728F9004810BDA6
:1097700016FCFFFF8280142210B5134C02810834BE
:109780000200002304604162040002213032837130
:109790008172C360036143618361C36103623634D4
:1097A000137053704386838622788A43F1310A40CE
:1097B0002270020040321370021DD38701334387A9
:1097C0008387C38710BDC046FC840200F0B5544FA8
:1097D00097B03B6806000593002B00D094E006ACE0
:1097E0000B331C222121200001F036FA0EAD0B2391
:1097F0001D2222210AA801F02FFA0B231B2223216C
:10980000280001F029FA08200EF025FE0122059B10
:10981000110004900DF082FA3A2130000DF026F884
:1098200000281CD0A38812ADAB80A3795C20AB715B
:109830003C4B1293A3681493237B2B73637B6B7352
:10984000A37BAB730EF007FE042301933633009322
:109850002A00049B3100040001F0FAFF53E032219A
:1098600030000DF031F800281CD0A38812ADAB8079
:10987000A3795C20AB712B4B1293A3681493237BC9
:109880002B73637B6B73A37BAB730EF0E4FD04233C
:1098900001932E3300932A00049B3100040002F050
:1098A00075F930E03C2130000CF0C9FF002822D0CF
:1098B000AB8812ACA380AB79A420A371194B12938F
:1098C000AB6814932B7B23736B7B6373AB7BA373AA
:1098D0000EF0C1FD052305000293013B01933833CF
:1098E00000932200049B310001F0CEFE0E4B3D6040
:1098F00044351D6008E044200EF0ADFD04220499BB
:109900000400FFF737FF3C60074B054C1868002840
:1099100002D021680CF019F8206817B0F0BDC046DD
:1099200000250020EC84020004250020F0B56049E9
:10993000C56885B08D4206DA030036331A780223F3
:1099400013400BD117E0C82200235200954212DDCC
:10995000030036331A78002392070CD40123060043
:109960001F00363632785408A7433C0002279C403B
:10997000BA432243327004698C4205DA020036325F
:109980001278520709D415E0C8225200944211DD22
:1099900002003632127852070CD406000122363605
:1099A00033789F08BA439700042293431A00012397
:1099B0003A433270426901920200019E40328E4267
:1099C00005DA01003631097809070AD415E0C82103
:1099D000019E49008E4210DD0100363109780907E9
:1099E0000BD40600012136363378DF08B943082747
:1099F000C900BB430B43337001E0002B18D0137830
:109A0000032B15D80133DBB21370012B03D10021D6
:109A1000031DD9870CE0042B0AD102000121363244
:109A2000137804300B4313700023C3870B333CE0DF
:109A300013780293002B1BD006000127011DCB8F4A
:109A4000363601339BB2CB8703963678BC46374017
:109A500008D01D2B0CD963469E43039B1E70002328
:109A6000CB8704E0092B03D9029BCF87013B1370FE
:109A70000BF04DFE0F4A0723904216D90E49043BC6
:109A80008D4212DBC8220133920095420DDC023B6D
:109A90008C420ADB013B944207DC01980433884284
:109AA00003DB0133904200DC0023180005B0F0BD59
:109AB00070FEFFFFFF700200E0FCFFFF10B5040026
:109AC000034B08330360FFF753FC200010BDC04672
:109AD0003085020070B5C369C2681B688AB0040093
:109AE000451D1A4250D0EB7F002B01D0013BEB7794
:109AF000EB7F082B0DD90122A379134209D113431F
:109B0000A371A188130006A80BF0ADFCFFF7FAFBC8
:109B10002062EB7F012B26D80123A2791A4222D0A2
:109B20000025A188A571022202A80BF09CFCA31DB0
:109B3000DE7F012E17D1FFF7E5FB2B00226A801A8A
:109B4000994100900191019BA188AB4203D1174B31
:109B5000009A9A4202D90123042201E03300032231
:109B600006A80BF080FC0323A2791340012B1AD125
:109B7000FFF7C8FB0023226A801A9941994208D155
:109B80000B4B984205D80EE0EB7F0B2BB0D801337E
:109B9000ADE70222A379A1881343A3710332012305
:109BA00006A80BF060FC0AB070BDC046E7030000D9
:109BB000DB050000F0B5070000250E0085B002931C
:109BC0000AAB1B7808370393104B0400083303607B
:109BD0000192858085712900182238000AF094F9D5
:109BE000039A310038000EF0B8FA6B466A469B883B
:109BF000127AA380A31DE671DA77631D2562200027
:109C0000DD77FFF797FB200005B0F0BD308502003F
:109C10000048704716FCFFFF10B53320FEF7CEFE5C
:109C2000004810BD16FCFFFF002310B50400838020
:109C300083710D482164083020608020C000A0613D
:109C4000E0612062E3602000236163616362A362DC
:109C5000E36223636363A363E363636411000BF054
:109C60004DFE200010BDC04648850200F0B5534FA0
:109C700097B03B6806000593002B00D094E00B33AF
:109C80001C22212106A80AAC00F0E6FF0EAD0B2332
:109C90001D222221200000F0DFFF0B231B222321A5
:109CA000280000F0D9FF08200EF0D5FB0122059B0B
:109CB000110004900DF032F81D2130000CF0EDFD84
:109CC00000281CD0A38812ADAB80A3796020AB71B3
:109CD0003B4B1293A3681493237B2B73637B6B73AF
:109CE000A37BAB730EF0B7FB0523019318330093EE
:109CF0002A00049B3100040001F07EFE53E03C2169
:109D000030000CF0F8FD00281CD0A38812ADAB8009
:109D1000A3796020AB712A4B1293A3681493237B21
:109D20002B73637B6B73A37BAB730EF094FB0523E8
:109D30000193373300932A00049B3100040001F0A3
:109D4000C7FF30E03C2130000CF079FD002822D024
:109D5000AB8812ACA380AB79A420A371184B1293EB
:109D6000AB6814932B7B23736B7B6373AB7BA37305
:109D70000EF071FB052305000293013B019338337C
:109D800000932200049B310001F07EFC0D4B1D600E
:109D900044353D6008E048200EF05DFB0522049943
:109DA0000400FFF741FF3C60064B1A68034B002A92
:109DB00001D019684A64186817B0F0BD0425002066
:109DC000EC8402000025002082B0F0B50400EBB066
:109DD0006420719370920EF04AFA05220EA81100C9
:109DE0000BF091FB97490FA8FFF7BAFB00239625CC
:109DF0001A001FA86D001A50C1180C334A608A60FF
:109E0000AB42F8D11922002111A80AF07DF8A06810
:109E10000CF044F900260990FF21A06800F0F0FC46
:109E2000894FA06800F05CFB07960896864B9F421E
:109E300002D0864B9F4212DAA0680CF031F9A56877
:109E4000834918A8FFF7A2FA782218A9280000F081
:109E500045FC18A80BF06DFA7B4F002606E0002F9A
:109E600001D00F2E02D1A06800F03AFB0322089B1C
:109E7000606801331A4008920BF0E0FC050060684E
:109E80000BF0E3FC0022734B06929D4210DB013283
:109E900006922A00C8320BDBAA2204219200069106
:109EA000954205DC03220692C82D01DC013A069298
:109EB00000220492984210DB012304930300C8336C
:109EC0000BDBAA2304329B000492984205DC032397
:109ED0000493C82801DC013B04930EA80BF00AFB95
:109EE000002511ABEB5C012B08D15B496B00CA1854
:109EF0005278C95C0EA8FF23FFF7C6FA0135192D69
:109F0000EFD16B4610229A5E6B460EA81821595E5F
:109F1000089BFFF7B9FA002F01DB0F2E07D90023AA
:109F2000A068009374301A000EA90BF0F9FA002310
:109F30000593059B484A5B00995C0698814227D1AE
:109F4000D3185B78049A934222D12C2206AB9B183B
:109F5000059A9B5C012B1BD00C23079A2168534365
:109F60001D0000220AA80BF0F2FC1FAA2B00944649
:109F70000AAA634423CA23C32C2206AB05999B1863
:109F80002B3A5A54079B0133DBB20793731CDEB2A2
:109F9000059B01330593192BCBD164200EF067F993
:109FA0003B00643B1FB2079B182B00D83EE71A000A
:109FB0001FA918A80BF0E6FE6A461BAB23CB23C2F1
:109FC0001B6813601899199A1A9B20680BF0A7FC5C
:109FD000E568002D0CD0214910A8FFF7D7F91C2304
:109FE00018AA10A928000CF0F5FB10A80BF0A1F995
:109FF000A0680CF055F80FA910A8A5680BF063FA3B
:10A000000022174B009210A901932800130000F0C2
:10A0100007FB10A80BF04AFAFA2080000EF027F98F
:10A02000A0680CF03DF80999A06800F0E9FB0FA8C2
:10A030000BF03CFA0EA80BF039FA6BB0F0BC08BC80
:10A0400002B01847629202008C3C0000D18AFFFFE8
:10A05000A792020058FDFFFF30920200BC9202005E
:10A06000DC050000F0B587B001930EAB1B8806003D
:10A0700003930D9B0D000093019B02920C9F002BFC
:10A080003DD0002F02D1009BDB0738D528200EF0F1
:10A09000E2F9040010300BF0DBF96B461B89182045
:10A0A000258063800EF0D7F9049707000500009B18
:10A0B00010220593019B002108C7380009F024FFF6
:10A0C000082204A9380009F095FE0E4B02226B61AC
:10A0D00000230399E3602362636233680A43A56047
:10A0E000A2805B68210030009847002808D020003B
:10A0F0000BF0D5F820000EF0A3F9034800E0034868
:10A1000007B0F0BD9159020016FCFFFF17FCFFFFDE
:10A1100070B58CB08360109B01604260C360040026
:10A12000184918000CF023FB051E14D001001C2256
:10A13000103105A809F05EFE6A4608AB43CB43C266
:10A140001B68136020680599069A079B0BF0E7FBD4
:10A1500028000EF075F90C4B186800280ED00B4A39
:10A1600005AB059200220692C03202926A4622CBCB
:10A1700022C2230003220521FFF774FF20000CB048
:10A1800070BDC046BC920200F4240020C99D0100AD
:10A19000F0B5040085B0637A9C46002B03D1200003
:10A1A0000BF00DFE69E0A37A266F01931023019A4C
:10A1B000F35600259B1801229A402900F368029269
:10A1C0000393039B9D4231DAB368019A6B439B185A
:10A1D00072695B00E77AD3181A785878E379012F0F
:10A1E00004D15F1E3F1A10003A000EE0022F05D185
:10A1F0005F1EBA1A277A013F381A06E0032F04D1EE
:10A20000277A013FBF1A020038005B004343606FAA
:10A210008218D3189B79634500DD6346627B1A423E
:10A2200002D00123AB4019430135CAE71123C943CA
:10A23000F356606C994023691940029B19430EF054
:10A24000D8F8A37B072B18D8627B581C5200627386
:10A250000B499A00A073022B03D888580DF0FCFF1D
:10A2600099E7084B2000236300236363064B89585A
:10A27000E462236414300DF08DFE05B0F0BDC046DD
:10A280008C85020091A10100AB5D020010B50400B5
:10A29000044B03600DF076FE200005F089FE2000DF
:10A2A00010BDC046D08C020010B504000E4B083320
:10A2B0000360FFF75DF8200074300BF0F7F8200022
:10A2C00060300BF0F3F8200058300BF032F820002B
:10A2D00050300BF02EF82000044B14306361FFF770
:10A2E000D5FF200010BDC04674850200E48C02003A
:10A2F000F8B500250400324B858008330360857172
:10A30000143016000F0005F03DFE20002D4BE562D5
:10A31000636125645030FFF773F820005830FFF771
:10A320006FF820006030FFF799F820000423F25EF8
:10A3300033682667590009B274300BF0E4F83378BB
:10A34000226FE3717368012623721023E572A572F0
:10A35000A7802561D356916859188B4204DA3000E2
:10A36000984001330543F8E711230120D356D16803
:10A3700059188B4206DA02009A40266901333243AB
:10A380002261F6E714200EF066F8226900212A43C4
:10A390000123060006F082F8FF22627222000023E9
:10A3A0000125483266646573A3732373200013701C
:10A3B000A366FEF7BFFFA37920002B43A371F8BD6E
:10A3C00074850200E48C0200F0B5437A85B0040085
:10A3D000002B03D120000BF0F2FC66E00122837A0F
:10A3E00011009C461023066F0025F3560392634428
:10A3F000994001912900F3680293029B9D422CDA57
:10A40000B36872696B4363445B00E77AD3181A78C8
:10A410005878E379012F04D15F1E3F1A10003A00EB
:10A420000EE0022F05D15F1EBA1A277A013F381AB3
:10A4300006E0032F04D1277A013FBF1A020038003B
:10A440005B004343606F8218D3189B79002B02D0C6
:10A45000039BAB4019430135CFE71123C943F356A2
:10A46000606C994023691940019B19430DF0C1FFAD
:10A47000667AB31EDBB2FC2B14D8FEF709FF0C4B37
:10A480000500236300230B4863630B4BFF21E46249
:10A490002364704306F086FB2900414320001430FA
:10A4A0000DF078FD637A012B94D905B0F0BDC0465C
:10A4B000BF5D0200B6030000AB5D02001FB50123C3
:10A4C00081881A0068460AF0CEFF012303491A006A
:10A4D00068460AF0C8FF05B000BDC046FE03000094
:10A4E0001FB5030048331A780400002A0DD000225B
:10A4F0001A70012381881A0068460AF0B4FF01230C
:10A5000004491A0068460AF0AEFF200074300AF0D1
:10A51000F1FF1FBDFF03000010B548300378002B8A
:10A5200006D00378012B03D0012102480AF00BFE6C
:10A5300010BDC046FF03000010B501210400062035
:10A540000AF001FE064B984209D1230048331A78DD
:10A55000002A04D01B78012B01D020BFF5E710BDE5
:10A5600016FCFFFF70B50500141E09DB0600483617
:10A570003378002B06D03378012B03D00B4813E03F
:10A580000B4811E0002328001A007430FFF73AF856
:10A590000020844207D02B004A331C8007234C350F
:10A5A0002880337000E0200070BDC04612FCFFFF21
:10A5B00017FCFFFFF8B517000A68050052880B006A
:10A5C000012A09D1002118000AF035FF00220100FC
:10A5D0002800FFF7C7FF1EE0002F09DD0600483600
:10A5E0003278002A06D03278012A03D00A4812E0D5
:10A5F0000A4810E02A00002428005C321900148068
:10A6000058300AF0F3FE2B004A331F80032320004A
:10A610004C352C803370F8BD12FCFFFF17FCFFFF98
:10A6200073B5079C0500002C09DB0600483630781E
:10A63000002806D03078012803D00D4816E00D48D8
:10A6400014E006981BB2C0B20090280012B2743019
:10A650000AF066FF0020844207D02B004A331C809A
:10A6600007234C352880337000E0200076BDC046BB
:10A6700012FCFFFF17FCFFFFF0B587B00D9E050031
:10A680000F0002920393002E1EDBFFF745FF2B0005
:10A6900048331C78E4B2002C18D1390005A80AF020
:10A6A00012FF0C9B029A009305A9039B01962800B8
:10A6B000FFF7B6FF05A80AF0F9FE301E07D0280004
:10A6C000FFF73AFF200002E0024800E0024807B02E
:10A6D000F0BDC04617FCFFFF11FCFFFFF8B50400FA
:10A6E000171E09DD060048363378002B06D0337874
:10A6F000012B03D00C4816E00C4814E02200E3794B
:10A700005632013B137023000025200054331D8076
:10A7100050300AF06BFE23004A331F8002232800CA
:10A720004C3425803370F8BD12FCFFFF17FCFFFF8F
:10A73000F8B50400161E09DD070048373A78002AEC
:10A7400006D03A78012A03D0144826E0144824E0C1
:10A750005D42069BFF3301D16B1D00E0069B22008A
:10A760001BB2643213802300200066331D706030FA
:10A770000AF0B1FE220000236C3213709D4200D01B
:10A78000B3B222004A321380079B00205A1E934125
:10A79000013E4C34053326803B70F8BD12FCFFFFB0
:10A7A00017FCFFFFF0B587B005000F00161E0393DE
:10A7B0001DDDFFF7B1FE2B0048331C78E4B2002CFE
:10A7C00017D1390005A80AF07EFE0D9B32000193D7
:10A7D0000C9B05A900932800039BFFF7A9FF05A880
:10A7E0000AF064FE2800FFF7A7FE200002E00248FE
:10A7F00000E0024807B0F0BD17FCFFFF11FCFFFFAF
:10A80000FF2902D84172002000E001487047C0468D
:10A8100017FCFFFF13B5040004A800780090200087
:10A820000DF032FB002801D1207500E0004816BD74
:10A830000EFCFFFF13B5040004A800780090200070
:10A840000DF00AFB002801D1207500E0004816BD7C
:10A850000EFCFFFF7FB50D0011000F226A440400BB
:10A860001E1E117015D0089B002B12DD012329003C
:10A870000093FFF7DFFF002801D007480AE00090AF
:10A88000089B320029002000FFF7C4FF002801D0F8
:10A89000F3E7024804B070BD0EFCFFFF17FCFFFF9A
:10A8A000F7B507000D1E27D0002302260469019387
:10A8B000002C1DD0AA88A3885340334216D13242BF
:10A8C00003D1AB88334207D010E0A968A0680CF030
:10A8D0000AFA002804D1F4E7A368AA68934205D1D4
:10A8E0002B88002B0AD022889A4207D0646ADFE7BF
:10A8F000019B2000002B1ADC0D4818E06B88002B10
:10A9000002D062889A42F1D1EB68E268934201D0AA
:10A91000002BEBD17B68002B01D020009847A38847
:10A92000044A1343A380019B01330193DEE7FEBD7C
:10A9300017FCFFFF0080FFFFF0B5060085B00D1E7D
:10A940005CD001270469002C1DD00221AA880023B5
:10A950000A4202D0A3885B083B40226829688A42E9
:10A9600057D1002B0AD0A968A0680CF0BCF90028C8
:10A970004FD0EB68E26893424BD141E0A368AA68EC
:10A98000934246D1F5E731692A880F000B1E0CD19E
:10A9900035610123214968460AF065FD20003AE04F
:10A9A000586A1F00002812D0030018889042F7D37D
:10A9B00018003B000488944209D147886C88A7425C
:10A9C00005D8446A0300002C01D02000F2E7994228
:10A9D0000AD10888824204D306D14C886888844210
:10A9E00002D96962356102E0596A69625D620123D8
:10A9F0000A4968460AF037FD00200CE008480AE0E2
:10AA0000A3881AB2002A02DA5B045B0CA380054813
:10AA100001E0646A97E705B0F0BDC046FD030000A1
:10AA200017FCFFFF16FCFFFF064B10B51A000400D1
:10AA300008322C33026083600830FEF7E3F920000F
:10AA400010BDC046AC85020008B4024B9C460838D5
:10AA500008BC604729AA010008B4024B9C4608388C
:10AA600008BC6047136202000C4A002311002C321C
:10AA7000083110B543608381837382600361436151
:10AA80008361C383016004000830FEF7ADF9044B15
:10AA90001A68002A00D11C60200010BDAC8502009D
:10AAA000F4240020F7B50E00012504690192002C62
:10AAB00037D0238832889A4201D0002B26D1638870
:10AAC00072889A4201D0002B20D1FEF701F90123B0
:10AAD000002806D0A288BF331340C03B5A425341DE
:10AAE000DBB2019A934210D1A7883BB2002B0CDB5A
:10AAF00010223100A01809F07DF940231F4207D130
:10AB0000FEF7E6F8002803D006E00025646ACEE7E9
:10AB100020000BF087FBF9E721000348FEF78CFAD1
:10AB2000F4E72800FEBDC0462562020008B4024BCF
:10AB30009C46083808BC6047AF630200F0B587B098
:10AB400001930EAB1B88060003930D9B0D00009331
:10AB5000019B02920C9F002B3DD0002F02D1009B45
:10AB6000DB0738D528200DF076FC040010300AF001
:10AB70006FFC6B461B891820258063800DF06BFCF1
:10AB8000049707000500009B10220593019B0021FC
:10AB900008C7380009F0B8F9082204A9380009F0FC
:10ABA00029F90E4B02226B6100230399E3602362B3
:10ABB000636233680A43A560A2805B6821003000AD
:10ABC0009847002808D020000AF069FB20000DF00B
:10ABD00037FC034800E0034807B0F0BDDB63020028
:10ABE00016FCFFFF17FCFFFFF0B504001600002560
:10ABF0008380164A164B8571026021814681057358
:10AC0000186889B08C46A8421DD0124A0595049256
:10AC1000C02202926A4604AB82CB82C26146230004
:10AC20002A00FFF78BFF0B4A094B0692C0221868D7
:10AC300002926A4606AB079582CB82C223002A00A5
:10AC40003100FFF77BFF200009B0F0BDF085020066
:10AC5000F42400200565020030B5002403730123AD
:10AC6000034D84710560818082734373846030BDBD
:10AC7000EC84020070B583790400DB0702D580689C
:10AC80000DF0DEFBA3799B0702D5A0680DF0D8FB81
:10AC9000A3795B0707D5A0230021144ADB00D1501C
:10ACA000A0680DF0CDFBA3791B0708D5A568002D82
:10ACB00005D028000CF088F828000DF0C1FBA3791E
:10ACC000DB0605D5A068002802D00368DB6898473A
:10ACD0006023A2791A4205D0A068002802D0036838
:10ACE0005B6898470023A360A37170BD00700040AB
:10ACF000F7B50126037B040033422BD0612385790D
:10AD00001D4017D1FFF7B6FF18200DF0A4FB0E234E
:10AD10000700E35618220093637B2900019309F092
:10AD2000F3F8019A009938000DF017FAA379A7609B
:10AD30003343A3716023A2791A4203D0A0680DF0B7
:10AD4000C4F808E0A268536950681B681840431EA5
:10AD5000984100E00048FEBD16FCFFFF10B501243D
:10AD6000837941731C4004D080680DF087FA00207D
:10AD700007E06022134203D080680DF0ADF8F6E7DB
:10AD8000004810BD16FCFFFF70B5040000250D4BF8
:10AD90000E000833858085710360210018300BF0A8
:10ADA00069FC2000210020300BF087FC064BA680B8
:10ADB000A571E5712572E5602561656120001C6063
:10ADC00070BDC04600860200082500208379DB079D
:10ADD00002D5C160002000E00048704716FCFFFF6C
:10ADE0008379DB0701D5C06800E001487047C046A1
:10ADF00016FCFFFF70B545690400002D21D0037AD1
:10AE0000032B20D8FFF7ECFFA8622C200DF023FBCA
:10AE10002C220021050009F077F8002362695362B3
:10AE20002369002B01D1226105E0596A002901D074
:10AE30000B00FAE75A62237A65610133237200201E
:10AE400002E0024800E0024870BDC04617FCFFFF68
:10AE500013FCFFFF154B70B55A68154D002A03D03F
:10AE600000225A600132AA601B69114E002B1CD0CF
:10AE700000210E4B0F4C19618023DB00F358012B8E
:10AE80000ED1A923DB00F15820684942FFF79EFF4D
:10AE90002068FFF7AFFF23685A69074BF25002E0C2
:10AEA0002068FFF793FF0123AB6070BDFC100040EA
:10AEB0000010004008250020040500000300006980
:10AEC000002809D00221054AD167426A1A611A7A1C
:10AED000013A1A72024B19607047C04604E100E063
:10AEE00000E100E010B5002903DB024B19600DF012
:10AEF0002BF810BD0C25002070B504001E0004AB1B
:10AF00001D7805F009F820000E4B40302360FEF755
:10AF100077FA230001364C33013522001E701D7371
:10AF20000023E1214E32A364636513805380938133
:10AF3000D381013B200063644902FFF7D3FF200067
:10AF400070BDC0469C840200F7B580277F053D692F
:10AF50007C690822113C6C4306002100684608F019
:10AF600049FF104B009A9A4219D000930023019395
:10AF700079693000133969430BF0B4FB019A0099E9
:10AF800030000BF0C7FB210030000BF0ABFB796900
:10AF9000AB0813396943220030000BF0ADFB019878
:10AFA000FEBDC046FECA0000F0B50D00ABB00D926C
:10AFB00000213022060012A80B9308F0A5FF2800FC
:10AFC00009F076F9431C0C93102B00DDB6E00B9BC7
:10AFD000202B00D9B2E0290030000BF0C8FB071E7F
:10AFE00029D129000C9A12A808F004FF0D990B9A98
:10AFF00016A808F0FFFE80235B051F695A69300020
:10B00000113A7A435D690D92FFF79EFF0D9B302246
:10B010000833002104001EA80F9308F075FF2900D3
:10B020001339794330000BF05DFB0F9B0B9300232A
:10B030000C930E9335E010300B9A0D9908F0B2FE88
:10B04000040038000DF0FCF9002C7AD0C9E70B9908
:10B0500030221EA808F0CEFE12A91EA809F0E4F8BE
:10B06000002822D1384930002200109111940BF0B1
:10B0700051FB6A460B9B099315AB23CB23C223CB11
:10B0800023C223CB23C23000149B1299139A0BF0D6
:10B090004FFB01230E930B9B30330B930C9B01331F
:10B0A0000C930C9BA342D2DB10E06A460B9B0993E6
:10B0B00021AB23CB23C223CB23C223CB23C230001B
:10B0C0001E991F9A209B0BF033FBE4E7E5433021E8
:10B0D000ED1725404D430F9B5D190E9B002B1BD197
:10B0E000B81E05F0D5FC84422AD01749013430003F
:10B0F0002200109111940BF00DFB6A46099515ABD7
:10B1000023CB23C223CB23C223CB23C230001299EB
:10B11000139A149B0BF00CFB0D9930000BF0E2FA24
:10B1200080235B0559690C23634313390233794348
:10B130000D9A30000BF0E0FA002402E0034C00E02E
:10B14000034C20002BB0F0BDFECA000017FCFFFF2F
:10B1500013FCFFFF8023F0B55B051A6995B00292DE
:10B160005A6905910299113A51435C69029B133C5B
:10B17000050003915C43FFF7E7FE061E4ED0002753
:10B18000039B302208330021083408A8019308F0FB
:10B19000BBFE210028000BF0A5FA0497B74220DA85
:10B1A0000199302208A808F025FE059908A809F0A1
:10B1B0003BF8002809D11B49721E2800069107920E
:10B1C0000BF0A8FA0123049306E022000C23019956
:10B1D00028000BF091FA3034019B01373033019392
:10B1E000DCE7049B002B05D10E49320028000BF050
:10B1F00091FA13E0039928000BF074FA80235B05A1
:10B2000059690C23029A13394A43734311002800E9
:10B210000233039A0BF070FA002000E0024815B0E8
:10B22000F0BDC046FECA00000CFCFFFF70B5040074
:10B23000A280FA22002308000C4992000831216004
:10B24000A3716061E260A360638209490BF08FFA29
:10B25000051E09D00100200010310222123008F032
:10B26000C9FD28000DF0ECF8200070BD1886020022
:10B27000C792020030B50225837987B004002B42C3
:10B2800004D1FDF7B1FDA3792B43A37120000BF08E
:10B29000B2FA00282DD06B46DD1C28000BF0A2FA74
:10B2A0002B78002B03D001A80BF09AFA0FE00122B3
:10B2B000114B1A60114A5368002BFCD000220F4B2F
:10B2C0005A600F4B01321B6801930B4B5A600322EB
:10B2D000019BD9170A40D3189B102382FEF712F85E
:10B2E000E368A18818180123A0601A0002A80AF0D8
:10B2F000BAF8002007B030BD00C00040FCC00040DC
:10B3000008C50040022802D10122014B1A70704783
:10B310008B29002070B5064C05002378002B04D142
:10B32000044802F09FFB01232370280070BDC04633
:10B330008C29002005B3010070B50C0009F091FEC6
:10B34000002811D0164B0022A50A1C001A702800F4
:10B350000BF065FA002803D00A200CF088FFF6E70E
:10B360002378002BFCD019E0022180250D4B0E4ADA
:10B37000ED00995080205959C0000029FAD0A12130
:10B38000084DC9006C5019580029FCD0002005490F
:10B3900088508021C9005A58002AFCD070BDC04690
:10B3A0008B29002000E0014004050000F8B50C00E6
:10B3B00015001E0009F055FE002812D0194B00227E
:10B3C0001F001A703200290020000BF026FA002816
:10B3D00003D00A200CF04BFFF4E73B78002BFCD0A5
:10B3E0001EE00121104A114B944699508021C9005A
:10B3F0005A58002AFCD080270022FF008021C90073
:10B40000964207DD910068586050D9590029FCD058
:10B410000132F3E7002260461A505A58002AFCD045
:10B42000F8BDC0468B2900200405000000E0014063
:10B4300008B4024B9C46443808BC604723680200AD
:10B44000F8B5FA230189DB000400594332480BF0B8
:10B4500060FCFA21890005F01BFB304F2081A17AA6
:10B4600038000BF056FC23002600250022894C33BF
:10B47000A072A0361A808C35317800232A222868E1
:10B480000AF01BFE002801D0254844E031781F2334
:10B490005B2228680AF011FE0028F5D131782023BC
:10B4A0005C2228680AF009FE0028EDD131780123DA
:10B4B0002C2228680AF001FE0028E5D1317801230A
:10B4C0002D2228680AF0F9FD0028DDD1317801230A
:10B4D0002E2228680AF0F1FD0028D5D1A17A380083
:10B4E0000BF012FC3178C3B20E2228680AF0E5FD99
:10B4F0000028C9D1FA2321899B00594306480BF043
:10B5000003FC01231843C3B231782A2228680AF0C9
:10B51000D4FD0028B8D1F8BDF08602007086020084
:10B520000EFCFFFF08B4024B9C46443808BC604741
:10B5300041B40100074B10B51A00040008323C3337
:10B540000260436444300AF0A7F920000AF0D8F8FA
:10B55000200010BD9086020008B4024B9C4644387F
:10B5600008BC604735B5010008B4024B9C4644381E
:10B5700008BC60472D680200F0B5042583798BB0C4
:10B5800004002B4204D1FDF72FFCA3792B43A371B8
:10B5900020009030FFF7ACFB061E66D12300A033DD
:10B5A000197820000C2307AD00938C302B0001226A
:10B5B0000068FFF74FF9002801D02E4E56E00A230D
:10B5C00004AA9B182A785A706A781A700022995E29
:10B5D000AA785A70EA781A7000201A5E03922879C5
:10B5E00058706879187000201F5EA8795870E87943
:10B5F00018700022985E0490287A5870687A187043
:10B600000022985E0590A87A5870E87A18701F207A
:10B6100000229B5E039A9C46A37A52425A435943A6
:10B62000D5177B430540AA185211A261DF17CA172C
:10B6300002403840C3185B11236264235118059AF5
:10B640005B4253434911A3676423E1616146049A55
:10B6500020005A434B43E267221DD3670AF0C0F82B
:10B66000200044300AF01FF900E0002630000BB043
:10B67000F0BDC0460EFCFFFF08B4024B9C464438A8
:10B6800008BC604779B50100F7B51E00040008AB9F
:10B690001B881500019309AB00911A8831000AAB91
:10B6A0001F88FEF767F820003A0031004430FEF7AB
:10B6B000BBFA144B20001A003C33636423000832A9
:10B6C0002260009A8C331A60AB8890308380AB790B
:10B6D0006A4683710C4B92880360AB6803218360D8
:10B6E0002B7B03736B7B43730E23EB568373230017
:10B6F000A0331A80FFF732FB2000FFF7A1FE2000E5
:10B70000FEBDC04690860200EC840200F8B5FA2621
:10B710000189B6000400714326480BF0FAFA3100A3
:10B7200005F0B6F9244F2081A17A38000BF0F1FA28
:10B730002500A0725835297800232A22606C0AF06F
:10B74000BCFC002801D01D4832E0297810232B22B0
:10B75000606C0AF0B2FC0028F5D1297801232D2273
:10B76000606C0AF0AAFC0028EDD1297801232E2272
:10B77000606C0AF0A2FC0028E5D1A17A38000BF039
:10B78000C3FA2978C3B20E22606C0AF096FC002836
:10B79000D9D12189074871430BF0B6FA0123184328
:10B7A000C3B229782A22606C0AF087FC0028CAD12B
:10B7B000F8BDC0468C870200388702000EFCFFFFF0
:10B7C00010B50400034B0833036009F099FF200013
:10B7D00010BDC046588702007FB504258379040058
:10B7E0002B4204D1FDF700FBA3792B43A37120006A
:10B7F0004830FFF77DFA051E24D12300583319780D
:10B80000062302AE009301223300606CFFF722F89A
:10B81000002801D00D4D16E0042302200022A17A59
:10B82000F3563056B2564B43C0004A434042414360
:10B83000DB0023622368D200A161E2619B6A2000E1
:10B84000984700E00025280004B070BD0EFCFFFF03
:10B85000F8B50400150006AA168807AA0F0012887A
:10B860001900FDF787FF0F4B67640833236023003F
:10B87000AA8848339A80AA7920009A710A4AA26459
:10B88000AA6822652A7B1A736A7B5A730E22AA560B
:10B890009A730023A371230058331E80FFF736FFED
:10B8A0002000F8BD58870200EC84020010B50400A7
:10B8B000034B0833036009F0EFFF200010BDC046C2
:10B8C0009487020070B50825837986B004002B4266
:10B8D00004D1FDF789FAA3792B43A37120004C30E2
:10B8E000FFF706FA002830D023005C3319780623CE
:10B8F00004AE009301223300A06CFEF7ABFF051EDF
:10B9000001D0134821E00E2332786B445A707278CC
:10B9100020001A700022995E64224A43A263B27822
:10B920005A70F2781A700022995E64225242514392
:10B930006163317959707179197000215B5E5A43E6
:10B940002368E2631B6A9847280006B070BDC046B2
:10B950000EFCFFFFF0B507005C3787B004003978B4
:10B9600000231022806C0AF0A8FB0326002807D0D1
:10B970001F483AE02B78334211D06420FDF7D0FA0B
:10B980000F2502ABED180123397808220093A06C33
:10B990002B00FEF75FFF164B9842EBD1E8E7FA2544
:10B9A0002189144EAD00694330000BF0B2F9290033
:10B9B00005F06EF820813978A0231122A06C0AF0DE
:10B9C0007CFB0028D4D1A36C218903936943300008
:10B9D0003F780BF099F901231843C3B210223900C4
:10B9E00003980AF06AFB0028C2D107B0F0BDC04638
:10B9F0000EFCFFFF18880200F8B50400150006AA27
:10BA0000168807AA0F0012881900FEF70DF90D4BD2
:10BA1000A764083323602300AA884C339A80AA794C
:10BA200020009A71084AE264AA6862652A7B1A7348
:10BA30006A7B5A730E22AA561E829A73FFF78AFFF8
:10BA40002000F8BD94870200EC840200F7B5FA25C7
:10BA50000189204FAD000400694338000BF059F90B
:10BA6000290005F015F8A17A20811B480BF051F947
:10BA70002600636CA072009321895836337869439D
:10BA8000380001930BF040F907231843C3B220227A
:10BA9000019900980AF011FB002801D00F4818E026
:10BAA000317810232222606C0AF007FB0028F5D1C0
:10BAB000A17A0948656C37780BF026F980235B4240
:10BAC0001843C3B22322390028000AF0F6FA0028EE
:10BAD000E4D1FEBDC48802009C8802000EFCFFFF7A
:10BAE00010B50400034B0833036009F009FE200081
:10BAF00010BDC04620880200F0B50425837985B0CA
:10BB000004002B4204D1FDF76FF9A3792B43A371F5
:10BB100020004830FFF7ECF8002832D023005833DB
:10BB20001978062302AE0093A8223300606CFEF75A
:10BB300091FE051E01D0144823E01F200023F25E71
:10BB4000D31703409B180222B15E5B11CA17024053
:10BB500052180427F15F3380CF1738404018411145
:10BB6000A07A5B4243435211728052424243B180F9
:10BB70004143E3612368A26121629B6A20009847E8
:10BB8000280005B0F0BDC0460EFCFFFFF8B504006C
:10BB9000150006AA168807AA0F0012881900FDF7DB
:10BBA000E9FD0F4B6764083323602300AA884833FC
:10BBB0009A80AA7920009A710A4AA264AA6822652A
:10BBC0002A7B1A736A7B5A730E22AA569A73002331
:10BBD000A371230058331E80FFF738FF2000F8BD03
:10BBE00020880200EC840200F7B5FA2504000189E0
:10BBF000134EAD00694330000BF08BF8290004F0C0
:10BC000047FF2700A36C208100935C373B7881B20B
:10BC10006943300001930BF077F86022C3B20199B9
:10BC200000980AF04AFA002801D0064807E039785F
:10BC300001236222A06C0AF040FA0028F5D1FEBD73
:10BC4000188902000EFCFFFF10B50400034B0833F7
:10BC5000036009F021FE200010BDC046CC88020020
:10BC60007FB50825837904002B4204D1FDF7BCF889
:10BC7000A3792B43A37120004C30FFF739F800283B
:10BC800022D023005C331978062302AE0093E82209
:10BC90003300A06CFEF7DEFD051E01D00B4813E05B
:10BCA0000223F25E96235B425A4362630021725E76
:10BCB00020005343A3630423F25E96235343E363BC
:10BCC00023681B6A9847280004B070BD0EFCFFFF74
:10BCD000F8B50400150006AA168807AA0F001288F6
:10BCE0001900FDF7A1FF0D4BA76408332360230063
:10BCF000AA884C339A80AA7920009A71084AE26493
:10BD0000AA6862652A7B1A736A7B5A730E22AA5646
:10BD10001E829A73FFF768FF2000F8BDCC880200EE
:10BD2000EC84020010B50400054B083303601C309E
:10BD300009F0FFFA2000183009F0FBFA200010BDCE
:10BD400020890200FF23F0B52B4C8DB02370002317
:10BD5000050069460088009303F0B0F9002802D17D
:10BD60006B469B782370254E3368DB68002B06D129
:10BD7000002328881A0019000AF0C8FD3AE0237849
:10BD8000032BF5D81E4901A8FDF700FB336801A974
:10BD9000DE6804A809F022FB04A930000AF014FDB3
:10BDA000060004A809F0C5FA371E1ED03100202273
:10BDB000103104A808F01EF830000CF041FB217887
:10BDC00004ABC9005918082202A808F013F8288803
:10BDD0000123082202A90AF099FD0127002804D1B5
:10BDE0002888084A0C210AF08FFD01A809F0A1FA61
:10BDF000002FBDD00DB0F0BD9D20002010250020EB
:10BE000052930200FFFF0000F0B5837991B0040067
:10BE10005B071BD5FDF776FA00232269801A99414A
:10BE2000994203D1F423FF3398420FD9A068002828
:10BE300008D0364B1D8801F0F1F8036815221B6A03
:10BE4000290098470422A3799343A371A3799B0700
:10BE50005AD52F4D2B68DB68002B51D02D4B1A780B
:10BE60000193032A4CD8294B2B491B8804A8009323
:10BE7000FDF78CFA2B6804A9DE6808A809F0AEFA71
:10BE800008A930000AF0A0FC070008A809F051FA40
:10BE900002AB9E1D08233200338006A9073B0098A1
:10BEA0000AF036FD002F08D039002022103108A8F2
:10BEB00007F0A0FF38000CF0C3FA019B32881B7812
:10BEC00006A9DE0008AB9E19300007F06BFF0028C2
:10BED00013D0082206A9300007F08CFF2B6804A9B4
:10BEE000DD6805A809F07AFA202308AA05A9280028
:10BEF0000AF070FC05A809F01CFA04A809F019FA68
:10BF00000222A3799343A37111B0F0BD322900201E
:10BF1000102500209D20002052930200F0B585B02E
:10BF200001930AAB1E880BAB1B78451C02930EAB2A
:10BF30001B78040003930B78170003704B8A1022C0
:10BF400043820131280007F055FF6B469B8826830A
:10BF500063836B461B7B002623776B4601221B7A8B
:10BF60006761E683EB77A31CDA770C9B0C25636291
:10BF7000230020000D9A28331A705E709E702A00EC
:10BF800031002C3007F0C0FF2000074BE663A363AD
:10BF90002A003100403007F0B7FF2000034B266530
:10BFA000E36405B0F0BDC0462769020019690200CC
:10BFB00070B50D0001F032F804000368002D02D1C5
:10BFC0005B69984708E09B689847854204D22368DC
:10BFD00020009B6898470500FA20800068430249CA
:10BFE00004F056FDE08070BD71020000F0B507005E
:10BFF0001600A1B002C704006B4918A81D000AF082
:10C00000DBFC331E03D0300008F052F983B201226A
:10C0100004920022039202920232019200933200B3
:10C0200018A93800FFF77AFF23006049583318A891
:10C0300007930AF0C1FC2B1E03D0280008F038F942
:10C0400083B20122049200220392029202320192F0
:10C0500000932A0018A90798FFF760FF23005449AE
:10C06000AC3318A808930AF0A7FC269B002B03D03A
:10C07000180008F01DF983B20122049200220392F5
:10C080000292023201920093269A18A90898FFF7AB
:10C0900045FF631CFF33474918A809930AF08CFC3D
:10C0A000279B002B03D0180008F002F983B201226D
:10C0B00004920022601C03920292023201920093C9
:10C0C000279A18A9FF30FFF729FF23005533FF33C4
:10C0D000394918A809930AF06FFC289B002B03D05C
:10C0E000180008F0E5F883B20122049200220392BE
:10C0F0000292023201920093289A18A90998FFF738
:10C100000DFF2300A933FF332C4918A80A930AF026
:10C1100053FC299B002B03D0180008F0C9F883B208
:10C1200001220492002218AD03920292023201927F
:10C130000093299A29000A98FFF7F0FE204B1B78FC
:10C140000B93002B2DD1079B12971393089B0DAFD8
:10C150001493631CFF331593099B1A4916930A9B8A
:10C16000380017930AF028FC1D2149203B78102243
:10C170002B707B8A12AE6B8206ABC918C01807F011
:10C1800039FE06232B756B469B8D2068AB83AE6111
:10C1900000F054FF036829001B6898470122084BF0
:10C1A0001A70200021B0F0BD292A0000242A0000C6
:10C1B000252A0000272A0000262A0000282A00003D
:10C1C0008D2900200A18000070B5002504000B4BD3
:10C1D0008580083385710360C1601830FDF710F960
:10C1E00020001C30FDF70CF90123621CD377044AB0
:10C1F000A560656120001460A37170BD20890200F4
:10C2000010250020FA2130B585B005000123022257
:10C210008900684609F027F9074C2068002809D0F2
:10C220000AF0F0FB2988054B2268198002219379D6
:10C230000B43937105B030BD10250020322900203A
:10C2400010B50C0007290BD8806800F0E7FE054BFD
:10C25000195703685B6C9847002802D0024800E039
:10C26000024810BD4B94020016FCFFFF17FCFFFFB5
:10C27000F0B5A24C0D00A544040007939AAB1B78BF
:10C280009F4909A804930692FDF780F82000290031
:10C290001C3009F0ABF8C020800001F0D9FB082069
:10C2A0000CF0D9F80700002100F080FE15AD002148
:10C2B000A7600C220EA807F027FE2B000EAA43CA87
:10C2C00043C3904B2900EB60002338002B610AF038
:10C2D00081FDA06800F0A2FE0C220021059028003C
:10C2E00007F012FE14200CF0B6F8874B2A001593C5
:10C2F0000300C2CAC2C3854B059EC3600023A43697
:10C3000003613368002B00D003613060A06800F047
:10C3100095FE0C2200210600280007F0F5FD1420F0
:10C320000CF099F87A4B1593030086CD86C3794BB0
:10C33000C36000230361336B002B00D003613063C3
:10C34000A06800F06BFE15AD0C220021060028004D
:10C3500007F0DAFD14200CF07EF86F4B9836159339
:10C36000030086CD86C36D4BC36000230361336831
:10C37000002B00D00361012504AB1B7C04AA2B43D6
:10C38000306008A9280013740AF0C4FAA06800F00D
:10C3900065FE036862495B6A9847A06800F05EFE2C
:10C3A000036860499B699847A06800F057FE002326
:10C3B00002680093166804992A00B047049B002B7A
:10C3C0000AD020000AF027FB032805DDA06800F052
:10C3D00045FE0368DB6898470EA80AF0DAFA2F20BA
:10C3E00004ABC0180AF0D5FA362004ABC0180AF026
:10C3F000D0FA3D20042504ABC0180AF0CAFA0EABEF
:10C400000A93A06804AB5D7700F028FE03680AA9D0
:10C410001B699847A06800F001FE03680AA95B6DDC
:10C420009847A06800F0FAFD03680021DB6D98478B
:10C43000A06800F0F3FD036802219B6D984700217E
:10C440002000FFF7FDFE18200CF005F8A16800F0B1
:10C450004DFA354B354A1B68A1680393344B15A838
:10C460001B680CAE0293334B00271B680193069B9D
:10C470001B685B190093304B12681B68FFF7B6FD11
:10C4800030200BF0E8FF079AA16800F0EDFAA068F1
:10C4900000F0C4FD036831009B6A98470823A06838
:10C4A0003380DB187380B78000F0B8FD036831007B
:10C4B000DB6A98472900A06808F011FD099A092154
:10C4C0009378A06852190AF083FAA06800F0A6FDDC
:10C4D00032210771A068FFF76BFD04AB1B7FBB42E5
:10C4E00004D0A06800F09AFD0AF05CFA09A808F0F0
:10C4F00020FF95239B009D44F0BDC046ACFDFFFF8F
:10C500005E9302003569020005C201004369020022
:10C5100045BD0100516902007F6902005F690200A8
:10C520003DC5010071C5010018250020142500201B
:10C530000C2000201C2500200820002013B5062216
:10C540006846FCF733FF094B1C68002C0AD069468B
:10C5500001A808F043FF200001A90AF07DFA01A814
:10C5600008F0E7FE684608F0E4FE13BD1025002041
:10C57000002373B501AE0C0031000500019302F0F9
:10C580009DFD002802D1B278064B1A70064B186840
:10C59000002806D061426141044BC9B21D800AF0F7
:10C5A00063FA73BD9D200020102500203229002051
:10C5B00030B5284CA9B06A220D000DA8210007F063
:10C5C00019FC0DA903A8FCF74FFF03A906A808F062
:10C5D0007AFF01230193013BFF3B00930533FF33B7
:10C5E000642206A92800FEF7DDF806A808F05EFF21
:10C5F000210019226A3106A807F0FCFB052200245D
:10C60000110006AB04A808F085FF04A905A808F0EE
:10C610005AFF019400942300220005A92800FEF788
:10C620002BF805A808F042FF21002800FEF7E8F8E3
:10C6300005340520FCF774FCFF2CF5D1FA208000AE
:10C64000FCF76EFC04A808F031FF03A808F02EFFE9
:10C6500029B030BDCF920200F0B59B4B95B005924A
:10C660001A68082304000291D16C06A80B43D36416
:10C670009649FCF78BFE964907A8FCF787FE220037
:10C6800000250DAF38001C3206A908F0BEFE07AA2F
:10C69000390008A808F0B9FE380008F04AFE631C0B
:10C6A000DD77A06800F0BAFC03680BAE5B699847C1
:10C6B00038000AF06EF92B2004ABC0180AF069F9B3
:10C6C000322004ABC0180AF064F9392004ABC0185A
:10C6D0000AF05FF90423A06873710B97357100F0BD
:10C6E0009DFC036831005B6D9847A06800F096FCE4
:10C6F000036829009B6D9847A06800F08FFC070035
:10C7000006000A371F222900380007F0FDFBFD77DD
:10C71000300008F0DBFB0621A06808F0E0FB089A77
:10C7200009219378A06804320AF052F9A06800F059
:10C7300075FCC8210571A068FFF73AFCA06800F0FD
:10C740006DFC0581A06800F069FC0AF02BF90298E5
:10C75000FDF7C6FE2000FCF747FB02992000FFF71B
:10C7600027FF029920000AF092F90423FF2703957E
:10C7700004936369DB0735D5564909A8FCF7F0FE39
:10C7800009A90AA808F09FFE00220AA91300019235
:10C7900000920298FDF770FF0AA808F087FE039B3D
:10C7A000002B01D1043F00E00437282F03DD0023D4
:10C7B000FE2F06DC06E0029809F072FC0123002F30
:10C7C00000DC0393059809F053F8002806D00123F4
:10C7D00062699A431300049A1343636109A808F03D
:10C7E00065FE00256369049A13422AD0FF2102984E
:10C7F000FEF706F80025A36902229B5E9D421BDA24
:10C80000200029B2183008F016FE0023010002981B
:10C810001A007430FCF7F6FEC8208000FCF780FB9D
:10C82000029809F03DFCC820FCF77AFB02226369FC
:10C83000134201D10135DEE7FA208000FCF770FBDE
:10C84000002502226369134233D008261E401AD005
:10C85000214909A8FCF784FE09A90AA808F033FEBB
:10C8600000220AA90192009213000298FDF704FF2A
:10C870000AA808F01BFE1948FCF752FB09A808F0AB
:10C8800015FE174D15E0174909A8FCF769FE09A91F
:10C890000AA808F018FE330032000AA90196009693
:10C8A0000298FDF7E9FE0AA808F000FE09A808F0C2
:10C8B000FDFD6420FCF734FB0B4B01359D4200DC91
:10C8C00057E708F0E0FB54E7702400206C93020067
:10C8D0007C9302007E930200C3930200983A00000A
:10C8E0008C0A0000009402008B0A0000F0B50500DD
:10C8F0000024574BA9B0083303600391A9602100BD
:10C900000BAB1A1901345170102CFAD10122514885
:10C910001A701A1B013C015D5174002CF9D19A7BED
:10C92000597B12020A43290045270C310291252127
:10C930001B7813AE337002ABFF18C918728238002F
:10C94000102207F057FA029B02AA73610123338376
:10C9500033770933FB771DAB1C706D239B181C705C
:10C960006E2321009B1874830C22F4831EA81C7074
:10C97000746207F0C9FA384B0C22B3632100F463E8
:10C9800023A807F0C1FA354B0322F364462302A91A
:10C990005B18DA77220034652C73059606AF3B19D5
:10C9A00001345A70102CFAD101232D493B703B1BE6
:10C9B000013C0A5D5A74002CF9D111212520BB7B62
:10C9C0007A7B1B020BAE13433A78738202ABC91811
:10C9D0003270C018102207F00DFA01230398337546
:10C9E00005ABB361B48300F029FB036831001B6819
:10C9F000984713ABDB8BA868AB8200F01FFB036882
:10CA00000094A98A029ADE680123B047A86800F062
:10CA100015FB029014200BF01EFD06000C222100D5
:10CA200007F072FA300001233461082220C0390077
:10CA30000793069407F0DEF90A4BF360029B9B69AB
:10CA4000002B00D033612800029B9E6129B0F0BD0D
:10CA50003889020063940200276902001969020004
:10CA600053940200F16A0200F0B500260400764BF0
:10CA7000DDB0083303608160C26086808671320059
:10CA8000724947A80AF0D4F82300143308931223FC
:10CA9000012501930E3B04950093089A330047A9A2
:10CAA000039602961DA8FFF739FA3200684947A895
:10CAB0000AF0BEF80C2322000193083B15AF103298
:10CAC0000495009347A933000396029632A8FFF716
:10CAD00025FA32005F4938000AF0AAF823001C3317
:10CAE000099308230193043B390004950093099AA4
:10CAF00033000396029647A8FFF710FA3200564912
:10CB000038000AF095F854200BF0A5FC23001833E8
:10CB10000793122301930E3B390004950093079A63
:10CB20003300039602960690FFF7F8F9069B082259
:10CB3000A3624A4B0AA90A93069B0B961800DC6273
:10CB4000303007F057F9069A454B2682936313005D
:10CB5000668229331D7023690422E36109990798CD
:10CB600007F048F904220799089807F043F966226C
:10CB7000032304A95218D377BA225218D3778722F5
:10CB800052005218D377069A36490232D3771DAB3A
:10CB90000C9332AB0D9347AB0E93069B3200A685E8
:10CBA00010A80F930AF044F830223121452004AB3D
:10CBB0009B181B7812323B7004AB9B181B88323ACF
:10CBC0007B8204ABC918C01807F014F904230CAD1C
:10CBD000A0683B75BD61BE8300F030FA0368390080
:10CBE0001B689847822204AB9B181B88543223840D
:10CBF00004AB9B181B885432A38404AB9B181B887E
:10CC0000A068638400F01AFA070014200BF023FCDC
:10CC100005000C22310007F077F92800124B2E6135
:10CC2000082210C010A91093119607F0E3F80F4BDB
:10CC3000EB60BB69B34200D02B61BD612000FCF703
:10CC4000D3F820005DB0F0BD448902008394020057
:10CC5000B3940200A394020073940200036C0200D8
:10CC60006F6B020093940200D9CC0100996B020013
:10CC7000F0B504000E00150085B000930CAB1B88C6
:10CC80001030019308F0E4FB2680658018200BF03B
:10CC9000E2FB070002AE33003D000AAA03CA03C349
:10CCA000009B102208C50021280007F02DF9310053
:10CCB0000822280007F09EF8064B02227B61200024
:10CCC00000230199A7600A43E360A28023626362A4
:10CCD00005B0F0BDC36B0200F0B50B898DB00593B4
:10CCE000CB68050004934B88828C9A420ED1049C39
:10CCF000059B049A1B1BD318032B39DD62882188FE
:10CD0000012308A808F0AFFB0434F1E7428C9A42F3
:10CD10002ED1049C059B049A1B1BD318032B27DDE3
:10CD20002388282006936388EF680793114B0893A4
:10CD3000002309930BF08FFBC0236A460600029381
:10CD400008AB03CB03C22B000699079A3000FFF70C
:10CD50008FFF3B6831005B6838009847002805D09A
:10CD6000300008F09CFA30000BF06AFB0434D1E785
:10CD70000DB0F0BD836C020070B5040090B0806807
:10CD800009F07AFF0223010019401AD1A38D002B6C
:10CD900017D00D4B6A4604931023E568A1850591D1
:10CDA000029304AB41CB41C20A00230006A8FFF75F
:10CDB0005FFF2B6806A99B682800984706A808F023
:10CDC0006EFA10B070BDC046836C0200002815D00A
:10CDD000006041608260C360046145618661C76133
:10CDE000444604624C464462544684625C46C462D3
:10CDF000644604636E46466374468463002A06D024
:10CE0000C46B043C043A25681560B442F9D18C6BBC
:10CE1000A6464E6BB546002B06D0CC6B043C043BBB
:10CE20001D682560B442F9D10C6BA446CC6AA346B8
:10CE30008C6AA2464C6AA1460C6AA046CF698E69EC
:10CE40004D690C69CB688A6808684968704700605A
:10CE500041608260C360046145618661C761444688
:10CE600004624C464462544684625C46C462644632
:10CE700004636E46466374468463C46B043C0439A1
:10CE800025680D60B442F9D1C769866945690469AE
:10CE90007047006041608260C360046145618661E3
:10CEA000C761444604624C464462544684625C4610
:10CEB000C462644604636C464463744684630469D4
:10CEC0007047846BA646446BA546046BA446C46AAF
:10CED000A346846AA246446AA146046AA046C7697A
:10CEE000866945690469C36882680068416870475B
:10CEF00010B5041E0DD007F0DBF92300013820180F
:10CF0000834208D21A7801780138197042700133CF
:10CF1000F6E7024800E0002010BDC04617FCFFFF06
:10CF2000F0B585B001900C1E28D00027C217161A44
:10CF300056407D1C631902933000013B0A21039384
:10CF400003F016FFCB17C9185940039B30311970F5
:10CF500030000A2103F026FE061E01D02F00E8E76C
:10CF6000019B002B03DA2D23029ABD1C13700026AF
:10CF700020006655FFF7BCFF300000E0014805B017
:10CF8000F0BDC04617FCFFFF0CC8074810B51B18C2
:10CF9000DB00D3181800934205D31C688C4202D3DF
:10CFA0001800083BF7E710BDFFFFFF1F002370B517
:10CFB00004000160436099420AD1064D2B68002BA2
:10CFC00002D10AF039F9286023689B00EB586360AE
:10CFD000200070BD2C25002070B500280DD10C4C10
:10CFE0002668002E07D108300BF035FA0500310015
:10CFF000FFF7DCFF2560206808E0012205490648AC
:10D000000B68134002D1026043600A6070BDC046E5
:10D01000202500203025002024250020436810B55D
:10D020000400002B02D104480BF069F86068036823
:10D030001B69984710BDC046C3940200436810B5F1
:10D040000400002B02D104480BF059F86068036813
:10D050009B69984710BDC046C3940200436810B551
:10D060000400002B02D104480BF049F86068036803
:10D070005B6A984710BDC046C394020000487047E1
:10D08000FFFF0000F0B597B00593036807AD1B687C
:10D090000491039311002B00060091C991C3002451
:10D0A000D36821000C220CA8EB602C6106F02CFF49
:10D0B00021000B4B10940F9311AB1C701A19013403
:10D0C0005170102CFAD100225A820193059B2A003C
:10D0D000009304990CAB3000039CA04717B0F0BD3F
:10D0E000216F0200FC3070B5046C0500002C0DD1DE
:10D0F00024200BF0B0F9064B44608361054B84603B
:10D10000C46004614461C46103602864286C70BD1C
:10D11000308A0200188B0200FC3070B5C56B060027
:10D12000002D16D134200BF096F90400342229008A
:10D1300006F0EAFE084BA5606360084B6561236159
:10D14000074B2562E361074BE562A362064BF4637C
:10D150002360F06B70BDC046608A0200508A0200F6
:10D16000C08A0200D08A0200E08A02007FB50379FB
:10D170001548002B26D0154D154C2B782000002B80
:10D1800020D102AE300009F0A8FE002814D1738827
:10D19000592B11D13378B288D91F012902D80092B6
:10D1A0000C4A01E000920C4A2021200006F0FAFF10
:10D1B00001232B70200005E020220849200007F001
:10D1C000ABF8F7E704B070BDE69402008E290020AA
:10D1D0008F290020009502001D9502004295020053
:10D1E00010B50400024B08C009F009FF200010BD73
:10D1F000D08A020010B50400024B08C009F0FFFEFF
:10D20000200010BD708A020010B50400024B08C057
:10D2100009F0F5FE200010BD608A020010B5040080
:10D22000024B08C009F0EBFE200010BD508A02003E
:10D2300010B50400024B08C009F0E1FE200010BD4B
:10D24000408A020010B50400024B08C009F0D7FE66
:10D25000200010BD808A020010B50400024B08C0F7
:10D2600009F0CDFE200010BD308A020010B5040088
:10D27000024B08C009F0C3FE200010BD84890200E3
:10D2800010B50400024B08C009F0B9FE200010BD23
:10D290007489020010B50400024B08C009F0AFFE0B
:10D2A000200010BD6489020010B50400024B08C0C4
:10D2B00009F0A5FE200010BD9489020010B50400FD
:10D2C000024B08C009F09BFE200010BDC08A02007E
:10D2D000FC3070B5046C0500002C0DD124200BF03F
:10D2E000BAF8064B44608361054B8460C4600461F6
:10D2F0004461C46103602864286C70BD308A0200F8
:10D30000188B0200104B10B5083303600F4B04005C
:10D31000C36080230E4A5B00C250C018FCF7B6FF02
:10D3200020000C4BB830E360FFF7BEFF2000AC30AC
:10D33000FFF79CFF2000A030FFF7A2FF20006C3019
:10D34000FFF7A8FF200010BD448B02008C8B020069
:10D35000E48C0200A4890200F0B50500040087B047
:10D36000AC356B68AB60AE68002E08D0F368210066
:10D3700030009847AB68002BF3D01B69F2E7200020
:10D38000B03009F03CFE2200FC2358321178200016
:10D390000B40137023005C331E700A3009F043FF0A
:10D3A0002000343009F03FFF2000643009F027FEF0
:10D3B0002000983009F023FE200001ADA43009F0D0
:10D3C0001EFE31000C22280006F09EFD23002A00DC
:10D3D0006C3383CA83C3094BE667A3670C22310011
:10D3E000280006F091FD2300803307CD07C33000ED
:10D3F000034A90341A60266007B0F0BD056F020042
:10D40000F76E0200454AF0B50600C260A022444B08
:10D410001636083303600100002342820400320004
:10D4200085B00371836003748382353113700132D8
:10D4300000259142FAD1802780222000D201BF002E
:10D440001100F57737842B000095383000F024FF69
:10D4500023002100403303931A002B005F31137027
:10D46000013200258A42FAD1039B2200DD77230096
:10D4700060331F80FC236432117820000B4013704E
:10D48000230068331D70274B2900E36625670C22B3
:10D49000783006F039FD2300270088331D60224BC9
:10D4A0000837FB67843729000C22380006F02CFD72
:10D4B0001E4B1F4AFB602300A0333D611A601D4ACA
:10D4C0005D60DA601C4A1D619A61DD61300009F01F
:10D4D000AAFE039809F0A7FE184B601CE360230026
:10D4E000C4331D705D709D70FF3002F04BFD8C23C6
:10D4F0005B00E55023001933FF335D618023104A40
:10D500005B00E250230001222000FE3352425A8683
:10D51000023B9D63DD631D6405B0F0BDA48902007C
:10D52000448B020064890200056F0200F76E02005E
:10D530007489020084890200948902008C8B0200A5
:10D54000E48C020070B5074C2368002B07D1A020A3
:10D5500040000AF080FF0500FFF754FF25602068B7
:10D5600070BDC0463425002070B50C220D0000218E
:10D57000040006F0C9FC00232361024B2560200053
:10D58000E36070BD136F020070B500250400264BE8
:10D5900005710360254B45718360254BC560436170
:10D5A000244B85610362244B4562C362234B0563B0
:10D5B0008363C56329004430FFF7D6FF20002900AC
:10D5C0005830FFF7D1FF200029006C30FFF7CCFF67
:10D5D0001B4B220023602300F832803320C3934288
:10D5E000FCD126001D00E936FF3628000822002164
:10D5F000083506F089FCAE42F7D18E2233000020B8
:10D600009200A11801C300229942FBD18E239B00F6
:10D61000E2540C490C4B6118E3181A80023399420A
:10D62000FBD1200070BDC046908A0200408A0200F3
:10D63000508A0200608A0200708A0200808A02001A
:10D64000188C0200620200003A02000070B500204F
:10D650000C00FFF777FF03685B6A98472378142B69
:10D6600017D002D8132B05D03FE0152B18D0222B52
:10D6700035D03AE064680122A37819005D081140B2
:10D680002A404568DB065B0F002D2ED02088A84776
:10D690002BE08368002B28D06268917810881CE00A
:10D6A0006468A27813091207120F012A02D0022A15
:10D6B00008D00DE0013BDBB20021022B09D80C4A57
:10D6C000D15C06E00421012B03D00131022B00D0F4
:10D6D0000021C368002B08D02088984705E0036923
:10D6E000002B02D0626810889847002070BDC046A9
:10D6F0004A950200014B18787047C046B0290020B7
:10D70000F0B51E002F4B87B0009201931A780023CA
:10D7100005000C009A4252D102F080F9002801D095
:10D720000B234CE0002E0ED003A92220039609F013
:10D73000F9FD002807D00623082840D011384342BD
:10D74000434104333BE0002302AA1000137001F0B0
:10D75000B9F8011EE4D101261B4F35403A78344018
:10D76000B2432A436300022514000720009AAC4309
:10D7700002401C431C23AA409C4314433C7003AC4E
:10D780000C22200006F0C0FB0920104B3900039347
:10D7900002AB0522C018257106F02CFB21000C48B5
:10D7A00001F0FCF8002807D00723042807D0013B2C
:10D7B000082804D0053302E0019B1E700300180006
:10D7C00007B0F0BDB02900209E2000204DD60100FA
:10D7D000AF29002010B5074801F0AAF900239842AC
:10D7E00006D00733042803D0013B082800D00533B6
:10D7F000180010BDAF290020002373B501930F4B13
:10D8000001AD1B780E0029002B7001F057FC041E9F
:10D8100004D0042305280FD007330DE03100280081
:10D8200001F0F6F82300002806D00723042803D0CF
:10D83000013B082800D00533180076BDAF29002031
:10D8400073B5104C0E00050005222100684606F055
:10D85000D1FA012E06D0022E11D1012223781343D2
:10D86000B34303E002222378B3439343694628007D
:10D87000237009F055FD031E02D00B2300E00223A4
:10D88000180076BD9E200020094B10B51A780100C3
:10D890000923002A09D0074801F0F2F80023984232
:10D8A00003D003330E2800D00333180010BDC04648
:10D8B000B0290020AF29002010B5040002F07CF848
:10D8C000034B1B68002B01D02000984710BDC046B9
:10D8D00038250020F0B58DB0050001F02FFA0020AA
:10D8E000FFF730FE036807001B6998473B68040098
:10D8F0009B69380098473B6806005B6A3800984788
:10D900000300288810380B2800D998E003F0B6F8F7
:10D91000063D9797975A979797619773AF8820001E
:10D92000390009F0A2FE22006B7B58320193137874
:10D93000A87919000223194306AB11701F80012337
:10D9400006AA9370D07013006A461279E91D9A7284
:10D950002B000622163307A80B9306F04BFA29007A
:10D960000B2006AB06220E31C01806F043FA9434A1
:10D970006368A360A068002861D0C36806A99847BF
:10D98000A368002BF4D01B69F3E720002F49AF8870
:10D9900009F06BFE2200022058321378A9798343E4
:10D9A000137006AB1F809970A0346368A360A068F1
:10D9B000002844D0C36806A99847A368002BF4D078
:10D9C0001B69F3E75B69A91D002B38D0A88898472D
:10D9D00035E0636EAF79002B31D0A366A06E0028CE
:10D9E0002DD0C36839009847A36E002B01D1636E18
:10D9F000F3E71B69F1E701220D27AB7BE91D1A4014
:10DA000001925A07920FDB08029206A80622EF57EE
:10DA1000049306F0EFF96A46127906ABDA716A46AA
:10DA2000127A9F711A726A46127C20005A722B0079
:10DA30008C340F3309938030236806A99847290056
:10DA4000300009F005FF0DB0F0BDC046FFFF00003B
:10DA50000723D72802D9024B18600023180070470B
:10DA60003C250020014B18607047C0463825002037
:10DA70001FB5A3238022DB00D205D3580820DB0783
:10DA800000D405301E4B48221E4901F095FB0028AA
:10DA90000AD080B2002807D1BFF34F8F1A4A1B4B20
:10DAA000DA60BFF34F8FFEE702AC082200212000AE
:10DAB00006F02AFA01232370154B20001B686360CF
:10DAC00009F048FC002801D0072017E0684609F05B
:10DAD0003FFC0028F8D1694609F038FC0028F3D152
