:020000021000EC
:108000000040002065FD0100A1FD0100A3FD01006D
:108010000000000000000000000000000000000060
:10802000000000000000000000000000A5FD0100AD
:108030000000000000000000A7FD0100A9FD0100F4
:10804000ABFD010011AB010021040200ABFD0100FA
:10805000ABFD010000000000DDFD0100ABFD0100F3
:10806000ABFD0100FD050200A9020200ABFD01000D
:10807000ABFD0100ABFD0100ABFD0100ABFD01005C
:10808000ABFD0100ABFD0100ABFD0100ABFD01004C
:10809000ABFD010099FB010031E30100ABFD0100E4
:1080A000ABFD0100ABFD010000000000000000007E
:1080B00000000000000000000000000000000000C0
:1080C000054B0648033310B51B1A062B03D9044B86
:1080D000002B00D0984710BDA8200020A820002029
:1080E000000000000648074910B5091A8910CB0F97
:1080F0005918491003D0044B002B00D0984710BDED
:10810000A8200020A82000200000000010B5074C87
:108110002378002B09D1FFF7D3FF054B002B02D0AA
:10812000044800E000BF0123237010BDB0200020F0
:108130000000000090920200094B10B5002B03D004
:108140000849094800E000BF08480368002B02D135
:10815000FFF7C8FF10BD064B002BF9D09847F7E793
:1081600000000000B420002090920200A82000200F
:1081700000000000144B002B00D1124B9D46402202
:1081800092029A1A924600218B460F461148124AD3
:10819000121A0BF07BFD0D4B002B00D098470C4BB7
:1081A000002B00D098470020002104000D000B4850
:1081B0000BF000FC0BF04CFC200029000FF0F2FD4E
:1081C0000BF016FC0000080000400020000000003A
:1081D00000000000A8200020302A00201D3A0200E4
:1081E00010B50400034B036040300CF0FBFE200090
:1081F00010BDC046C481020013B50A4C200000F037
:108200000BF9094901A800F057FF2000782201A9C5
:10821000F03002F0C5F801A80CF0E4FE00F08EFD8D
:10822000002016BDCC200020C08C020010B5054CEB
:10823000200000F039F8044A044920000FF098FFAC
:1082400010BDC046CC20002000200020518201003B
:10825000CA23144A9B0010B5C2501C330400C01836
:108260000CF0C0FED0239B00E0180CF0BBFE2000F9
:108270009130FF3001F0B8FA20006930FF3001F092
:10828000B3FA2000F03001F0A5FE2000D03002F05B
:1082900029FA2000643007F0D1FC201DFFF7A0FF71
:1082A000200010BD508602001423F0B5040093B0E6
:1082B000192200931821043002F07CFC23002500D1
:1082C000260064331800B43513211093B83607F034
:1082D000C1FC28000EF09EF800221E2130000DF097
:1082E0003DFD2000D03002F01DFA2300F033474A54
:1082F00006211800119301F091FE200000270123B0
:1083000069301A0000971121FF3001F0E9FA2000CE
:1083100091300097012302221A21FF3001F0E0FA88
:108320002000B930022201211A23FF3002F0BAFAEC
:10833000300001F0E1F8E4235B00E050300001F090
:108340002BFBE6235B00E0500100E42220005200FA
:10835000D130119BA2580095FF3001F06FFD200035
:10836000E13029001C22FF3002F0BEFD192320005D
:108370000F93013B0E93013B0D93013B0C93013B8B
:108380000B93013B0A93013B0993013B0893013B8B
:108390000793013B0693013B0593013B0493013B8B
:1083A0000393013B0293013B0193F930013B082207
:1083B00000930721013BFF300DF0F1FCCA239B0025
:1083C000E018290003F0C2FDD3239B00E0181D2113
:1083D00002F038FBDD239B00E75010982770032143
:1083E0000FF00EFC23002200200009499C33A0322C
:1083F0001C6011605760074A80305A6102210122D7
:1084000007F09EFD200013B0F0BDC046CC810200F5
:10841000274C0200134C02000123F0B5057891B0FF
:1084200007001D4000D0DFE00300D03318000493A4
:1084300000F0ECFA00F0DEF928200FF0A0FE0400B6
:1084400010300CF05EFE694B6580238018200FF021
:1084500096FE0600664B80C603901022290030006D
:108460000E930F950BF012FC08220EA930000BF0B2
:1084700083FB604B039AE56053611223A260A380E3
:10848000256265622100049802F0B4F8002805D046
:1084900020000CF05DFD20000FF066FE01223B780D
:1084A000554913433B703B00B433180005930DF05E
:1084B000B7FF5249039005980DF0B2FF00260690D1
:1084C000642000F0C3FB340035003B006933FF3308
:1084D000180007930DF025F8002803D1039B002B0B
:1084E0000DD109E038009130FF300DF01AF8002866
:1084F000F4D0182D03DDF1E7069B002B70D0380077
:10850000653021B2FF2332B2FF3000F053FE32203B
:1085100000F09CFB631CDCB20135052C02D1002469
:10852000731CDEB2039B192D02D0002B02D1CCE7C5
:10853000002B03D03049059802F06AFC03980FF035
:1085400013FE06980FF010FE2D492E4800F05EFC39
:10855000DD239B00FB580893002B38D100F062F814
:1085600001000AA800F0A8FD0CF0E2FB08900CF056
:10857000DFFB6B460990198C0CA80CF04FFD099B92
:108580000DA8190C0CF04AFD0DAA0CA90BA80CF0B3
:1085900095FD0DA80CF026FD0CA80CF023FDCA20BB
:1085A000012380000BAA0AA900933818049B03F04A
:1085B00021FD0BA80CF016FD0AA80CF013FDCC232E
:1085C0009B00FB580893DD23089A9B00FA50CA23AE
:1085D00039009B00079AF031F81803F0FFFE74E7AA
:1085E0000749094800F012FC11B0F0BDFD0300007E
:1085F0009B4C02005B4C0200068D0200118D0200B4
:1086000000200020001C002008000020BFF34F8F36
:10861000024A034BDA60BFF34F8FFEE70400FA050E
:1086200000ED00E0F0B58DB005AF19221549380016
:108630000BF0A2FA0022144B05245A718022520535
:10864000566E012225000194029203930199300095
:1086500008F066F90800029908F0DCF8019B03991C
:108660006B430193029B361A6B430293631E2C1BD0
:108670006C433C19225C1C1ECA54E7D108000DB0A3
:10868000F0BDC046218D02005E290020F0B595B0F6
:108690001822002106000EA80BF0F8FA13210EA8EC
:1086A0000FF0EAFB03210EA80FF07CFC01224A4BDD
:1086B00000921B68002B01D0DBB200930123474AD4
:1086C000002109A807F0ACFD454B9E4200D90026C9
:1086D00072B6444B1022002105A81D680BF0D6FA93
:1086E000414B642130000593052408F01DF96043D7
:1086F0005030281806900A21300008F015F90A2198
:1087000008F0F8F9614350316918079130000A21E7
:1087100008F0F0F94C43210050316C188026089481
:108720000024B601009B002B3CD004AD0027032C95
:1087300002D180260024B6016B682C4A02936300A4
:108740000133D318002201921021581E00780141F4
:10875000039119788C4660460299095C039801429E
:1087600004D0012090400199014301910132063368
:10877000092AE9D1019B2A68D9431D4B09011940F7
:10878000029B934203D1312F01DC002100E03143F1
:1087900009A80FF0C2FCFA23139A0F99DB001068A6
:1087A000014201D1FFF732FF013B002BF7D1FA2341
:1087B000013401377600E4B25B009F42B7D1043543
:1087C00008ABAB42B2D1044B1B68002BAAD0009B74
:1087D000013BDBB20093A5E744240020F0FF00003A
:1087E000E703000004200020708D02003A8D020093
:1087F000F01F0000F8B50023144C23600CF08AFA37
:108800002500002808D0042120000CF07FFA002861
:108810001BD00F4B236018E00122A12704210D4B30
:108820000D4E1A602368FF000B4A70609446624642
:108830005268084C002AFAD0E2591B02013913434E
:108840000029F1D12B6001236360F8BD482400208A
:10885000ED5EBC0B00D00040FCD00040F0B585B010
:108860001F000AAB1B880600029115000393002F1E
:108870001AD028200FF083FC6B4604001989039B53
:10888000AAB200933B000CF04CFB336821005B68FC
:1088900030009847002808D020000CF059FB200039
:1088A0000FF062FC024800E0024805B0F0BDC0468F
:1088B00016FCFFFF17FCFFFF0B4B70B51C68002C6C
:1088C00011D0656D00F0B4FBA36C002903D1834285
:1088D00001D92C00F3E720000CF04FFA03492000E7
:1088E0000CF038FAF5E770BD7024002078240020E1
:1088F000F0B5040093B00793230C0293294B049026
:108900001C68294B05911E68069285B20027002E2F
:1089100046D0002C30D0636D24480393A36C9AB2E8
:108920001B0C99B2854216D12148824213D1002BEB
:1089300004D0029B994201D0039CEAE7002F01D0AA
:108940000127F9E720000CF018FA1A4920000CF072
:1089500001FA0137F0E7002A01D09542ECD1002B53
:1089600002D0029B9942E7D120000CF006FA11498F
:1089700020000CF0EFF9DFE70F4BEB18012B0FD9BC
:108980001023029A009329000C4B08A80CF0C9FA96
:10899000336808A99B683000984708A80CF0D8FAFB
:1089A00013B0F0BD6C2400207C240020FE030000E6
:1089B000FF0300007824002002FCFFFFF188010083
:1089C00010B572B60B4B1C68002C03D020000CF0C5
:1089D000D4F908E062B65C200FF0D1FB5C220021E4
:1089E00004000BF053F90023E364034B2000E3631E
:1089F00010BDC0464C24002000400020024B1878D7
:108A0000012318407047C04664290020F7B50600CE
:108A1000FFF7F4FF051E33D11A4C2660FFF7D0FF95
:108A2000194B1A4918600CF095F9FFF7C9FF184B5C
:108A30001860184B4363184B8363206800280ED0DE
:108A4000C027164E2A00330015490097FFF706FF8E
:108A5000009733002A0013492068FFF7FFFE0C201F
:108A60000FF08DFB0023838083710F4B03600F4B4E
:108A7000836000F0F5FA01210D4A13780B4313705F
:108A8000F7BDC0467C24002050240020782400201C
:108A900080240020FC3F0020414E0200F1880100AC
:108AA000FF030000FE030000EC810200B988010012
:108AB00064290020F7B506000D0017000193002877
:108AC00001D1002015E00029FBD0FFF779FF041E3B
:108AD000F7D0084B019A4363066045608760064BF8
:108AE000002A00D0054B2000A36305490CF032F9A1
:108AF0002000FEBDFC3F00200B4E0200294E02006C
:108B000078240020024B1868434258417047C04601
:108B100078240020002310B504499C006258002AE4
:108B200001D00133F9E76050100010BD542400203B
:108B3000002310B5044A99008C58844201D00133B7
:108B4000F9E70020885010BD5424002010B50024FF
:108B5000074BE058002802D003685B68984704344C
:108B6000182CF5D1034B1B68002B00D120BF10BD82
:108B70005424002078240020F8B5FFF73FFF002898
:108B800056D02C4E34683500E36CDA0718D502272E
:108B90003B43E364284B1D680423EA6C280013431D
:108BA000EB64636BEB630CF00EF92800696C04F066
:108BB00010F83068C36C3B423AD004F044F837E018
:108BC0001E4F1F4E3A68002A01D1326808E0216D1D
:108BD000B94205D1616D002900D11100296000E082
:108BE0002A602A6831688A4208D11B0706D52C60A2
:108BF000FFF7ACFF3B68002BFAD02B6029688C4252
:108C000016D03368994204D10E4B4B630E4B8B63E5
:108C100005E09C4203D100224B6C100006E02000CE
:108C20000CF0D1F820002968626C4B6C03F090FFC7
:108C3000F8BDC04650240020742400207824002071
:108C400080240020FC3F0020414E020070B505004A
:108C5000FFF7D4FE002803D128000FF09CF918E09C
:108C60000C4B1C68E36CDB0706D5FFF7A9FE0A4B2B
:108C70001860002800D0040000F0DAF92818A06479
:108C800020000CF07AF8054920000CF063F8FFF79B
:108C900073FF70BD50240020742400207024002035
:108CA000F0B51E4B85B01C681D4B06001A680F00FE
:108CB0000393002A03D0FFF7A1FE002801D1194831
:108CC0002AE0E36CDB070ED5FFF77AFE164B051E94
:108CD000186008D00CF051F8144928000CF03AF84C
:108CE0002C00FFF749FF3B043343A36420000CF042
:108CF00044F820000E490CF02DF80E4B0020F3181C
:108D0000012B09D9C023039800933A000A4B310084
:108D10000068FFF7A3FD002005B0F0BD502400203F
:108D20007C24002016FCFFFF7424002078240020FF
:108D30006C24002002FCFFFFF188010010B5FFF752
:108D40005DFE002809D0054C20680CF016F8044997
:108D500020680BF0FFFFFFF70FFF10BD502400202D
:108D60004C240020F7B507000D0000282DD0FFF798
:108D700045FE00282BD00724164E3068C36C1C40DB
:108D800006D0154A290038000CF00EF800241FE028
:108D900003F041FF02213268D36C1940019103D0E6
:108DA00003218B43D36413E001242343D3642800BD
:108DB000B8473268D36C1900A143D164019C5B07AA
:108DC00006D528000CF028F802E0044C00E0044C22
:108DD0002000FEBD50240020194E020017FCFFFFAA
:108DE00016FCFFFF020010B5014B12CB12C210BDE2
:108DF00084240020034A044B12681A607E225A60C1
:108E00007047C046042000208424002070B5124E14
:108E100005003278022A1AD081421AD90C1A072C7E
:108E200017D9080003232843034012D172B60B4818
:108E3000D2001550821851608022A40812061443F3
:108E40002C6032780132327062B6180002E00448B9
:108E500000E0044870BDC046662900208C24002034
:108E600013FCFFFF17FCFFFF70B5134A06001378D1
:108E70001400124D002B0CD1114912482B70FFF732
:108E8000C5FF114B984202D11E20FFF7FFFB0123C3
:108E9000237000242B789C4209DA0C49E300C9189E
:108EA00030000BF0D3FF002805D10134F2E7142085
:108EB000FFF7ECFB002070BD65290020662900202B
:108EC00000380020302A002017FCFFFF8C240020EF
:108ED00070B500281FD0104B10491C780023A34206
:108EE00016DADA005558A84210D98A18526890420A
:108EF0000CD2041F2368002B02DC1E20FFF7C6FBE8
:108F0000802322681B061343236004E00133E6E755
:108F10001E20FFF7BBFB70BD662900208C240020BB
:108F200070B5051E15DD0C4B0C4E1A681C00002A8E
:108F300002D030680EF0BAFEFA21256000243068B5
:108F4000074B89008361C46269430EF0B7FE2000BD
:108F500000E0044870BDC046CC2400209C240020C2
:108F60000D90010017FCFFFFF8B5114F06003D689A
:108F7000002D0AD130200FF002F9040006F0C4FEE3
:108F80000C4BA5612360E5623C600B4D2B68002B08
:108F900009D110200FF0F3F804000EF0DCFE2000E1
:108FA0002C600EF0B2FE3000FFF7BAFFF8BDC046ED
:108FB0009C240020F8890200C8240020014B186876
:108FC0007047C046CC24002070B50D4C2368002BA0
:108FD00003D00C4B1B68002B02D10620FFF7C4FF07
:108FE00020680EF0A9FE02000749C3170D684E68FD
:108FF0005219734120680A604B600EF0A3FE70BDE9
:10900000C82400209C240020A820002010B5FFF7D1
:10901000DBFF0024054BE058002802D003681B68E2
:1090200098470434282CF5D110BDC046A024002058
:1090300010B5FFF7C9FFFA22034B92001868596870
:10904000002307F0D5FD10BDA820002010B5FFF7C4
:10905000BBFF024B1868596810BDC046A82000200D
:109060000B4B10B51B680400002B03D0094B1B6889
:10907000002B02D10620FFF777FF0023064A990054
:109080008858002801D00133F9E78C5010BDC04644
:10909000C82400209C240020A0240020002310B518
:1090A000044A99008C58844201D00133F9E700202A
:1090B000885010BDA024002010B50400002902D063
:1090C0000B78002B02D1034B236001E00BF091FFE2
:1090D000200010BDFC810200F8B505000E00140050
:1090E00000290AD00B78002B07D0002A05D00800F1
:1090F00097B20AF09FFF874202D90B4B2B6010E01A
:10910000601DFFF7B1FE28600CF015F928682200F9
:109110004780310004300AF02FFD2B681C19002312
:1091200023712800F8BDC046FC810200014B03609A
:109130007047C046FC81020010B50548054C206010
:109140000CF0FCF8044A054920000FF011F810BD9E
:10915000FC810200D024002000200020E54F020006
:10916000084B73B51C680500002C0AD00100266866
:109170000831082268460AF0FFFC0CCD3168200057
:10918000884773BDD4240020014B03607047C0465C
:109190000482020010B50400002902D1044B0360D0
:1091A00003E0016008000CF0C9F8200010BDC046C3
:1091B0000482020030B504686088814206DAA5881E
:1091C000AA4203DA002901DB002A01DA034804E09D
:1091D0004243601880188371002030BD17FCFFFFE8
:1091E000F0B5070085B00E001D00002921DD002A22
:1091F0001FDD002B1DD00468638803938B4200DDC4
:109200000391A3880293934200DD02920023063467
:109210000193019B029A93420DDA29002000039AE0
:109220000AF0AAFC3B68AD195B88E418019B013386
:10923000EEE7024800E0002005B0F0BD17FCFFFF9C
:10924000F8B504000D0016001F00002901DB002AFC
:1092500002DA0D4B236016E0100048430630FFF79A
:1092600003FE20600CF067F823685D809E80002F6D
:1092700006D03B00320029002000FFF7B1FF02E0DA
:1092800020000BF090FFF8BD04820200F7B5050046
:109290000C1E05D000200F0006000190010015E013
:1092A000224B03603FE03022524294469C44624687
:1092B000092A14D90A2B0DD1019B361801330193C9
:1092C000B14200DA31000020060001373B78002B64
:1092D000E9D106E00028F8D001360020F5E70120AA
:1092E000F3E76A46928809B212B22800FFF7A8FF96
:1092F0002B680A26991D01235B422078002812D092
:109300000200303A092A06D8DA43D21713407343D1
:109310001B18303B05E0002B03DB0B7001230131F0
:109320005B420134E9E72800FEBDC046048202002A
:10933000F0B5040087B004A815001E000F00FFF769
:1093400051FD23685A88954208DA9B88B34205DDAF
:109350001F2F03D9059B00939F4201DD18482DE084
:10936000052300217B430093049B0193009B019AFA
:10937000CB18A03BD35C0022029373189C46531970
:10938000276803937888834202DABB889C4507DB11
:109390000132052AF3D101310529E7D100200DE082
:1093A000634658435319FB18102717411B1802989E
:1093B0000740781E87417F429F71E9E707B0F0BD03
:1093C00017FCFFFFF7B5036806009C1D5B880D00C6
:1093D0005A1A0192002918DD0027994202DB0BF08E
:1093E000E2FE14E033689B889F4210DA6119019A0B
:1093F00020000AF0C1FB019B2900E0180BF0B6FE2B
:10940000336801375B88E418ECE7024800E000208D
:10941000FEBDC04617FCFFFF10B50548054C206097
:109420000BF08CFF044A054920000EF0A1FE10BD90
:1094300004820200D8240020002000205F51020096
:1094400010B5054C012120000BF06CFF034A0449C4
:1094500020000EF08DFE10BDDC2400200020002036
:10946000E35202000388074A10B50120934208D056
:10947000834202D00020DB0703D41E20FFF706F949
:10948000002010BDFFFF00000048704716FCFFFFE2
:1094900010B53220FFF7FAF8004810BD16FCFFFFA8
:1094A0008280142210B5134C02810834020000237C
:1094B0000460416204000221303283718172C36012
:1094C000036143618361C361036236341370537077
:1094D0004386838622788A43F1310A402270020053
:1094E00040321370021DD387013343878387C387BC
:1094F00010BDC04624820200F0B5544F97B03B68BF
:1095000006000593002B00D094E006AC0B331C2220
:109510002121200001F0FEF90EAD0B231D22222196
:109520000AA801F0F7F90B231B222321280001F0E0
:10953000F1F908200EF023FE0122059B1100049092
:109540000DF080FA3A2130000CF0E9FF00281CD021
:10955000A38812ADAB80A3795C20AB713C4B129316
:10956000A3681493237B2B73637B6B73A37BAB7315
:109570000EF005FE04230193363300932A00049B6A
:109580003100040001F0C2FF53E0322130000CF042
:10959000F4FF00281CD0A38812ADAB80A3795C2017
:1095A000AB712B4B1293A3681493237B2B73637BB8
:1095B0006B73A37BAB730EF0E2FD042301932E3398
:1095C00000932A00049B3100040002F03DF930E0D2
:1095D0003C2130000CF08CFF002822D0AB8812AC6C
:1095E000A380AB79A420A371194B1293AB68149399
:1095F0002B7B23736B7B6373AB7BA3730EF0BFFD7D
:10960000052305000293013B0193383300932200A8
:10961000049B310001F096FE0E4B3D6044351D6009
:1096200008E044200EF0ABFD042204990400FFF78B
:1096300037FF3C60074B054C1868002802D02168B2
:109640000BF0DCFF206817B0F0BDC046E02400201E
:1096500014820200E4240020F0B56049C56885B09A
:109660008D4206DA030036331A78022313400BD1F9
:1096700017E0C82200235200954212DD0300363362
:109680001A78002392070CD4012306001F003636F7
:1096900032785408A7433C0002279C40BA43224337
:1096A000327004698C4205DA0200363212785207B1
:1096B00009D415E0C8225200944211DD020036326E
:1096C000127852070CD406000122363633789F08F0
:1096D000BA439700042293431A0001233A4332709D
:1096E000426901920200019E40328E4205DA010079
:1096F0003631097809070AD415E0C821019E4900CE
:109700008E4210DD01003631097809070BD40600BE
:10971000012136363378DF08B9430827C900BB4337
:109720000B43337001E0002B18D01378032B15D8AE
:109730000133DBB21370012B03D10021031DD98744
:109740000CE0042B0AD102000121363213780430D8
:109750000B4313700023C3870B333CE01378029351
:10976000002B1BD006000127011DCB8F363601339D
:109770009BB2CB8703963678BC46374008D01D2B6A
:109780000CD963469E43039B1E700023CB8704E0E5
:10979000092B03D9029BCF87013B13700BF010FEFE
:1097A0000F4A0723904216D90E49043B8D4212DB23
:1097B000C8220133920095420DDC023B8C420ADB49
:1097C000013B944207DC01980433884203DB0133F8
:1097D000904200DC0023180005B0F0BD70FEFFFFD2
:1097E000FF700200E0FCFFFF10B50400034B0833DC
:1097F0000360FFF753FC200010BDC04658820200F2
:1098000070B5C369C2681B688AB00400451D1A425E
:1098100050D0EB7F002B01D0013BEB77EB7F082B87
:109820000DD90122A379134209D11343A371A18851
:10983000130006A80BF070FCFFF7FAFB2062EB7F29
:10984000012B26D80123A2791A4222D00025A18813
:10985000A571022202A80BF05FFCA31DDE7F012E82
:1098600017D1FFF7E5FB2B00226A801A994100907F
:109870000191019BA188AB4203D1174B009A9A42F8
:1098800002D90123042201E03300032206A80BF0D1
:1098900043FC0323A2791340012B1AD1FFF7C8FB25
:1098A0000023226A801A9941994208D10B4B9842B1
:1098B00005D80EE0EB7F0B2BB0D80133ADE70222C9
:1098C000A379A1881343A3710332012306A80BF0E7
:1098D00023FC0AB070BDC046E7030000DB050000B2
:1098E000F0B5070000250E0085B002930AAB1B7887
:1098F00008370393104B04000833036001928580FE
:1099000085712900182238000AF0C0F9039A310045
:1099100038000EF0B6FA6B466A469B88127AA3802E
:10992000A31DE671DA77631D25622000DD77FFF75E
:1099300097FB200005B0F0BD588202000048704738
:1099400016FCFFFF10B53320FEF7A0FE004810BD47
:1099500016FCFFFF002310B50400838083710D48BF
:109960002164083020608020C000A061E061206296
:10997000E3602000236163616362A362E3622363A7
:109980006363A363E363636411000BF010FE2000C4
:1099900010BDC04670820200F0B5534F97B03B68CF
:1099A00006000593002B00D094E00B331C222121EC
:1099B00006A80AAC00F0AEFF0EAD0B231D2222213B
:1099C000200000F0A7FF0B231B222321280000F01A
:1099D000A1FF08200EF0D3FB0122059B110004908B
:1099E0000DF030F81D2130000CF0B0FD00281CD027
:1099F000A38812ADAB80A3796020AB713B4B12936F
:109A0000A3681493237B2B73637B6B73A37BAB7370
:109A10000EF0B5FB05230193183300932A00049B35
:109A20003100040001F046FE53E03C2130000CF010
:109A3000BBFD00281CD0A38812ADAB80A3796020A9
:109A4000AB712A4B1293A3681493237B2B73637B14
:109A50006B73A37BAB730EF092FB0523019337333B
:109A600000932A00049B3100040001F08FFF30E0D6
:109A70003C2130000CF03CFD002822D0AB8812AC19
:109A8000A380AB79A420A371184B1293AB681493F5
:109A90002B7B23736B7B6373AB7BA3730EF06FFB2A
:109AA000052305000293013B019338330093220004
:109AB000049B310001F046FC0D4B1D6044353D60B8
:109AC00008E048200EF05BFB052204990400FFF734
:109AD00041FF3C60064B1A68034B002A01D019680D
:109AE0004A64186817B0F0BDE42400201482020014
:109AF000E024002082B0F0B50400EBB06420719344
:109B000070920EF048FA05220EA811000BF054FBDB
:109B100097490FA8FFF7BAFB002396251A001FA844
:109B20006D001A50C1180C334A608A60AB42F8D1FC
:109B30001922002111A80AF0A9F8A0680CF007F971
:109B400000260990FF21A06800F0B8FC894FA068AA
:109B500000F05CFB07960896864B9F4202D0864B2E
:109B60009F4212DAA0680CF0F4F8A568834918A89F
:109B7000FFF7A2FA782218A9280000F0E7FB18A83E
:109B80000BF030FA7B4F002606E0002F01D00F2E9D
:109B900002D1A06800F03AFB0322089B6068013301
:109BA0001A4008920BF0A3FC050060680BF0A6FCBD
:109BB0000022734B06929D4210DB013206922A006E
:109BC000C8320BDBAA22042192000691954205DCE3
:109BD00003220692C82D01DC013A0692002204926B
:109BE000984210DB012304930300C8330BDBAA2344
:109BF00004329B000492984205DC03230493C82896
:109C000001DC013B04930EA80BF0CDFA002511AB4B
:109C1000EB5C012B08D15B496B00CA185278C95C18
:109C20000EA8FF23FFF7C6FA0135192DEFD16B46B9
:109C300010229A5E6B460EA81821595E089BFFF70A
:109C4000B9FA002F01DB0F2E07D90023A06800937B
:109C500074301A000EA90BF0BCFA00230593059B83
:109C6000484A5B00995C0698814227D1D3185B78FB
:109C7000049A934222D12C2206AB9B18059A9B5C36
:109C8000012B1BD00C23079A216853431D0000228F
:109C90000AA80BF0B5FC1FAA2B0094460AAA63443D
:109CA00023CA23C32C2206AB05999B182B3A5A547E
:109CB000079B0133DBB20793731CDEB2059B0133B4
:109CC0000593192BCBD164200EF065F93B00643B62
:109CD0001FB2079B182B00D83EE71A001FA918A82F
:109CE0000BF0A9FE6A461BAB23CB23C21B68136093
:109CF0001899199A1A9B20680BF06AFCE568002DE8
:109D00000CD0214910A8FFF7D7F91C2318AA10A9D5
:109D100028000CF0B8FB10A80BF064F9A0680CF058
:109D200018F80FA910A8A5680BF026FA0022174B07
:109D3000009210A901932800130000F0A9FA10A8BE
:109D40000BF00DFAFA2080000EF025F9A0680CF057
:109D500000F80999A06800F0B1FB0FA80BF0FFF91B
:109D60000EA80BF0FCF96BB0F0BC08BC02B01847B1
:109D7000828F02008C3C0000D18AFFFFC78F020057
:109D800058FDFFFF508F0200DC8F0200DC05000051
:109D9000F0B587B001930EAB1B88060003930D9BB3
:109DA0000D000093019B02920C9F002B3DD0002FD1
:109DB00002D1009BDB0738D528200EF0E0F9040023
:109DC00010300BF09EF96B461B89182025806380AC
:109DD0000EF0D5F9049707000500009B10220593AB
:109DE000019B002108C7380009F050FF082204A990
:109DF000380009F0C1FE0E4B02226B61002303996B
:109E0000E3602362636233680A43A560A2805B68F3
:109E1000210030009847002808D020000BF098F867
:109E200020000EF0A1F9034800E0034807B0F0BDA0
:109E30004356020016FCFFFF17FCFFFF70B58CB005
:109E40008360109B01604260C360040018491800E1
:109E50000CF0E6FA051E14D001001C22103105A8F2
:109E600009F08AFE6A4608AB43CB43C21B68136005
:109E700020680599069A079B0BF0AAFB28000EF0B4
:109E800073F90C4B186800280ED00B4A05AB0592ED
:109E900000220692C03202926A4622CB22C22300DE
:109EA00003220521FFF774FF20000CB070BDC046EF
:109EB000DC8F0200D4240020F59A0100F0B50400E4
:109EC00085B0637A9C46002B03D120000BF0D0FDB7
:109ED00069E0A37A266F01931023019AF3560025B7
:109EE0009B1801229A402900F36802920393039B76
:109EF0009D4231DAB368019A6B439B1872695B002B
:109F0000E77AD3181A785878E379012F04D15F1EC5
:109F10003F1A10003A000EE0022F05D15F1EBA1A58
:109F2000277A013F381A06E0032F04D1277A013F30
:109F3000BF1A020038005B004343606F8218D318D9
:109F40009B79634500DD6346627B1A4202D00123A0
:109F5000AB4019430135CAE71123C943F356606C7E
:109F6000994023691940029B19430EF0D6F8A37B50
:109F7000072B18D8627B581C520062730B499A0059
:109F8000A073022B03D888580DF0FAFF99E7084B0D
:109F90002000236300236363064B8958E462236433
:109FA00014300DF08BFE05B0F0BDC046B482020047
:109FB000BD9E01005D5A020010B50400044B036011
:109FC0000DF074FE200005F0B5FE200010BDC04667
:109FD000F889020010B504000E4B08330360FFF748
:109FE0005DF8200074300BF0BAF8200060300BF000
:109FF000B6F8200058300AF0F5FF200050300AF083
:10A00000F1FF2000044B14306361FFF7D5FF2000FF
:10A0100010BDC0469C8202000C8A0200F8B50025E3
:10A020000400324B858008330360857114301600BC
:10A030000F0005F069FE20002D4BE5626361256489
:10A040005030FFF773F820005830FFF76FF820000A
:10A050006030FFF799F820000423F25E336826672A
:10A06000590009B274300BF0A7F83378226FE3710E
:10A070007368012623721023E572A572A7802561FB
:10A08000D356916859188B4204DA30009840013356
:10A090000543F8E711230120D356D16859188B42A4
:10A0A00006DA02009A402669013332432261F6E75C
:10A0B00014200EF064F8226900212A4301230600CF
:10A0C00006F0AEF8FF22627222000023012548321A
:10A0D00066646573A373237320001370A366FEF791
:10A0E000BFFFA37920002B43A371F8BD9C8202001F
:10A0F0000C8A0200F0B5437A85B00400002B03D12E
:10A1000020000BF0B5FC66E00122837A11009C462A
:10A110001023066F0025F356039263449940019182
:10A120002900F3680293029B9D422CDAB36872699E
:10A130006B4363445B00E77AD3181A785878E37965
:10A14000012F04D15F1E3F1A10003A000EE0022FCB
:10A1500005D15F1EBA1A277A013F381A06E0032F8D
:10A1600004D1277A013FBF1A020038005B00434345
:10A17000606F8218D3189B79002B02D0039BAB40F1
:10A1800019430135CFE71123C943F356606C994059
:10A1900023691940019B19430DF0BFFF667AB31E76
:10A1A000DBB2FC2B14D8FEF709FF0C4B0500236330
:10A1B00000230B4863630B4BFF21E462236470436D
:10A1C00006F0B2FB29004143200014300DF076FD6B
:10A1D000637A012B94D905B0F0BDC046715A0200D4
:10A1E000B60300005D5A02001FB5012381881A00E2
:10A1F00068460AF091FF012303491A0068460AF0F5
:10A200008BFF05B000BDC046FE0300001FB5030074
:10A2100048331A780400002A0DD000221A70012356
:10A2200081881A0068460AF077FF012304491A0062
:10A2300068460AF071FF200074300AF0B4FF1FBDB9
:10A24000FF03000010B548300378002B06D00378D8
:10A25000012B03D0012102480AF0CEFD10BDC046FB
:10A26000FF03000010B50121040006200AF0C4FD20
:10A27000064B984209D1230048331A78002A04D0AB
:10A280001B78012B01D020BFF5E710BD16FCFFFFA6
:10A2900073B5079C0500002C09DB060048363078B2
:10A2A000002806D03078012803D00D4816E00D486C
:10A2B00014E006981BB2C0B20090280012B27430AD
:10A2C0000AF087FF0020844207D02B004A331C800D
:10A2D00007234C352880337000E0200076BDC0464F
:10A2E00012FCFFFF17FCFFFFF0B587B00D9E0500C5
:10A2F0000F0002920393002E1EDBFFF7A3FF2B003B
:10A3000048331C78E4B2002C18D1390005A80AF0B3
:10A3100033FF0C9B029A009305A9039B019628002A
:10A32000FFF7B6FF05A80AF01AFF301E07D0280075
:10A33000FFF798FF200002E0024800E0024807B063
:10A34000F0BDC04617FCFFFF11FCFFFFF8B504008D
:10A35000171E09DD060048363378002B06D0337807
:10A36000012B03D00C4816E00C4814E02200E379DE
:10A370005632013B137023000025200054331D800A
:10A3800050300AF08CFE23004A331F80022328003D
:10A390004C3425803370F8BD12FCFFFF17FCFFFF23
:10A3A000F7B505000F00161E18DDFFF74BFF2B0059
:10A3B00048331878C4B2002C12D1390001A80AF031
:10A3C00066FE320001A92800FFF7C0FF01A80AF0CD
:10A3D00009FE2800FFF746FF200002E0014800E0E8
:10A3E0000148FEBD17FCFFFF11FCFFFFF8B504009C
:10A3F000161E09DD070048373A78002A06D03A7859
:10A40000012A03D0144826E0144824E05D42069B4C
:10A41000FF3301D16B1D00E0069B22001BB26432AA
:10A4200013802300200066331D7060300AF0ACFEFC
:10A43000220000236C3213709D4200D0B3B2220080
:10A440004A321380079B00205A1E9341013E4C3430
:10A45000053326803B70F8BD12FCFFFF17FCFFFFA1
:10A46000F0B587B005000F00161E03931DDDFFF742
:10A47000E9FE2B0048331C78E4B2002C17D13900D8
:10A4800005A80AF079FE0D9B320001930C9B05A9EB
:10A4900000932800039BFFF7A9FF05A80AF05FFEC1
:10A4A0002800FFF7DFFE200002E0024800E002483B
:10A4B00007B0F0BD17FCFFFF11FCFFFFFF2902D81A
:10A4C0004172002000E001487047C04617FCFFFFC2
:10A4D00013B5040004A80078009020000DF068FB7C
:10A4E000002801D1207500E0004816BD0EFCFFFFDA
:10A4F00013B5040004A80078009020000DF040FB84
:10A50000002801D1207500E0004816BD0EFCFFFFB9
:10A510007FB50D0011000F226A4404001E1E117049
:10A5200015D0089B002B12DD012329000093FFF7B3
:10A53000DFFF002801D007480AE00090089B3200A6
:10A5400029002000FFF7C4FF002801D0F3E70248EC
:10A5500004B070BD0EFCFFFF17FCFFFFF7B507004E
:10A560000D1E27D00023022604690193002C1DD064
:10A57000AA88A3885340334216D1324203D1AB8814
:10A58000334207D010E0A968A0680CF040FA002818
:10A5900004D1F4E7A368AA68934205D12B88002B65
:10A5A0000AD022889A4207D0646ADFE7019B200024
:10A5B000002B1ADC0D4818E06B88002B02D0628853
:10A5C0009A42F1D1EB68E268934201D0002BEBD1C3
:10A5D0007B68002B01D020009847A388044A1343CE
:10A5E000A380019B01330193DEE7FEBD17FCFFFF53
:10A5F0000080FFFFF0B5060085B00D1E5CD001277E
:10A600000469002C1DD00221AA8800230A4202D02E
:10A61000A3885B083B40226829688A4257D1002BF7
:10A620000AD0A968A0680CF0F2F900284FD0EB68B6
:10A63000E26893424BD141E0A368AA68934246D1B5
:10A64000F5E731692A880F000B1E0CD13561012313
:10A65000214968460AF060FD20003AE0586A1F0070
:10A66000002812D0030018889042F7D318003B004E
:10A670000488944209D147886C88A74205D8446A67
:10A680000300002C01D02000F2E799420AD108888B
:10A69000824204D306D14C886888844202D9696218
:10A6A000356102E0596A69625D6201230A496846C0
:10A6B0000AF032FD00200CE008480AE0A3881AB234
:10A6C000002A02DA5B045B0CA380054801E0646A9F
:10A6D00097E705B0F0BDC046FD03000017FCFFFF83
:10A6E00016FCFFFF064B10B51A00040008322C338D
:10A6F000026083600830FEF71BFA200010BDC046E0
:10A70000D482020008B4024B9C46083808BC60475B
:10A71000E5A6010008B4024B9C46083808BC604717
:10A72000C55E02000C4A002311002C32083110B51E
:10A730004360838183738260036143618361C38368
:10A74000016004000830FEF7E5F9044B1A68002A9E
:10A7500000D11C60200010BDD4820200D42400204F
:10A76000F7B50E00012504690192002C37D023882B
:10A7700032889A4201D0002B26D1638872889A428F
:10A7800001D0002B20D1FEF739F90123002806D093
:10A79000A288BF331340C03B5A425341DBB2019AF7
:10A7A000934210D1A7883BB2002B0CDB1022310062
:10A7B000A01809F0E1F940231F4207D1FEF71EF966
:10A7C000002803D006E00025646ACEE720000BF0E5
:10A7D00082FBF9E721000348FEF7C4FAF4E72800FA
:10A7E000FEBDC046D75E020008B4024B9C46083846
:10A7F00008BC604761600200F0B587B001930EAB02
:10A800001B88060003930D9B0D000093019B029291
:10A810000C9F002B3DD0002F02D1009BDB0738D5C9
:10A8200028200DF0ACFC040010300AF06AFC6B46E6
:10A830001B891820258063800DF0A1FC0497070078
:10A840000500009B10220593019B002108C73800DA
:10A8500009F01CFA082204A9380009F08DF90E4B02
:10A8600002226B6100230399E36023626362336811
:10A870000A43A560A2805B68210030009847002849
:10A8800008D020000AF064FB20000DF06DFC0348A6
:10A8900000E0034807B0F0BD8D60020016FCFFFF2A
:10A8A00017FCFFFFF0B50400160000258380164A50
:10A8B000164B85710260218146810573186889B045
:10A8C0008C46A8421DD0124A05950492C0220292DD
:10A8D0006A4604AB82CB82C2614623002A00FFF79E
:10A8E0008BFF0B4A094B0692C022186802926A46F7
:10A8F00006AB079582CB82C223002A003100FFF706
:10A900007BFF200009B0F0BD18830200D424002092
:10A91000B761020030B5002403730123034D847135
:10A920000560818082734373846030BD14820200AD
:10A9300070B583790400DB0702D580680DF014FC44
:10A94000A3799B0702D5A0680DF00EFCA3795B07E5
:10A9500007D5A0230021144ADB00D150A0680DF0D8
:10A9600003FCA3791B0708D5A568002D05D0280096
:10A970000CF0BEF828000DF0F7FBA379DB0605D537
:10A98000A068002802D00368DB6898476023A2799A
:10A990001A4205D0A068002802D003685B68984777
:10A9A0000023A360A37170BD00700040F7B50126BD
:10A9B000037B040033422BD0612385791D4017D1DE
:10A9C000FFF7B6FF18200DF0DAFB0E230700E35661
:10A9D00018220093637B2900019309F057F9019A2B
:10A9E000009938000DF04DFAA379A7603343A371A5
:10A9F0006023A2791A4203D0A0680DF0FAF808E0AB
:10AA0000A268536950681B681840431E984100E0D3
:10AA10000048FEBD16FCFFFF10B501248379417389
:10AA20001C4004D080680DF0BDFA002007E06022D1
:10AA3000134203D080680DF0E3F8F6E7004810BD3C
:10AA400016FCFFFF70B5040000250D4B0E00083307
:10AA5000858085710360210018300BF064FC2000B4
:10AA6000210020300BF082FC064BA680A571E57119
:10AA70002572E5602561656120001C6070BDC046DF
:10AA800028830200E82400208379DB0702D5C16017
:10AA9000002000E00048704716FCFFFF8379DB07C9
:10AAA00001D5C06800E001487047C04616FCFFFFB2
:10AAB00070B545690400002D21D0037A032B20D8FE
:10AAC000FFF7ECFFA8622C200DF059FB2C2200218F
:10AAD000050009F0DBF80023626953622369002B4B
:10AAE00001D1226105E0596A002901D00B00FAE783
:10AAF0005A62237A656101332372002002E0024822
:10AB000000E0024870BDC04617FCFFFF13FCFFFFCA
:10AB1000154B70B55A68154D002A03D000225A60B3
:10AB20000132AA601B69114E002B1CD000210E4B74
:10AB30000F4C19618023DB00F358012B0ED1A923A0
:10AB4000DB00F15820684942FFF79EFF2068FFF7BD
:10AB5000AFFF23685A69074BF25002E02068FFF705
:10AB600093FF0123AB6070BDFC100040001000405B
:10AB7000E82400200405000003000069002809D033
:10AB80000221054AD167426A1A611A7A013A1A7299
:10AB9000024B19607047C04604E100E000E100E0AC
:10ABA00010B5002903DB024B19600DF061F810BDF0
:10ABB000EC24002070B504001E0004AB1D7805F0E5
:10ABC0006DF820000E4B40302360FEF7AFFA2300F3
:10ABD00001364C33013522001E701D730023E12124
:10ABE0004E32A3646365138053809381D381013B0C
:10ABF000200063644902FFF7D3FF200070BDC04608
:10AC0000C4810200F7B580277F053D697C69082271
:10AC1000113C6C4306002100684608F0ADFF104B64
:10AC2000009A9A4219D00093002301937969300069
:10AC3000133969430BF0AFFB019A009930000BF018
:10AC4000C2FB210030000BF0A6FB7969AB08133979
:10AC50006943220030000BF0A8FB0198FEBDC046FE
:10AC6000FECA0000F0B50D00ABB00D9200213022FD
:10AC7000060012A80B9309F009F8280009F0DAF988
:10AC8000431C0C93102B00DDB6E00B9B202B00D94E
:10AC9000B2E0290030000BF0C3FB071E29D12900C8
:10ACA0000C9A12A808F068FF0D990B9A16A808F0E4
:10ACB00063FF80235B051F695A693000113A7A43AC
:10ACC0005D690D92FFF79EFF0D9B30220833002136
:10ACD00004001EA80F9308F0D9FF29001339794307
:10ACE00030000BF058FB0F9B0B9300230C930E933B
:10ACF00035E010300B9A0D9908F016FF040038006B
:10AD00000DF032FA002C7AD0C9E70B9930221EA838
:10AD100008F032FF12A91EA809F048F9002822D134
:10AD2000384930002200109111940BF04CFB6A4618
:10AD30000B9B099315AB23CB23C223CB23C223CB7D
:10AD400023C23000149B1299139A0BF04AFB012383
:10AD50000E930B9B30330B930C9B01330C930C9B8A
:10AD6000A342D2DB10E06A460B9B099321AB23CBB5
:10AD700023C223CB23C223CB23C230001E991F9AA8
:10AD8000209B0BF02EFBE4E7E5433021ED17254037
:10AD90004D430F9B5D190E9B002B1BD1B81E05F078
:10ADA00039FD84422AD01749013430002200109125
:10ADB00011940BF008FB6A46099515AB23CB23C20F
:10ADC00023CB23C223CB23C230001299139A149BA6
:10ADD0000BF007FB0D9930000BF0DDFA80235B05CB
:10ADE00059690C2363431339023379430D9A3000B8
:10ADF0000BF0DBFA002402E0034C00E0034C2000DF
:10AE00002BB0F0BDFECA000017FCFFFF13FCFFFFD4
:10AE10008023F0B55B051A6995B002925A690591D5
:10AE20000299113A51435C69029B133C050003915E
:10AE30005C43FFF7E7FE061E4ED00027039B30223F
:10AE400008330021083408A8019308F01FFF2100EF
:10AE500028000BF0A0FA0497B74220DA01993022BB
:10AE600008A808F089FE059908A809F09FF80028AD
:10AE700009D11B49721E2800069107920BF0A3FA14
:10AE80000123049306E022000C23019928000BF013
:10AE90008CFA3034019B013730330193DCE7049B9B
:10AEA000002B05D10E49320028000BF08CFA13E07C
:10AEB000039928000BF06FFA80235B0559690C2376
:10AEC000029A13394A437343110028000233039A4C
:10AED0000BF06BFA002000E0024815B0F0BDC04650
:10AEE000FECA00000CFCFFFF70B50400A280FA222D
:10AEF000002308000C49920008312160A3716061B1
:10AF0000E260A360638209490BF08AFA051E09D04A
:10AF10000100200010310222123008F02DFE28001E
:10AF20000DF022F9200070BD40830200E78F02007F
:10AF300030B50225837987B004002B4204D1FDF798
:10AF4000E9FDA3792B43A37120000BF0ADFA002893
:10AF50002DD06B46DD1C28000BF09DFA2B78002BC2
:10AF600003D001A80BF095FA0FE00122114B1A60F3
:10AF7000114A5368002BFCD000220F4B5A600F4B34
:10AF800001321B6801930B4B5A600322019BD917B6
:10AF90000A40D3189B102382FEF74AF8E368A18881
:10AFA00018180123A0601A0002A80AF0B5F80020C2
:10AFB00007B030BD00C00040FCC0004008C50040E4
:10AFC000022802D10122014B1A7070476729002024
:10AFD00070B5064C05002378002B04D1044802F01C
:10AFE00079FD01232370280070BDC0466829002028
:10AFF000C1AF010070B50C0009F08CFE002811D023
:10B00000164B0022A50A1C001A7028000BF060FAEB
:10B01000002803D00A200CF0BEFFF6E72378002BAF
:10B02000FCD019E0022180250D4B0E4AED0099500D
:10B0300080205959C0000029FAD0A121084DC9002B
:10B040006C5019580029FCD00020054988508021F7
:10B05000C9005A58002AFCD070BDC046672900209C
:10B0600000E0014004050000F8B50C0015001E00CA
:10B0700009F050FE002812D0194B00221F001A7050
:10B080003200290020000BF021FA002803D00A200A
:10B090000CF081FFF4E73B78002BFCD01EE001218F
:10B0A000104A114B944699508021C9005A58002AE1
:10B0B000FCD080270022FF008021C900964207DDD6
:10B0C000910068586050D9590029FCD00132F3E74B
:10B0D000002260461A505A58002AFCD0F8BDC046DB
:10B0E000672900200405000000E0014008B4024B7D
:10B0F0009C46443808BC6047D5640200F8B5FA2382
:10B100000189DB000400594332480BF096FCFA2118
:10B11000890005F07FFB304F2081A17A38000BF0C9
:10B120008CFC23002600250022894C33A072A03617
:10B130001A808C35317800232A2228680AF016FEFE
:10B14000002801D0254844E031781F235B2228687D
:10B150000AF00CFE0028F5D1317820235C22286803
:10B160000AF004FE0028EDD1317801232C22286852
:10B170000AF0FCFD0028E5D1317801232D22286852
:10B180000AF0F4FD0028DDD1317801232E22286851
:10B190000AF0ECFD0028D5D1A17A38000BF048FC6C
:10B1A0003178C3B20E2228680AF0E0FD0028C9D128
:10B1B000FA2321899B00594306480BF039FC0123EF
:10B1C0001843C3B231782A2228680AF0CFFD00283C
:10B1D000B8D1F8BD18840200988302000EFCFFFF6E
:10B1E00008B4024B9C46443808BC6047FDB00100DF
:10B1F000074B10B51A00040008323C330260436468
:10B2000044300AF0A2F920000AF0D3F8200010BD63
:10B21000B883020008B4024B9C46443808BC60471F
:10B22000F1B1010008B4024B9C46443808BC6047A9
:10B23000DF640200F0B5042583798BB004002B4253
:10B2400004D1FDF767FCA3792B43A3712000903054
:10B25000FFF7ACFB061E66D12300A033197820004F
:10B260000C2307AD00938C302B0001220068FFF700
:10B270004FF9002801D02E4E56E00A2304AA9B184D
:10B280002A785A706A781A700022995EAA785A70E1
:10B29000EA781A7000201A5E03922879587068794B
:10B2A000187000201F5EA8795870E8791870002285
:10B2B000985E0490287A5870687A18700022985E18
:10B2C0000590A87A5870E87A18701F2000229B5EBB
:10B2D000039A9C46A37A52425A435943D5177B435B
:10B2E0000540AA185211A261DF17CA170240384060
:10B2F000C3185B11236264235118059A5B425343C0
:10B300004911A3676423E1616146049A20005A430E
:10B310004B43E267221DD3670AF0BBF8200044309C
:10B320000AF01AF900E0002630000BB0F0BDC0466C
:10B330000EFCFFFF08B4024B9C46443808BC604733
:10B3400035B20100F7B51E00040008AB1B881500DC
:10B35000019309AB00911A8831000AAB1F88FEF7F0
:10B360009FF820003A0031004430FEF7F3FA144B06
:10B3700020001A003C336364230008322260009AE4
:10B380008C331A60AB8890308380AB796A468371C6
:10B390000C4B92880360AB68032183602B7B0373A3
:10B3A0006B7B43730E23EB5683732300A0331A8009
:10B3B000FFF732FB2000FFF7A1FE2000FEBDC046D4
:10B3C000B883020014820200F8B5FA260189B6009B
:10B3D0000400714326480BF030FB310005F01AFAE7
:10B3E000244F2081A17A38000BF027FB2500A072A2
:10B3F0005835297800232A22606C0AF0B7FC00280F
:10B4000001D01D4832E0297810232B22606C0AF00D
:10B41000ADFC0028F5D1297801232D22606C0AF0BB
:10B42000A5FC0028EDD1297801232E22606C0AF0BA
:10B430009DFC0028E5D1A17A38000BF0F9FA2978B3
:10B44000C3B20E22606C0AF091FC0028D9D1218988
:10B45000074871430BF0ECFA01231843C3B2297873
:10B460002A22606C0AF082FC0028CAD1F8BDC046CE
:10B47000B4840200608402000EFCFFFF10B50400DB
:10B48000034B0833036009F094FF200010BDC04651
:10B49000808402007FB50425837904002B4204D107
:10B4A000FDF738FBA3792B43A37120004830FFF749
:10B4B0007DFA051E24D1230058331978062302AEE5
:10B4C000009301223300606CFFF722F8002801D0BE
:10B4D0000D4D16E0042302200022A17AF3563056C7
:10B4E000B2564B43C0004A4340424143DB00236213
:10B4F0002368D200A161E2619B6A2000984700E0C6
:10B500000025280004B070BD0EFCFFFFF8B5040054
:10B51000150006AA168807AA0F0012881900FDF761
:10B52000BFFF0F4B6764083323602300AA884833AA
:10B530009A80AA7920009A710A4AA264AA682265B0
:10B540002A7B1A736A7B5A730E22AA569A730023B7
:10B55000A371230058331E80FFF736FF2000F8BD8B
:10B56000808402001482020010B50400034B0833EB
:10B57000036009F0EAFF200010BDC046BC84020051
:10B5800070B50825837986B004002B4204D1FDF7FD
:10B59000C1FAA3792B43A37120004C30FFF706FAC0
:10B5A000002830D023005C331978062304AE0093C2
:10B5B00001223300A06CFEF7ABFF051E01D013483B
:10B5C00021E00E2332786B445A70727820001A7092
:10B5D0000022995E64224A43A263B2785A70F278DC
:10B5E0001A700022995E642252425143616331799C
:10B5F00059707179197000215B5E5A432368E263C8
:10B600001B6A9847280006B070BDC0460EFCFFFFBD
:10B61000F0B507005C3787B00400397800231022AA
:10B62000806C0AF0A3FB0326002807D01F483AE0ED
:10B630002B78334211D06420FDF708FB0F2502ABB5
:10B64000ED180123397808220093A06C2B00FEF737
:10B650005FFF164B9842EBD1E8E7FA252189144E9B
:10B66000AD00694330000BF0E8F9290005F0D2F88D
:10B6700020813978A0231122A06C0AF077FB0028E2
:10B68000D4D1A36C21890393694330003F780BF038
:10B69000CFF901231843C3B21022390003980AF0EE
:10B6A00065FB0028C2D107B0F0BDC0460EFCFFFF0D
:10B6B00040850200F8B50400150006AA168807AAFE
:10B6C0000F0012881900FEF745F90D4BA7640833E7
:10B6D00023602300AA884C339A80AA7920009A71AB
:10B6E000084AE264AA6862652A7B1A736A7B5A7305
:10B6F0000E22AA561E829A73FFF78AFF2000F8BD19
:10B70000BC84020014820200F7B5FA250189204F9B
:10B71000AD000400694338000BF08FF9290005F0F3
:10B7200079F8A17A20811B480BF087F92600636C19
:10B73000A072009321895836337869433800019309
:10B740000BF076F907231843C3B220220199009821
:10B750000AF00CFB002801D00F4818E031781023C4
:10B760002222606C0AF002FB0028F5D1A17A094878
:10B77000656C37780BF05CF980235B421843C3B2E9
:10B780002322390028000AF0F1FA0028E4D1FEBD96
:10B79000EC850200C48502000EFCFFFF10B504001A
:10B7A000034B0833036009F004FE200010BDC046BF
:10B7B00048850200F0B50425837985B004002B424A
:10B7C00004D1FDF7A7F9A3792B43A37120004830DA
:10B7D000FFF7ECF8002832D02300583319780623FD
:10B7E00002AE0093A8223300606CFEF791FE051EA6
:10B7F00001D0144823E01F200023F25ED31703403A
:10B800009B180222B15E5B11CA170240521804272E
:10B81000F15F3380CF17384040184111A07A5B4266
:10B8200043435211728052424243B1804143E3612B
:10B830002368A26121629B6A20009847280005B016
:10B84000F0BDC0460EFCFFFFF8B50400150006AAC7
:10B85000168807AA0F0012881900FDF721FE0F4B6A
:10B860006764083323602300AA8848339A80AA7942
:10B8700020009A710A4AA264AA6822652A7B1A7378
:10B880006A7B5A730E22AA569A730023A37123006F
:10B8900058331E80FFF738FF2000F8BD48850200AE
:10B8A00014820200F7B5FA2504000189134EAD0099
:10B8B000694330000BF0C1F8290004F0ABFF27000A
:10B8C000A36C208100935C373B7881B269433000E0
:10B8D00001930BF0ADF86022C3B2019900980AF011
:10B8E00045FA002801D0064807E039780123622292
:10B8F000A06C0AF03BFA0028F5D1FEBD408602009C
:10B900000EFCFFFF10B50400034B0833036009F081
:10B910001CFE200010BDC046F48502007FB508253E
:10B92000837904002B4204D1FDF7F4F8A3792B436B
:10B93000A37120004C30FFF739F8002822D02300F3
:10B940005C331978062302AE0093E8223300A06C22
:10B95000FEF7DEFD051E01D00B4813E00223F25E68
:10B9600096235B425A4362630021725E2000534378
:10B97000A3630423F25E96235343E36323681B6AA5
:10B980009847280004B070BD0EFCFFFFF8B5040016
:10B99000150006AA168807AA0F0012881900FDF7DD
:10B9A000D9FF0D4BA764083323602300AA884C33CA
:10B9B0009A80AA7920009A71084AE264AA686265AE
:10B9C0002A7B1A736A7B5A730E22AA561E829A73B6
:10B9D000FFF768FF2000F8BDF48502001482020022
:10B9E00010B50400054B083303601C3009F0FAFA67
:10B9F0002000183009F0F6FA200010BD4886020039
:10BA0000FF23F0B52B4C8DB0237000230500694651
:10BA10000088009303F098FA002802D16B469B78C7
:10BA20002370254E3368DB68002B06D1002328885D
:10BA30001A0019000AF0C3FD3AE02378032BF5D869
:10BA40001E4901A8FDF738FB336801A9DE6804A888
:10BA500009F01DFB04A930000AF00FFD060004A840
:10BA600009F0C0FA371E1ED031002022103104A880
:10BA700008F082F830000CF077FB217804ABC900A5
:10BA80005918082202A808F077F82888012308220C
:10BA900002A90AF094FD0127002804D12888084A49
:10BAA0000C210AF08AFD01A809F09CFA002FBDD0F4
:10BAB0000DB0F0BD80200020F02400207290020024
:10BAC000FFFF0000F0B5837991B004005B071BD540
:10BAD000FDF7AEFA00232269801A9941994203D1F9
:10BAE000F423FF3398420FD9A068002808D0364BC2
:10BAF0001D8801F055F9036815221B6A2900984733
:10BB00000422A3799343A371A3799B075AD52F4DA0
:10BB10002B68DB68002B51D02D4B1A780193032A38
:10BB20004CD8294B2B491B8804A80093FDF7C4FA75
:10BB30002B6804A9DE6808A809F0A9FA08A9300052
:10BB40000AF09BFC070008A809F04CFA02AB9E1D06
:10BB500008233200338006A9073B00980AF031FD24
:10BB6000002F08D039002022103108A808F004F86E
:10BB700038000CF0F9FA019B32881B7806A9DE0028
:10BB800008AB9E19300007F0CFFF002813D0082221
:10BB900006A9300007F0F0FF2B6804A9DD6805A8AE
:10BBA00009F075FA202308AA05A928000AF06BFC01
:10BBB00005A809F017FA04A809F014FA0222A379DB
:10BBC0009343A37111B0F0BD10290020F024002090
:10BBD0008020002072900200F7B504000025019239
:10BBE000C77FAF4254D966197078884202D11529AF
:10BBF00027D804E0605D2D180135EDB2F1E7012290
:10BC00008A40264802421CD0D91901201F2943DC52
:10BC1000E1193718B94210D80021C8B2834205D9BA
:10BC2000019A7018575C01318770F6E7625D9A18C7
:10BC30006255E27F9B18E37728E00878C854013901
:10BC4000E8E7655D013DEDB2AB4209D10021C8B224
:10BC500083421BD9019A7018545C01318470F6E755
:10BC6000FF187F1B01201F2F16DC0227A81C7F4214
:10BC700036187F1BE07F2218964203D23078F055A9
:10BC80000136F7E7451B023DE57701E0002003E0C0
:10BC9000019A20000AF0DFFCFEBDC046FC00200037
:10BCA000F0B585B001930AAB1E880BAB1B78451C21
:10BCB00002930EAB1B78040003930B7817000370FC
:10BCC0004B8A102243820131280007F055FF6B4652
:10BCD0009B88268363836B461B7B002623776B46FA
:10BCE00001221B7A6761E683EB77A31CDA770C9B52
:10BCF0000C256362230020000D9A28331A705E70B1
:10BD00009E702A0031002C3007F0C0FF2000074B46
:10BD1000E663A3632A003100403007F0B7FF20003C
:10BD2000034B2665E36405B0F0BDC046D96502004B
:10BD3000CB65020070B50D0001F032F80400036815
:10BD4000002D02D15B69984708E09B6898478542BF
:10BD500004D2236820009B6898470500FA208000E1
:10BD60006843024904F056FDE08070BD7102000096
:10BD7000F0B507001600A1B002C704006B4918A86F
:10BD80001D000AF09AFC331E03D0300008F052F96F
:10BD900083B20122049200220392029202320192A3
:10BDA0000093320018A93800FFF77AFF230060499A
:10BDB000583318A807930AF080FC2B1E03D02800E4
:10BDC00008F038F983B20122049200220392029211
:10BDD0000232019200932A0018A90798FFF760FF2A
:10BDE00023005449AC3318A808930AF066FC269B3C
:10BDF000002B03D0180008F01DF983B20122049231
:10BE0000002203920292023201920093269A18A90C
:10BE10000898FFF745FF631CFF33474918A80993AB
:10BE20000AF04BFC279B002B03D0180008F002F906
:10BE300083B2012204920022601C03920292023219
:10BE400001920093279A18A9FF30FFF729FF2300DA
:10BE50005533FF33394918A809930AF02EFC289B63
:10BE6000002B03D0180008F0E5F883B201220492F9
:10BE7000002203920292023201920093289A18A99A
:10BE80000998FFF70DFF2300A933FF332C4918A8A9
:10BE90000A930AF012FC299B002B03D0180008F02B
:10BEA000C9F883B201220492002218AD03920292D3
:10BEB000023201920093299A29000A98FFF7F0FEB6
:10BEC000204B1B780B93002B2DD1079B12971393BC
:10BED000089B0DAF1493631CFF331593099B1A49FC
:10BEE00016930A9B380017930AF0E7FB1D2149209F
:10BEF0003B7810222B707B8A12AE6B8206ABC9187E
:10BF0000C01807F039FE06232B756B469B8D206801
:10BF1000AB83AE6100F054FF036829001B689847AB
:10BF20000122084B1A70200021B0F0BD292A000020
:10BF3000242A0000252A0000272A0000262A0000C3
:10BF4000282A0000692900200A18000070B5002581
:10BF500004000B4B8580083385710360C160183085
:10BF6000FDF7E4F820001C30FDF7E0F80123621C27
:10BF7000D377044AA560656120001460A37170BD89
:10BF800048860200F0240020FA2130B585B0050073
:10BF9000012302228900684609F0BEF8074C206898
:10BFA000002809D00AF0C2FB2988054B22681980B5
:10BFB000022193790B43937105B030BDF02400202A
:10BFC0001029002010B50C0007290BD8806800F05C
:10BFD000E7FE054B195703685B6C9847002802D0B1
:10BFE000024800E0024810BD6B91020016FCFFFF02
:10BFF00017FCFFFFF0B5A24C0D00A5440400079309
:10C000009AAB1B789F4909A804930692FDF754F850
:10C01000200029001C3009F042F8C020800001F007
:10C020004FFD08200CF0ABF80700002100F080FE67
:10C0300015AD0021A7600C220EA807F027FE2B00EB
:10C040000EAA43CA43C3904B2900EB60002338007B
:10C050002B610AF053FDA06800F0A2FE0C22002123
:10C060000590280007F012FE14200CF088F8874B8A
:10C070002A0015930300C2CAC2C3854B059EC36044
:10C080000023A43603613368002B00D003613060C5
:10C09000A06800F095FE0C2200210600280007F0A1
:10C0A000F5FD14200CF06BF87A4B1593030086CD48
:10C0B00086C3794BC36000230361336B002B00D030
:10C0C00003613063A06800F06BFE15AD0C22002107
:10C0D0000600280007F0DAFD14200CF050F86F4B32
:10C0E00098361593030086CD86C36D4BC36000233D
:10C0F00003613368002B00D00361012504AB1B7C76
:10C1000004AA2B43306008A9280013740AF05BFAD4
:10C11000A06800F065FE036862495B6A9847A06802
:10C1200000F05EFE036860499B699847A06800F0D4
:10C1300057FE002302680093166804992A00B0474E
:10C14000049B002B0AD020000AF0F9FA032805DD31
:10C15000A06800F045FE0368DB6898470EA80AF067
:10C1600071FA2F2004ABC0180AF06CFA362004AB29
:10C17000C0180AF067FA3D20042504ABC0180AF085
:10C1800061FA0EAB0A93A06804AB5D7700F028FE5D
:10C1900003680AA91B699847A06800F001FE0368BC
:10C1A0000AA95B6D9847A06800F0FAFD03680021BA
:10C1B000DB6D9847A06800F0F3FD036802219B6DDA
:10C1C000984700212000FFF7FDFE18200BF0D7FF55
:10C1D000A16800F04DFA354B354A1B68A1680393FE
:10C1E000344B15A81B680CAE0293334B00271B6819
:10C1F0000193069B1B685B190093304B12681B6808
:10C20000FFF7B6FD30200BF0BAFF079AA16800F0E7
:10C21000EDFAA06800F0C4FD036831009B6A9847FE
:10C220000823A0683380DB187380B78000F0B8FD66
:10C2300003683100DB6A98472900A0680AF049FAD0
:10C24000099A09219378A06852190AF055FAA06852
:10C2500000F0A6FD32210771A068FFF76BFD04AB6B
:10C260001B7FBB4204D0A06800F09AFD0AF01BFAC5
:10C2700009A808F0B7FE95239B009D44F0BDC04679
:10C28000ACFDFFFF7E900200E765020089BF010060
:10C29000F565020001BA0100036602003166020082
:10C2A00011660200C1C20100F5C20100F82400209D
:10C2B000F42400200C200020FC2400200820002072
:10C2C00013B506226846FCF707FF094B1C68002CD3
:10C2D0000AD0694601A808F0DAFE200001A90AF098
:10C2E0004FFA01A808F07EFE684608F07BFE13BDF9
:10C2F000F0240020002373B501AE0C0031000500CE
:10C30000019302F021FE002802D1B278064B1A7088
:10C31000064B1868002806D061426141044BC9B23F
:10C320001D800AF035FA73BD80200020F024002023
:10C330001029002030B5284CA9B06A220D000DA8A4
:10C34000210007F019FC0DA903A8FCF723FF03A99E
:10C3500006A808F011FF01230193013BFF3B009366
:10C360000533FF33642206A92800FEF779F806A8F2
:10C3700008F0F5FE210019226A3106A807F0FCFB3F
:10C3800005220024110006AB04A808F01CFF04A934
:10C3900005A808F0F1FE019400942300220005A9ED
:10C3A0002800FDF7A1FF05A808F0D9FE210028000C
:10C3B000FEF784F805340520FCF748FCFF2CF5D186
:10C3C000FA208000FCF742FC04A808F0C8FE03A88D
:10C3D00008F0C5FE29B030BDEF8F0200F0B59B4BD1
:10C3E00095B005921A68082304000291D16C06A842
:10C3F0000B43D3649649FCF75FFE964907A8FCF708
:10C400005BFE220000250DAF38001C3206A908F0A3
:10C4100055FE07AA390008A808F050FE380008F0B9
:10C42000E1FD631CDD77A06800F0BAFC03680BAE89
:10C430005B69984738000AF005F92B2004ABC01857
:10C440000AF000F9322004ABC0180AF0FBF83920DA
:10C4500004ABC0180AF0F6F80423A06873710B97B8
:10C46000357100F09DFC036831005B6D9847A06852
:10C4700000F096FC036829009B6D9847A06800F0C7
:10C480008FFC070006000A371F222900380007F03A
:10C49000FDFBFD7730000AF0FDF80621A0680AF0E8
:10C4A00018F9089A09219378A06804320AF024F94F
:10C4B000A06800F075FCC8210571A068FFF73AFC80
:10C4C000A06800F06DFC0581A06800F069FC0AF02E
:10C4D000EAF80298FDF79AFE2000FCF71BFB029990
:10C4E0002000FFF727FF029920000AF064F90423D7
:10C4F000FF27039504936369DB0735D5564909A8DF
:10C50000FCF7C4FE09A90AA808F036FE00220AA911
:10C510001300019200920298FDF7E6FE0AA808F0C7
:10C520001EFE039B002B01D1043F00E00437282F9F
:10C5300003DD0023FE2F06DC06E0029809F009FC6B
:10C540000123002F00DC0393059808F0EAFF002880
:10C5500006D0012362699A431300049A134363616E
:10C5600009A808F0FCFD00256369049A13422AD04B
:10C57000FF210298FDF7A2FF0025A36902229B5E1E
:10C580009D421BDA200029B2183008F0ADFD0023CF
:10C59000010002981A007430FCF7CAFEC82080001F
:10C5A000FCF754FB029809F0D4FBC820FCF74EFBC3
:10C5B00002226369134201D10135DEE7FA208000CF
:10C5C000FCF744FB002502226369134233D008269E
:10C5D0001E401AD0214909A8FCF758FE09A90AA84B
:10C5E00008F0CAFD00220AA90192009213000298E5
:10C5F000FDF77AFE0AA808F0B2FD1948FCF726FB01
:10C6000009A808F0ACFD174D15E0174909A8FCF77B
:10C610003DFE09A90AA808F0AFFD330032000AA9BF
:10C62000019600960298FDF75FFE0AA808F097FDB4
:10C6300009A808F094FD6420FCF708FB0B4B0135BA
:10C640009D4200DC57E708F077FB54E750240020B8
:10C650008C9002009C9002009E900200E3900200E9
:10C66000983A00008C0A0000209102008B0A00001A
:10C67000F0B505000024574BA9B0083303600391BF
:10C68000A96021000BAB1A1901345170102CFAD19A
:10C69000012251481A701A1B013C015D5174002C93
:10C6A000F9D19A7B597B12020A43290045270C31A4
:10C6B000029125211B7813AE337002ABFF18C91805
:10C6C00072823800102207F057FA029B02AA7361A7
:10C6D0000123338333770933FB771DAB1C706D2344
:10C6E0009B181C706E2321009B1874830C22F4830A
:10C6F0001EA81C70746207F0C9FA384B0C22B36391
:10C700002100F46323A807F0C1FA354B0322F36438
:10C71000462302A95B18DA77220034652C7305964C
:10C7200006AF3B1901345A70102CFAD101232D4960
:10C730003B703B1B013C0A5D5A74002CF9D111215E
:10C740002520BB7B7A7B1B020BAE13433A787382A6
:10C7500002ABC9183270C018102207F00DFA01237D
:10C760000398337505ABB361B48300F029FB03680C
:10C7700031001B68984713ABDB8BA868AB8200F0D5
:10C780001FFB03680094A98A029ADE680123B04760
:10C79000A86800F015FB029014200BF0F0FC0600D6
:10C7A0000C22210007F072FA3000012334610822C4
:10C7B00020C039000793069407F0DEF90A4BF360B6
:10C7C000029B9B69002B00D033612800029B9E6175
:10C7D00029B0F0BD6086020083910200D965020095
:10C7E000CB6502007391020019680200F0B50026C3
:10C7F0000400764BDDB0083303608160C260868040
:10C8000086713200724947A80AF0A6F82300143353
:10C8100008931223012501930E3B04950093089A77
:10C82000330047A9039602961DA8FFF739FA320094
:10C83000684947A80AF090F80C2322000193083BAE
:10C8400015AF10320495009347A933000396029662
:10C8500032A8FFF725FA32005F4938000AF07CF869
:10C8600023001C33099308230193043B39000495EA
:10C870000093099A33000396029647A8FFF710FA2F
:10C880003200564938000AF067F854200BF077FC64
:10C89000230018330793122301930E3B39000495AC
:10C8A0000093079A3300039602960690FFF7F8F973
:10C8B000069B0822A3624A4B0AA90A93069B0B9681
:10C8C0001800DC62303007F057F9069A454B268293
:10C8D00093631300668229331D7023690422E36188
:10C8E0000999079807F048F904220799089807F072
:10C8F00043F96622032304A95218D377BA225218A7
:10C90000D377872252005218D377069A36490232DB
:10C91000D3771DAB0C9332AB0D9347AB0E93069BB5
:10C920003200A68510A80F930AF016F830223121A4
:10C93000452004AB9B181B7812323B7004AB9B184C
:10C940001B88323A7B8204ABC918C01807F014F96F
:10C9500004230CADA0683B75BD61BE8300F030FAC6
:10C96000036839001B689847822204AB9B181B8818
:10C970005432238404AB9B181B885432A38404AB29
:10C980009B181B88A068638400F01AFA0700142023
:10C990000BF0F5FB05000C22310007F077F92800B9
:10C9A000124B2E61082210C010A91093119607F0A7
:10C9B000E3F80F4BEB60BB69B34200D02B61BD6164
:10C9C0002000FCF7A7F820005DB0F0BD6C860200E7
:10C9D000A3910200D3910200C3910200939102003F
:10C9E0002B69020097680200B39102005DCA010042
:10C9F000C1680200F0B504000E00150085B0009378
:10CA00000CAB1B881030019308F07BFB26806580FF
:10CA100018200BF0B4FB070002AE33003D000AAA59
:10CA200003CA03C3009B102208C50021280007F099
:10CA30002DF931000822280007F09EF8064B02224B
:10CA40007B61200000230199A7600A43E360A28074
:10CA50002362636205B0F0BDEB680200F0B50B899C
:10CA60008DB00593CB68050004934B88828C9A4265
:10CA70000ED1049C059B049A1B1BD318032B39DD94
:10CA800062882188012308A808F046FB0434F1E7F6
:10CA9000428C9A422ED1049C059B049A1B1BD318EE
:10CAA000032B27DD2388282006936388EF680793EC
:10CAB000114B0893002309930BF061FBC0236A46D6
:10CAC0000600029308AB03CB03C22B000699079A1A
:10CAD0003000FFF78FFF3B6831005B6838009847F4
:10CAE000002805D0300008F033FA30000BF03CFB92
:10CAF0000434D1E70DB0F0BDAB69020070B504009D
:10CB000090B0806809F04CFF0223010019401AD14F
:10CB1000A38D002B17D00D4B6A4604931023E568B4
:10CB2000A1850591029304AB41CB41C20A002300C9
:10CB300006A8FFF75FFF2B6806A99B6828009847A7
:10CB400006A808F005FA10B070BDC046AB69020037
:10CB5000002815D0006041608260C36004614561B7
:10CB60008661C761444604624C464462544684620E
:10CB70005C46C462644604636E46466374468463DE
:10CB8000002A06D0C46B043C043A25681560B44200
:10CB9000F9D18C6BA6464E6BB546002B06D0CC6BFC
:10CBA000043C043B1D682560B442F9D10C6BA446DB
:10CBB000CC6AA3468C6AA2464C6AA1460C6AA0467F
:10CBC000CF698E694D690C69CB688A6808684968C5
:10CBD0007047006041608260C360046145618661A6
:10CBE000C761444604624C464462544684625C46D3
:10CBF000C462644604636E46466374468463C46BD1
:10CC0000043C043925680D60B442F9D1C7698669CE
:10CC1000456904697047006041608260C3600461D7
:10CC200045618661C761444604624C46446254468D
:10CC300084625C46C462644604636C464463744622
:10CC4000846304697047846BA646446BA546046BF5
:10CC5000A446C46AA346846AA246446AA146046AFA
:10CC6000A046C769866945690469C3688268006827
:10CC70004168704710B5041E0DD007F0DBF92300A2
:10CC800001382018834208D21A78017801381970C7
:10CC900042700133F6E7024800E0002010BDC046B4
:10CCA00017FCFFFFF0B585B001900C1E28D00027BF
:10CCB000C217161A56407D1C631902933000013BBF
:10CCC0000A21039303F016FFCB17C9185940039BA1
:10CCD0003031197030000A2103F026FE061E01D003
:10CCE0002F00E8E7019B002B03DA2D23029ABD1CDD
:10CCF0001370002620006655FFF7BCFF300000E0EF
:10CD0000014805B0F0BDC04617FCFFFF0CC807483E
:10CD100010B51B18DB00D3181800934205D31C680C
:10CD20008C4202D31800083BF7E710BDFFFFFF1F3E
:10CD3000002370B504000160436099420AD1064D9A
:10CD40002B68002B02D10AF00BF9286023689B00A6
:10CD5000EB586360200070BD0C25002070B50028E2
:10CD60000DD10C4C2668002E07D108300BF007FAC5
:10CD700005003100FFF7DCFF2560206808E0012294
:10CD8000054906480B68134002D1026043600A60FF
:10CD900070BDC0460025002010250020042500207D
:10CDA000436810B50400002B02D104480BF03BF897
:10CDB000606803681B69984710BDC046E391020094
:10CDC000436810B50400002B02D104480BF02BF887
:10CDD000606803689B69984710BDC046E3910200F4
:10CDE000436810B50400002B02D104480BF01BF877
:10CDF000606803685B6A984710BDC046E391020013
:10CE000000487047FFFF0000F0B597B00593036836
:10CE100007AD1B680491039311002B00060091C914
:10CE200091C30024D36821000C220CA8EB602C6174
:10CE300006F02CFF21000B4B10940F9311AB1C70CC
:10CE40001A1901345170102CFAD100225A82019320
:10CE5000059B2A00009304990CAB3000039CA0476B
:10CE600017B0F0BD496C0200FC3070B5046C0500D1
:10CE7000002C0DD124200BF082F9064B4460836115
:10CE8000054B8460C46004614461C461036028642C
:10CE9000286C70BD5887020040880200FC3070B5D5
:10CEA000C56B0600002D16D134200BF068F9040084
:10CEB0003422290006F0EAFE084BA5606360084BA7
:10CEC00065612361074B2562E361074BE562A3625D
:10CED000064BF4632360F06B70BDC0468887020088
:10CEE00078870200E8870200F887020008880200BD
:10CEF0007FB503791548002B26D0154D154C2B789E
:10CF00002000002B20D102AE300009F07AFE00286C
:10CF100014D17388592B11D13378B288D91F0129C4
:10CF200002D800920C4A01E000920C4A2021200015
:10CF300006F0FAFF01232B70200005E020220849AB
:10CF4000200007F0ABF8F7E704B070BD06920200CE
:10CF50006A2900206B290020209202003D920200E5
:10CF60006292020010B50400024B08C009F0DBFE1B
:10CF7000200010BDF887020010B50400024B08C065
:10CF800009F0D1FE200010BD9887020010B5040002
:10CF9000024B08C009F0C7FE200010BD88870200C0
:10CFA00010B50400024B08C009F0BDFE200010BD02
:10CFB0007887020010B50400024B08C009F0B3FEE8
:10CFC000200010BD6887020010B50400024B08C0A5
:10CFD00009F0A9FE200010BDA887020010B50400CA
:10CFE000024B08C009F09FFE200010BD58870200C8
:10CFF00010B50400024B08C009F095FE200010BDDA
:10D00000AC86020010B50400024B08C009F08BFE8C
:10D01000200010BD9C86020010B50400024B08C021
:10D0200009F081FE200010BD8C86020010B50400BE
:10D03000024B08C009F077FE200010BDBC8602003C
:10D0400010B50400024B08C009F06DFE200010BDB1
:10D05000E8870200FC3070B5046C0500002C0DD18F
:10D0600024200BF08CF8064B44608361054B8460F0
:10D07000C46004614461C46103602864286C70BDAD
:10D080005887020040880200104B10B50833036037
:10D090000F4B0400C36080230E4A5B00C250C018CF
:10D0A000FCF78AFF20000C4BB830E360FFF7BEFFAF
:10D0B0002000AC30FFF79CFF2000A030FFF7A2FF5C
:10D0C00020006C30FFF7A8FF200010BD6C88020024
:10D0D000B48802000C8A0200CC860200F0B505007C
:10D0E000040087B0AC356B68AB60AE68002E08D02A
:10D0F000F368210030009847AB68002BF3D01B6920
:10D10000F2E72000B03009F00EFE2200FC23583276
:10D11000117820000B40137023005C331E700A301E
:10D1200009F015FF2000343009F011FF20006430B1
:10D1300009F0F9FD2000983009F0F5FD200001AD5F
:10D14000A43009F0F0FD31000C22280006F09EFD0D
:10D1500023002A006C3383CA83C3094BE667A367A5
:10D160000C223100280006F091FD2300803307CD0A
:10D1700007C33000034A90341A60266007B0F0BD40
:10D180002D6C02001F6C0200454AF0B50600C2601B
:10D19000A022444B1636083303600100002342826C
:10D1A0000400320085B003718360037483823531DB
:10D1B0001370013200259142FAD18027802220008D
:10D1C000D201BF001100F57737842B00009538306D
:10D1D00000F024FF23002100403303931A002B00AA
:10D1E0005F311370013200258A42FAD1039B22007D
:10D1F000DD77230060331F80FC2364321178200028
:10D200000B401370230068331D70274B2900E36621
:10D2100025670C22783006F039FD2300270088337B
:10D220001D60224B0837FB67843729000C22380029
:10D2300006F02CFD1E4B1F4AFB602300A0333D610E
:10D240001A601D4A5D60DA601C4A1D619A61DD61E9
:10D25000300009F07CFE039809F079FE184B601C41
:10D26000E3602300C4331D705D709D70FF3002F0D9
:10D270004BFD8C235B00E55023001933FF335D61C8
:10D280008023104A5B00E250230001222000FE337D
:10D2900052425A86023B9D63DD631D6405B0F0BDBA
:10D2A000CC8602006C8802008C8602002D6C020085
:10D2B0001F6C02009C860200AC860200BC86020045
:10D2C000B48802000C8A020070B5074C2368002B5A
:10D2D00007D1A02040000AF052FF0500FFF754FFDD
:10D2E0002560206870BDC0461425002070B50C2252
:10D2F0000D000021040006F0C9FC00232361024B4D
:10D3000025602000E36070BD3B6C020070B5002515
:10D310000400264B05710360254B45718360254B46
:10D32000C5604361244B85610362244B4562C3623F
:10D33000234B05638363C56329004430FFF7D6FFA1
:10D34000200029005830FFF7D1FF200029006C3061
:10D35000FFF7CCFF1B4B220023602300F832803301
:10D3600020C39342FCD126001D00E936FF36280079
:10D3700008220021083506F089FCAE42F7D18E2242
:10D38000330000209200A11801C300229942FBD172
:10D390008E239B00E2540C490C4B6118E3181A8051
:10D3A00002339942FBD1200070BDC046B88702000D
:10D3B0006887020078870200888702009887020049
:10D3C000A887020040890200620200003A020000C1
:10D3D000024B0B60092313607047C0466A9202003B
:10D3E00010B504000020FFF76FFF03681B69984722
:10D3F0000300F3331C7086235B00C0500300002140
:10D40000044AFC335A61044A99615A62F4300AF0C2
:10D4100055FC10BD0F72020021720200012110B5EF
:10D42000044A080002F0C8FB031E00D00B231800BA
:10D4300010BDC046E1D30100F0B593B001900020CB
:10D440000C00FFF741FF03685B6A984700F08AF918
:10D4500006AB00280DD000221A7105AA06920822F8
:10D4600018001A730AAA9A6000F046FA002802D03F
:10D4700052E01871187300231F0023732371019B5E
:10D48000BA331B78BB4246D907237B43019AD21893
:10D49000BB321278022A31D1002506AE337BAB4273
:10D4A00036D907207843AB000293019BAA001818D5
:10D4B000089BBB30995809F053FF00281BD0B36874
:10D4C000AA009A58237BA1689B005A50237B013302
:10D4D0002373337B5A1E954208D01049B2685B18FB
:10D4E0009B009B5803930399029BD15006AA137B80
:10D4F000013B13730CE00135EDB2CEE701992279BF
:10D50000CB182168BB339200535023790133237128
:10D510007B1CDFB2B3E7002013B0F0BDFFFFFF3F7D
:10D52000F0B59DB01F006B4605001A70581C06220E
:10D53000229E02AC06F020FB002F07D03B88238000
:10D540007B886380BB88A380FB8806E0322323802E
:10D55000DB186380F533A780FF33E3800CAB04A9AD
:10D56000049314AB8B602F000023B9370B710B733E
:10D570003B78002B17D101203B78022708A90340F4
:10D580005A000B78BB4304AF4F601343002E10D0FA
:10D59000B2798343024013430B7033880B81738845
:10D5A0004B81B38811E02800FFF746FF0028E2D046
:10D5B00029E02A00323212788343024013430B7071
:10D5C000AB8D0B81EB8D4B812B8E220068468B81BE
:10D5D00009F056FD03000020834214D00630082BCA
:10D5E00011D005D80130042B0DD0834208D109E0B9
:10D5F0000520112B07D0054A934203D0102B01D0F0
:10D600000B2000E004201DB0F0BDC0460232000037
:10D61000F0B50A7804009BB00D000220012A44D026
:10D620004B88032A06D1A03B21499BB210008B42B4
:10D630003BD805E0203B1F4A9BB20320934234D8DD
:10D640001D4BAA8803209A422FD80AAB009312AB35
:10D6500002936A460023260013711373B836337899
:10D66000002B05D069462000FFF7E6FE00281CD1FC
:10D6700004AF18220021380006F008FB2B78380090
:10D680003B7033783B726B46FB606B883B82AB88A8
:10D690007B8209F0DFFC02000320002A05D1012172
:10D6A0001000583423780B4323701BB0F0BDC046E4
:10D6B000603F0000E03F0000FF3F000070B5002029
:10D6C0000C00FFF701FE03685B6A98472378142B70
:10D6D00017D002D8132B05D03FE0152B18D0222BE2
:10D6E00035D03AE064680122A37819005D08114042
:10D6F0002A404568DB065B0F002D2ED02088A84706
:10D700002BE08368002B28D06268917810881CE099
:10D710006468A27813091207120F012A02D0022AA4
:10D7200008D00DE0013BDBB20021022B09D80C4AE6
:10D73000D15C06E00421012B03D00131022B00D083
:10D740000021C368002B08D02088984705E00369B2
:10D75000002B02D0626810889847002070BDC04638
:10D7600073920200014B18787047C0468C29002044
:10D77000F0B51E002F4B87B0009201931A7800235A
:10D7800005000C009A4252D101F0DEFF002801D0C2
:10D790000B234CE0002E0ED003A92220039609F0A3
:10D7A000DDFD002807D00623082840D01138434269
:10D7B000434104333BE0002302AA1000137000F041
:10D7C000C7FF011EE4D101261B4F35403A78344093
:10D7D000B2432A436300022514000720009AAC4399
:10D7E00002401C431C23AA409C4314433C7003ACDE
:10D7F0000C22200006F04AFA0920104B390003934E
:10D8000002AB0522C018257106F0B6F921000C48BC
:10D8100001F00AF8002807D00723042807D0013BAD
:10D82000082804D0053302E0019B1E700300180095
:10D8300007B0F0BD8C29002081200020BDD601005A
:10D840008B29002010B5074801F0B8F80023984252
:10D8500006D00733042803D0013B082800D0053345
:10D86000180010BD8B290020002373B501930F4BC6
:10D8700001AD1B780E0029002B7001F065FB041E22
:10D8800004D0042305280FD007330DE03100280011
:10D8900001F004F82300002806D00723042803D051
:10D8A000013B082800D00533180076BD8B290020E5
:10D8B00073B5104C0E00050005222100684606F0E5
:10D8C0005BF9012E06D0022E11D1012223781343D9
:10D8D000B34303E002222378B3439343694628000D
:10D8E000237009F039FD031E02D00B2300E0022350
:10D8F000180076BD81200020094B10B51A78010070
:10D900000923002A09D0074801F000F800239842B3
:10D9100003D003330E2800D00333180010BDC046D7
:10D920008C2900208B29002010B5040001F0DAFEBC
:10D93000034B1B68002B01D02000984710BDC04648
:10D9400018250020F0B58DB0050001F03DF900204C
:10D95000FFF7BAFC036807001B6998473B6804009F
:10D960009B69380098473B6806005B6A3800984717
:10D970000300288810380B2800D998E002F040FFF7
:10D98000063D9797975A979797619773AF882000AE
:10D99000390009F0DBFC22006B7B583201931378CD
:10D9A000A87919000223194306AB11701F800123C7
:10D9B00006AA9370D07013006A461279E91D9A7214
:10D9C0002B000622163307A80B9306F0D5F8290082
:10D9D0000B2006AB06220E31C01806F0CDF89434A9
:10D9E0006368A360A068002861D0C36806A998474F
:10D9F000A368002BF4D01B69F3E720002F49AF8800
:10DA000009F0A4FC2200022058321378A97983433C
:10DA1000137006AB1F809970A0346368A360A06880
:10DA2000002844D0C36806A99847A368002BF4D007
:10DA30001B69F3E75B69A91D002B38D0A8889847BC
:10DA400035E0636EAF79002B31D0A366A06E00285D
:10DA50002DD0C36839009847A36E002B01D1636EA7
:10DA6000F3E71B69F1E701220D27AB7BE91D1A40A3
:10DA700001925A07920FDB08029206A80622EF577E
:10DA8000049306F079F86A46127906ABDA716A46B1
:10DA9000127A9F711A726A46127C20005A722B0009
:10DAA0008C340F3309938030236806A998472900E6
:10DAB000300009F069FD0DB0F0BDC046FFFF000069
:10DAC0000723D72802D9024B18600023180070479B
:10DAD0001C250020014B18607047C0461825002007
